:020000040800F2
:1000000000400020914800080948000813480008F3
:1000100000000000000000000000000000000000E0
:100020000000000000000000000000001948000867
:100030000000000000000000234800082D480008D0
:10004000E1480008E1480008E1480008E1480008EC
:10005000E1480008E1480008E1480008E1480008DC
:10006000E1480008E1480008E1480008E1480008CC
:100070003D480008E1480008E148000855480008EC
:10008000E1480008E1480008E1480008E1480008AC
:10009000E1480008E1480008E1480008E14800089C
:1000A000E1480008E1480008E1480008E14800088C
:1000B000E1480008E1480008E14800086D480008F0
:1000C00010B5064C2378002B07D1054B002B02D02E
:1000D000044800E000BF0123237010BDD8000020B9
:1000E0000000000008D70008044B10B5002B03D017
:1000F0000349044800E000BF10BDC04600000000F6
:10010000DC00002008D700080023C25C0133002A6D
:10011000FBD1581E70470000002243088B4274D365
:1001200003098B425FD3030A8B4244D3030B8B42F8
:1001300028D3030C8B420DD3FF22090212BA030C01
:100140008B4202D31212090265D0030B8B4219D3E2
:1001500000E0090AC30B8B4201D3CB03C01A524102
:10016000830B8B4201D38B03C01A5241430B8B424A
:1001700001D34B03C01A5241030B8B4201D30B0333
:10018000C01A5241C30A8B4201D3CB02C01A52415A
:10019000830A8B4201D38B02C01A5241430A8B421D
:1001A00001D34B02C01A5241030A8B4201D30B0206
:1001B000C01A5241CDD2C3098B4201D3CB01C01A20
:1001C000524183098B4201D38B01C01A524143092A
:1001D0008B4201D34B01C01A524103098B4201D318
:1001E0000B01C01A5241C3088B4201D3CB00C01A85
:1001F000524183088B4201D38B00C01A52414308FD
:100200008B4201D34B00C01A5241411A00D2014621
:10021000524110467047FFE701B5002000F006F894
:1002200002BDC0460029F7D076E770477047C04648
:100230009E2110B5C905041C01F04AFF002803D116
:10024000201C00F019FC10BD9E21201CC90500F0E7
:100250004BFA00F011FC80231B069C466044F2E739
:1002600070B500220C4B04000D0001F0F7FE0028D1
:1002700004D12000290001F03FFE70BD064B002292
:100280002000290001F0A6FA01F036FE80231B06AB
:100290009C466044F1E7C0460000E041F0B54F469F
:1002A0004646D6464502C0B547000C1C6D0A3F0EB7
:1002B000C60F002F66D0FF2F6CD00023EA008025E8
:1002C00099469A46ED0415437F3F60026100430A58
:1002D0009846090EE40F002948D0FF2910D080224B
:1002E000D800D2040243904600207F394A463300AA
:1002F0007F1A02436C4992008A586340DBB29746EA
:10030000002B6DD10220FF3F33E0002398462600EA
:10031000454682465346022B00D17FE0032B00D195
:1003200094E0012B17D038007F3000285FDD6B0789
:1003300004D00F232B40042B00D004352B0103D510
:1003400038005A4B80301D40FE2867DCAD016D0A35
:10035000C0B202E01E0000200025C0052843F607B9
:100360003043E0BCBA46B146A846F0BD002B2BD1C5
:1003700001204A4633004E49024392008A586340A6
:10038000DBB29746002D13D104239946033B002787
:100390009A469AE7002D05D108239946063BFF2788
:1003A0009A4692E70C239946093BFF279A468CE729
:1003B000280001F097FE7627431F9D4000237F42CF
:1003C00099469A463F1A80E7180001F08BFE424694
:1003D000431F76219A404942091A9046002085E73A
:1003E000FF21032082E71E00FF200025B5E701233F
:1003F0001B1A1B2BAFDC9E372900BD40D9406A1E5B
:1004000095410D436B0704D00F232B40042B00D0E4
:1004100004356B0144D5012000259EE7FF2000250F
:100420009BE780250026FF20ED0396E700239846F2
:100430008020C003054209D04346034206D1454609
:1004400005436D022600FF206D0A86E78020C00369
:1004500005436D02FF206D0A7FE741466A014801AE
:10046000824219D21B210025013F012614006D0094
:100470005200002C01DB904201D8121A3543013999
:100480000029F3D1501E824138007F301E001543F1
:10049000002800DD4BE7AAE71A210125121AE4E73C
:1004A000AD0100206D0A58E788D80008FFFFFFF76C
:1004B000C8D80008F8B557464E464546DE464402C1
:1004C000E0B545000F1C640A2D0EC60F002D47D065
:1004D000FF2D4DD0002380209A469B46E400C004A7
:1004E00004437F3D7802430A99467A00FB0F984601
:1004F000120E4B4644D0FF2A11D0D8008023DB04D3
:100500000343994600207F3AAD184746534677404B
:10051000691C0F2B3FD8724A9B00D3589F46FF356A
:10052000002B00D079E0524602231A439246022063
:10053000EBE747464C4683465B46022B28D0032B0D
:1005400000D1C6E0012B4FD100200024C005FF07D9
:1005500020433843F0BCBB46B246A946A046F8BD8E
:10056000002C71D104239A46033B00259B46B9E732
:10057000002C63D108239A46063BFF259B46B1E732
:10058000002B50D1524601331A4392460120BCE75A
:10059000FF200024DAE74846260C2404220C040439
:1005A000240C4B4620001B0C504374435A435E43BB
:1005B0001219030C9B189C4203D9802252029446C4
:1005C000664400041A04000C12189401601E844151
:1005D0001B0C920E9B1914439B011C431B0172D5EB
:1005E0000120630804401C4308007F3000283CDDE4
:1005F000630704D00F232340042B00D004342301CD
:1006000003D580310800374B1C40FE28C0DCA40114
:10061000640AC0B29AE737008EE7524603231A43B2
:100620009246032071E7484601F05CFD4A46431FAD
:100630009A402D1A91460020763D66E70C239A4693
:10064000093BFF259B464DE7200001F04BFD762539
:10065000431F9C4000236D429A469B462D1A41E75A
:1006600080240027FF20E40370E701231B1A1B2BC3
:1006700000DD69E79E3120008C40D840631E9C411C
:100680000443630704D00F232340042B00D0043419
:1006900063011AD50120002458E78020C0030442DA
:1006A00009D04B46034206D14C46044364024746F8
:1006B000FF20640A4AE78020C00304436402370035
:1006C000FF20640A42E729008EE7A4010020640AA3
:1006D0003CE78020C00304436402FF20640A35E73E
:1006E00008D90008FFFFFFF7F0B54646D6464F464B
:1006F00043025B0ADA0094464A02C0B54400560A37
:10070000051CB046240E4E0092091F0020009246A0
:10071000ED0F360EC90FFF2E00D17FE001225140B0
:100720008D4251D0A21B9146002A00DC7EE0002EB3
:1007300000D199E0FF2C00D18CE080235246DB04ED
:100740001A4392464A4601231B2A08DC53462021BD
:10075000D340891A52468A40511E8A411343624649
:10076000D31A5A0100D4F3E09B019E09300001F036
:10077000B9FC05388640844200DDF7E03200041BF6
:1007800020200134E240041BA64033005E1EB3412A
:10079000002413435A0704D00F221A40042A00D021
:1007A00004335A0100D4D6E0621CFE2C00D1DAE0FA
:1007B0009B015F0AD0B2C0053843ED072843E0BC77
:1007C000BA46B146A846F0BDA21B9146002A63DD99
:1007D000002E00D199E0FF2C3CD080235246DB0450
:1007E0001A4392464A4601231B2A08DC534620211D
:1007F000D340891A52468A40511E8A4113436344AA
:100800005A0100D4A4E00134FF2C00D1ABE0012256
:1008100097491A405B080B401343BBE7002A32D0CC
:100820008D4235D0FF2252429146A1444A46002AC9
:1008300051D0301B002C00D09CE06346002B00D12F
:10084000DFE00138002800D1F7E0FF2E00D099E06A
:100850000D004346002B00D185E08027FF031F4396
:100860007F02FF207F0AA6E75246002A74D00122A9
:1008700052429046C1444A46002A00D1C8E0FF2CAB
:1008800000D05FE7E6E701225140A94200D049E7E6
:10089000FF2252429146A1444A46002A43D0311BCE
:1008A000002C00D18CE0FF2E00D192E08023624624
:1008B000DB041A43944601231B2909DC20206346EC
:1008C0006246CB40411A8A401100481E81410B43C9
:1008D0003400534494E7FE22661C324264D1002C5B
:1008E00000D082E06346002B00D1ABE05346002BE2
:1008F00000D160E7634652469B1A5A0100D4AAE031
:10090000634652460D00D31A44E75246002A23D0CC
:10091000012252429046C1444A46002A75D0FF2C1B
:1009200000D05FE796E7FE260134264253D1002827
:1009300072D16346002B00D193E05346002B00D1C7
:1009400039E7634400245A0102D54A4A013413406E
:100950005A0700D020E7DB08FF2C00D17AE75B02C2
:100960005F0AE0B227E7FF20002724E7414B241A63
:1009700033400FE7FF2E00D16AE780236246DB0495
:100980001A43944601231B2809DC2024634662464F
:10099000C340201A82401000441EA0410343524627
:1009A0000D003400D31ADCE6634652469E1A7301EA
:1009B00017D4002E00D0D9E6002500200027FAE643
:1009C0006346002B44D0013900294CD0FF2E00D0C3
:1009D00071E743463EE7FF2CC5D0524662445308B8
:1009E000B6E763460D00D61AC0E66246002A16D165
:1009F0005346002B00D02BE780270025FF20FF0364
:100A0000D9E60D0043463400A6E753466344F7E6B3
:100A1000634652469B1AA4E66246002AD9D0524643
:100A2000002A00D116E78022D203134200D111E739
:100A30004046104200D00DE70AE752460D00340050
:100A4000D31A8EE65346002B08D00D004746B2E677
:100A50004346340080E7002B00D079E700250027CB
:100A6000A9E64746A7E6534634006344C8E6C046B5
:100A7000FFFFFF7DFFFFFFFB41024200C30F490A5A
:100A80000020120E7E2A03D99D2A02D9094A9818FD
:100A90007047802000040143952A07DC9620821AC3
:100AA000D1404842002BF3D10800F1E7963A91403B
:100AB000F7E7C046FFFFFF7F70B5051E0ED001F0BF
:100AC00011FB9E2304001B1A962B0CDC082801DD69
:100AD000083CA5406D026D0AD8B201E00020002557
:100AE000C005284370BD992B09DD020029001B3287
:100AF00091404A1E91410522121AD5400D43052C02
:100B000001DD621F95402900084E31406A0709D077
:100B10000F202840042805D004314A0102D59F2324
:100B200031401B1B89014D0AD8B2D9E7FFFFFFFBFB
:100B3000F0B54F46D64646460D0001001800C0B538
:100B400017002B035A0A4B0F1343CA0091460203A6
:100B50006E004100520AEC0F7D0F1543760D490DD2
:100B6000C00F8246AC46FF00721A844200D198E062
:100B7000002A00DC81E0002900D1B6E0C9498E429C
:100B800000D172E180212800090408438446382AF4
:100B900000DD5EE11F2A00DDEEE120203900654620
:100BA000801A8740D14085400D4339004F1EB9411E
:100BB0006746D7402943DB1B4A46551AA945894158
:100BC00049425B1A984643461B0200D4CCE0434698
:100BD0005B025B0A98464346002B00D12CE140465D
:100BE00001F080FA01000839202228004346521AF9
:100BF0008B40D0408D4003438E4200DD17E18E1BB9
:100C0000721C1F2A00DDA7E1202118002E00891A7E
:100C10008D408840D640D340691E8D413043984670
:100C2000002605436B0709D00F232B40042B05D06A
:100C30002B1DAB42AD416D42A8441D0043461B0233
:100C400000D494E0974B721C9A4200D19DE041463B
:100C5000954BED0819400B00520549075B022943EB
:100C60001B0B520D12051343E40723430800190020
:100C7000E0BCBA46B146A846F0BD002A43D08A1B64
:100C8000002E00D02AE14C461C4300D1D1E1541E75
:100C9000012A00D11FE2834DAA4200D172E2220054
:100CA00023E1002A00DC98E0002942D07D498E42F1
:100CB00000D1DAE080212800090408438446382A5C
:100CC00000DD29E11F2A00DC87E11100654620399B
:100CD000CD40202A04D040206146821A91400F4323
:100CE00039004F1EB9410D431BE12900394300D1A2
:100CF000B5E0511E012A00D1ABE16A48824200D121
:100D0000B2E10A0043E76949751C0D4200D0CFE00B
:100D1000002E00D093E14946194300D1D1E161464C
:100D2000394300D0E3E149465807C9080143DB08CD
:100D300026E02900394300D191E0511E012A05D057
:100D40005848824200D18FE10A00B8E73D004D4487
:100D50004D458941634498464942884443460226AA
:100D60001B0200D5EBE0013E6B0700D05CE7434679
:100D7000E9085A0711433200DB084A48824221D071
:100D80001B0352051B0B520D6CE70023002169E782
:100D90002A003A4369D04A465807D108DA08802326
:100DA0001B0308431A4207D02900ED081D4203D156
:100DB0002A00FF0848073843430FC1005B07C908F2
:100DC000194313000A001A4300D113E280221203D0
:100DD00013431B03334A1B0B44E7002A4BD08A1BE7
:100DE000002E00D1E7E02F48814200D195E180201C
:100DF00000040343382A00DD43E11F2A00DDDBE164
:100E000020201D004E46801A8540D64035434E4670
:100E100086403000D340461EB0419C440543ED1946
:100E2000BD429B415B42634498460E007FE01E4AF0
:100E3000761A13409846F5E6280001F053F90100B0
:100E400018311F2900DCCFE62B000838834000252D
:100E5000D2E662463A4311004F1EB941ACE649461C
:100E60005807C9080143DB0887E749465A07C908FC
:100E70001143DB08A6E70D49701C084200D0BBE017
:100E8000002E00D014E14946194300D175E1290034
:100E9000394300D07EE149465807C9080143DB08C1
:100EA0006EE7C046FF070000FFFF7FFFFE07000060
:100EB0004946CD1B6146581AA94589414942884691
:100EC00001004046091A8846090200D5A6E04146BD
:100ED000294300D07FE60023002451E7C74CA142FC
:100EE00000D1C7E0802424042343382A54DC1F2A7D
:100EF00000DDCCE020244846A41A1D004E46A04048
:100F0000D640A5400400D34062463543661EB44136
:100F1000D31A9C46254344E062463A4315006F1EAF
:100F2000BD414D444D458941494288469844434618
:100F30001B0200D418E7B14B01369E4249D042460D
:100F4000AF4B01211A4013006A080D401543D90721
:100F50005B0898460D4365E618001F3EF040202AC6
:100F600003D040218A1A93401D43691E8D410023FE
:100F7000002698460543F7E6110065462039CD4026
:100F8000202A04D040206146821A91400F43390044
:100F90004F1EB94129430FE64A4613431D006B1EFD
:100FA0009D417D1BAF429B4162465B42D31A9846EE
:100FB00054460E0007E64846184300D1B3E0501EE1
:100FC000012A00D10DE18D4DAA4200D1A5E0020019
:100FD00010E732000023002144E620213800891A5E
:100FE00065468F408D40D040791E8F4105433D437B
:100FF0006746D740DB1994E7804A904200D1ECE085
:101000003900494449459241634452429B18DD07E7
:1010100049085B08984606000D43A5E64A46BD1AF6
:10102000AF42894162464942D31A5B1A98465446F8
:10103000D1E56C07F9082143EB0804009DE64A4618
:101040001A4375D16146394314D1802300241B0310
:10105000BCE64A46D51BA9458941624649429B1ACE
:101060005B1A98460126AEE54A46D1085A07114355
:10107000DB08A7E66346F9085A0754461143DB0824
:10108000A0E64A4613431D006B1E9D41C7E61400AF
:101090001E00203CE640202A05D04024A21A93409E
:1010A0004A461A4391464D466B1E9D41354378E7AB
:1010B0004A461A4300D06BE66B07F9081943EB0860
:1010C00080E66146394354D06346F9085C07214302
:1010D000DB08040054E64A46BD1AAF428941624625
:1010E0004942D31A5B1A9846040001266BE54A462A
:1010F000D51BA9458941624649429A1A521A90461F
:10110000120232D54A46BD1AAF428941624649426F
:10111000D31A5B1A9846040084E56346F9085A0717
:101120001143DB084EE6F90868070143EB0824E6A3
:1011300062463A4300D198E64A46D1085A0711431D
:10114000DA0880231B031A4208D06046C5081D42F6
:1011500004D154462A00F908430719434B0FC9002C
:101160005B07C908194313002CE64146294300D008
:10117000FAE500230A00002402E66B07F908194388
:10118000EB08FDE56346F9085B0719436346040075
:10119000DB0817E63D004D4463444D4589419846C0
:1011A0004942884443461B0200D4DDE54246144BC5
:1011B00001261A409046D7E510001E002038C64090
:1011C000202A05D04020821A93404A461A4391466D
:1011D0004D466B1E9D41354321E602000023002150
:1011E00040E54A46D519BD42894163449846494283
:1011F0008844B3E50021014A0B0033E5FF070000F6
:10120000FFFF7FFFF0B557464E464546DE46E0B548
:10121000814605000C03480092461F0085B0240B50
:10122000400DCE0F002859D0874B984200D198E04E
:101230006B0FE4001C4380231B0423439846834B1D
:10124000ED009B4600239946834400933C037B00BA
:101250005046240B5B0DFF0F002B67D07A4A934258
:1012600018D07A49420F8C46E40059461443802234
:1012700063441204CB1A14439B46C200002033007F
:101280007B409A464B460F2B00D9EFE070499B00FC
:10129000CB589F466F4B52469C462243E344002A5C
:1012A00000D095E0494602231943894600240220D4
:1012B000E5E700230024002552461B052343D207FF
:1012C00013432800190005B0F0BCBB46B246A9463E
:1012D000A046F0BD002400255B4BEDE74B462343C1
:1012E000984600D189E0002C00D1E0E1200000F018
:1012F000F9FE010002000B391D235B1A494610005C
:10130000D940083884400B004D4623439846854019
:1013100051483C03831A9B460023994600937B0067
:101320005046240B5B0DFF0F002B97D152462243F2
:1013300055D0002C00D1CAE1200000F0D3FE0200FD
:101340000B3A1D2301009B1A52460839DA408C40A3
:10135000144352468A40414B58449B4683440020E4
:101360008DE74B462343984640D108239946063BD8
:1013700000258346009369E7B246009B022BA9D063
:10138000032B00D111E2012B93D0354A5A44002A95
:1013900000DC3CE16B0700D0A7E1ED084346DB0130
:1013A00006D542462F4B1A4090468022D2005A441E
:1013B0002D4B9A428EDC4346520558075C0205438A
:1013C000240B530D78E7BA46A04615000090D4E7E9
:1013D0004A4603231A439146032052464FE74946A3
:1013E0000123194389460024012048E70C2399462C
:1013F000093BA0468346009328E70423994600232F
:101400009B4601330025009320E7002380249A4661
:1014100000250D4B24034FE7802341461B0319424F
:1014200008D01C4206D11C432403BA461500064BC3
:10143000240B41E78024434624031C432403B24683
:10144000014B240B38E7C046FF07000001FCFFFFFB
:1014500048D9000801F8FFFF0DFCFFFFF30300006F
:10146000FF030000FFFFFFFEFE070000444500D21F
:1014700016E100D111E101235B429C462E0040465B
:101480000025E3442302140E1C431B0C994623043D
:101490001F0C1202494600920197FEF7C3FE02009C
:1014A0007A430B04310C804619438A420BD901233D
:1014B0005B429C460919E0448C4204D88A4202D916
:1014C000831E98460919881A4946FEF7ABFE09049F
:1014D0008C4631046646019A090C424303003143AD
:1014E0008A4204D90919013B8C4200D811E1891ABA
:1014F0004246009E12041A43330C1F00100C904603
:10150000029313043204160C32001B0C5A43039648
:101510007B4346437843170CBC469B1963449E4269
:1015200003D980267602B44660441E0C3018160497
:101530001B04360C9E19814200D29CE000D197E03A
:10154000AE1B091AB54280414042081A844200D1BC
:1015500011E14946FEF766FE019A0B044243310C45
:10156000050019438A4207D90919013D8C4203D865
:101570008A4201D9851E0919881A4946FEF752FE8A
:1015800009048C4631046646019A090C4243030063
:1015900031438A4207D90919013B8C4203D88A4258
:1015A00001D9831E0919039E891A32002D041D4397
:1015B000029F2B041B0C5A437B439C46280C46433A
:1015C000130CB444634478439E4203D980267602C8
:1015D000B44660441E0C12041B04120C30189B18F5
:1015E000814206D302D001231D43CEE6002B00D159
:1015F000CBE661186E1EA14200D2A4E0814200D267
:10160000C9E000D1D9E03500EDE701256D420121A7
:10161000891A382900DD4CE61F2900DC7FE01F23F2
:101620005B429A1A4346D340202904D04446654A77
:101630005A44944025436A1E954107222B431500C6
:1016400000241D401A4200D1A1E00F2200241A40BC
:10165000042A00D198E01A1D9A429B415B42E4188B
:101660001300220200D48FE001230024002523E68A
:10167000B54200D364E743465A1E009B9C4665442E
:101680001F009D429B415B421B19C9188C423AD2F4
:10169000884263D860D0904652E7AA4200D9EAE671
:1016A0004346DE0758086B081E43ED07EAE6484646
:1016B00000F018FD01000200153120321C2900DC69
:1016C0001AE64B46083883400025984620E600F08D
:1016D00009FD03001A00153220301C2A00DC30E618
:1016E0005446083B00229C4035E60F232B40042B38
:1016F00000D152E605235B42AB429B4104355B427D
:10170000ED0898444AE68C42C5D1AF42C0D9904614
:1017100016E78A4200D8EAE6831E0919E7E62A4A54
:1017200028005A44434695409340C8406A1E95415C
:10173000444603432B43CC405A0792D00F221A4011
:10174000042A88D18DE73500814200D04BE7009A0A
:10175000934200D047E718E6AE429CD902235B4291
:101760009C46009BE0449C4665449D429B415B42F5
:101770001B19C918E4E6154A5A44002A00DC44E75C
:1017800001230025984409E665076402240BDB0861
:101790001D43002390E5009E023D7200B242BF410E
:1017A0007F423C1909190092CEE780244346240366
:1017B0001C432403064B240B7EE5009A9A42EAD38D
:1017C0003500C4E73E0400001E040000FF030000D3
:1017D000FF070000F8B557464E464546DE46040072
:1017E000E0B51F0010000B03620F4E00CD0F5B0A27
:1017F00039031343490AE200440F2143C24C914686
:101800009246C0007A008046760D520DFF0FA2422C
:1018100000D1B4E001246740BB46BD4200D188E05E
:10182000B41AA446002C00DCB2E0002A00D1C5E0C6
:10183000B54A964200D18BE28022120411436246DF
:10184000382A00DDA1E11F2A00DD16E220270C0066
:10185000BF1ABC400200A0466446B840E24044467D
:1018600014430200501E82416046C14022435B1A6D
:1018700049468C1AA145924152429B1A98464346CA
:101880001B0200D417E143465B025B0A98464346BD
:10189000002B00D16CE1404600F024FC0200083A25
:1018A000202120004346891A9340C84094400343B6
:1018B000964200DD57E1961B711C1F2900DDCBE12C
:1018C000202218002600521A94409040CE40CB406F
:1018D000621E94413043984600260443630709D0B2
:1018E0000F232340042B05D0231DA342A4416442AF
:1018F000A0441C0043461B0200D4DFE0824B0136AB
:101900009E4200D1FBE04246804BE4081A4013009F
:10191000710552075B0222431B0B490D0905ED07B8
:10192000194329431000F0BCBB46B246A946A04665
:10193000F8BDB41AA446002C58DD002A00D19EE060
:10194000714A964200D13BE1802212041143624663
:10195000382A00DDC1E01F2A00DCBBE10C00203A80
:10196000D44022006446202C04D040273F1BB940BD
:10197000084380464446611E8C411443B1E00C008C
:1019800004432AD0BB46BD422DD0614CA446B4448A
:101990006446002C5CD0941BA446002E00D015E1B8
:1019A0004D461D4300D1C3E1651E012C00D10CE260
:1019B000554EB44200D1F8E1AC460EE10A000243B4
:1019C00000D136E12200013A012C00D1C6E14E4C93
:1019D000A44500D1F4E0944631E701246740BB46BA
:1019E000BD4200D01CE74A4CA446B4446446002CD7
:1019F00000D1CFE0941BA446002E00D15CE1424E02
:101A0000B24200D1ECE18026360433436446382CE0
:101A100000DDB3E11F2C00DD38E22026361B1C0060
:101A2000B4404F46A0466446E74044463C434F46D8
:101A3000B7403E00771EBE4134436646F340C918A6
:101A4000241884429B415B429846160088444EE02D
:101A5000304A741C144200D0D6E04A461A43002E85
:101A600000D05BE1002A00D1A5E10A00024300D0CA
:101A7000BBE14A465907D2080A43DB0827E00A00BF
:101A8000024300D174E12200013A012C05D01E4C22
:101A9000A44500D194E0944659E748444845924112
:101AA0005B189846040052429044434602261B02AB
:101AB00000D5C4E0013E630700D011E74346B446B9
:101AC0005907E2080A43DB080F498C4540D06146BC
:101AD0001B0349051B0B490D20E701430C00611E48
:101AE0008C414C444C459241524290469844434666
:101AF0001B02E0D5044B01369E4200D09FE031002E
:101B0000002300220AE7C046FF070000FFFF7FFF17
:101B100001F8FFFFFE070000002A00D160E10A0083
:101B200002434DD04A465C07D20822438024DB089A
:101B30002403234207D0CE08264204D15D46330059
:101B4000C20849070A43510FD200D20849070A4385
:101B50001100194300D1C8E1802109030B431B0385
:101B6000D5491B0BDAE6D549B61A0B409846B5E6BF
:101B7000200000F0B7FA020018321F2A00DC8FE6BE
:101B8000230008388340002492E608430200501ED8
:101B900082416DE6CA4C721C224200D0ADE04A463A
:101BA0001A43002EB8D1002A00D158E10A0002439E
:101BB00000D059E14A465907D2080A43DB0886E7B4
:101BC0004A465907D2080A43DB08C1E7BA4DAA4280
:101BD00000D11EE180252D042B436446382C5DDCAA
:101BE0001F2C00DDD0E0202567462D1B4E461C0033
:101BF000FE40AC4034434E46AE403500FB406E1EC6
:101C0000B541C91A2C434EE04A46141AA1459241E7
:101C1000524290465F1A3A004746D21B9046120243
:101C200000D58BE04246224300D030E60023002559
:101C30004DE74A465907D2080A43DB0844E74246C3
:101C40009E4B61081A401300012214400C43DA072E
:101C50005B089846144341E61A001F3EF240160006
:101C6000202903D04022511A8B401C43621E94410C
:101C700000233443984600261DE70C00203AD44048
:101C800022006446202C04D040273F1BB940084363
:101C900080464446611E8C412243E9E54C4623437D
:101CA0001C00631E9C41041BA0429B415B42CB1A5B
:101CB00098465D461600E2E54E461E4300D1AEE072
:101CC000661E012C00D1FDE07B4FBC4200D107E134
:101CD000B4469BE664462022121B0C009440070089
:101CE0009040A0466446421E90416246E74044460A
:101CF000D1403C4304435B18F3E66F4CA24200D151
:101D0000D5E048445B184845894149425B18DC07E7
:101D100040085B08984616000443CCE6002A00D031
:101D200082E00A00024340D1802300251B0313E711
:101D30004B07C2081A435D46CB08C5E64A46841ADB
:101D4000A0429241CB1A52429B1A98465D469EE5AC
:101D50004A465907D2080A43DB08F9E64A46141AEC
:101D6000A14592415B1A52429B1A9846012686E58C
:101D70004A465907D2080A43DB08A5E64C462343E6
:101D80001C00631E9C415BE665461E00203DEE4044
:101D9000202C05D040252D1BAB404C461C43A246B1
:101DA0005446631E9C4134437DE74B07C2081A43E7
:101DB0005D46CB08CCE60A00024300D136E74B076C
:101DC000C2081A435D46CB0881E64A46841AA042FF
:101DD0009241CB1A52429B1A98465D4601264EE527
:101DE0004B07C2081A43CB08B2E64A46141AA1456B
:101DF00092415F1A5242BA1A904612026BD54A4675
:101E0000841AA0429241CB1A52429B1A98465D46D0
:101E100064E54B07C2081A435D46CB0898E64B07BA
:101E2000C2081A43CB084FE60A00024390D04A4644
:101E30005C07D20814438022DB081203134208D047
:101E4000CE08164205D1C0084907084304005D4684
:101E50003300610FE2004907D2080A4378E64B07D6
:101E6000C2081A43CB0832E648445B184845924101
:101E7000984652429044434604001B0200D41AE69E
:101E800042460E4B01261A40904614E666461F0055
:101E9000203EF740202C05D04026361BB3404C4650
:101EA0001C43A2465446631E9C413C43C8E51100B6
:101EB0000023002232E5C046FF070000FFFF7FFF3E
:101EC000FE0700004A461418844292415B18984667
:101ED00052429044E9E54246224300D1A6E6EAE5B3
:101EE0004B07C2081A43CB0832E60022014913000F
:101EF00014E5C046FF0700000A0030B5134C53003C
:101F000009030500090B00205B0DD20FA34204DD7D
:101F10000F48834202DD0F4BD01830BD80204003B4
:101F200001430D48C01A1F2808DD0C48C31AD940C8
:101F30000B005842002AF0D11800EEE7084CC540CB
:101F4000A446634499400B002B43F2E7FE030000D4
:101F50001D040000FFFFFF7F330400001304000096
:101F6000EDFBFFFF70B543004602C40FFE201B0EC1
:101F7000591C750A08420CD0E022920094466D0765
:101F8000360B63441B053343E40723432800190041
:101F900070BD002B14D1002D1BD0280000F0A2F83A
:101FA0000A281CDC0B232A001B1ADA400300153315
:101FB0009D400E4B12031B1A5B05160B5B0DE1E7F0
:101FC000002D09D0320B80263603094B6D071643CE
:101FD000D8E700230026D5E70026054BD2E703000B
:101FE0002A000B3B9A400025E3E7C0468903000026
:101FF000FF0700008446101C62468C46191C63468D
:1020000000E0C0461FB500F0F7F9002801D4002118
:10201000C8421FBD10B500F041F94042013010BD6B
:1020200010B500F0E9F9002801DB002010BD012007
:1020300010BDC04610B500F0DFF9002801DD00201A
:1020400010BD012010BDC04610B500F063F9002896
:1020500001DC002010BD012010BDC04610B500F00D
:1020600059F9002801DA002010BD012010BDC0463A
:102070008446081C6146FFE71FB500F0C5F800283C
:1020800001D40021C8421FBD10B500F049F84042FC
:10209000013010BD10B500F0B7F8002801DB0020BA
:1020A00010BD012010BDC04610B500F0ADF80028ED
:1020B00001DD002010BD012010BDC04610B500F0AC
:1020C00057F8002801DC002010BD012010BDC046DB
:1020D00010B500F04DF8002801DA002010BD0120F5
:1020E00010BDC0461C2101231B04984201D3000CE3
:1020F00010391B0A984201D3000A08391B0998427B
:1021000001D30009043902A2105C40187047C04690
:1021100004030202010101010000000000000000B0
:1021200070B542004E024C0045026D0A120EC30FFC
:10213000760A240EC90FFF2A0FD0FF2C11D00120E0
:10214000A24200D070BDB542FCD18B420DD0002A16
:10215000F8D12800451EA841F4E70120002DF1D157
:10216000EBE70120002EEDD1E9E70020EAE7C046C9
:10217000F0B5420046024D024C00C30F760A120E23
:102180006D0A240EC80FFF2A1FD0FF2C10D0002A82
:102190001FD171427141002C01D1002D1ED00029A8
:1021A0000ED183421ED00221581E08400138F0BDD6
:1021B000002D26D1002AF4D1714271410029F0D0BE
:1021C0000028F4D101204042F1E7002E19D1FF2C64
:1021D000EED0002CE5D1002DE3D1E4E70020002E65
:1021E000E5D0E0E7A24205DCEADBAE4202D8E7D365
:1021F0000020DCE7414241414842022108400138C9
:10220000D5E702204042D2E7F0B5420046024D0237
:102210004C00C30F760A120E6D0A240EC80FFF2A57
:102220000DD0FF2C0FD0002A23D171427141002C18
:102230000FD1002D0DD10020002E14D00DE0002E66
:1022400010D1FF2C15D1002D0CD1002A03D17142E1
:102250007141002908D1834210D00221581E084044
:10226000013800E00220F0BD0028FCD101204042EE
:10227000F9E7002CEFD1002DEDD1EEE7A24205DC0D
:10228000F2DBAE4202D8EFD30020ECE741424141FD
:102290004842022108400138E5E7C046F0B54F4604
:1022A0004646D646944691461A03120B184DC0B5C1
:1022B0004C000F0392465A00060080463F0B012057
:1022C000640DC90F520DDB0FAC420AD0AA4203D0F5
:1022D000944201D157450DD0E0BCBA46B146A8465C
:1022E000F0BD3D003543F7D1A242F5D152466546D7
:1022F0002A43F1D10120C845EED1994206D0002CE5
:10230000EAD13E433000461EB041E5E70020E3E756
:10231000FF070000F0B54E4645465746DE4604002E
:102320001800E0B516001B031B0B324D0F034A00CB
:1023300099464300A446B0463F0B520DC90F5B0DB2
:10234000C00FAA4229D0AB4218D0002A2AD13C4360
:10235000A34665426541002B02D14C46264327D057
:10236000002D15D1814228D00220013908400138C2
:10237000F0BCBB46B246A946A046F0BD4D462E4332
:102380002FD1002AEED13C4365426541002DE9D0B2
:102390000028EDD101204042EAE73D00254320D14D
:1023A0009342EBD0002BDDD14C462643DAD1DBE75C
:1023B0005B460020002BDBD0D6E79A420ADCE7DB45
:1023C0004F45D1D810D000204F45D1D20029E1D0BF
:1023D0000800CDE7434258410223404218400138EB
:1023E000C6E702204042C3E7C445BDD80020C4452B
:1023F000BED2EBE7FF070000F0B54E464546574614
:10240000DE4604001800E0B516001B031B0B314D1F
:102410000F034A0099464300A446B0463F0B520DB5
:10242000C90F5B0DC00FAA4211D0AB4214D0002AD5
:102430002FD13C43A34665426541002B14D14C4645
:10244000264311D15B460020002B17D010E03D0041
:10245000254312D193421CD14D462E430DD1002A63
:1024600004D13C4365426541002D0DD1814216D017
:10247000022001390840013800E00220F0BCBB46D0
:10248000B246A946A046F0BD0028F7D1012040423F
:10249000F4E7002BEAD14C462643E7D1E8E79A421D
:1024A00006DD434258410223404218400138E5E727
:1024B0009A42E9DB4F45DBD806D000204F45DDD2FC
:1024C0000029E3D00800D9E7C445D1D80020C4458D
:1024D000D4D2F5E7FF070000B0B5AAB000AF39606D
:1024E0001100FB1D021C1A70BB1D0A1C1A70FB1D7B
:1024F0001B782F4A94466344DB02A0243A191360E8
:1025000020257B198022FF2118000BF0DCF8BB1D71
:102510001A7839687B1918000BF0CCF803F010FA20
:102520000C217B1800221A607B183A1912685A6035
:102530007B1801229A600023BB600823FA187B18DD
:102540001100180003F0BCFAA723FB1800221A7030
:1025500022E0A7243B191B789B011A00A0257B19B8
:102560001B689B187A1913603B191B78DB0020222B
:10257000BA18D1181823FB18082218000BF09AF883
:10258000BA69FB6979190968032003F043F93B191B
:102590001A783B1901321A70A723FB181B780F2BEE
:1025A000D7D903F0F3F900231800BD462AB0B0BD17
:1025B0001A00010090B5A7B000AF786008001100C4
:1025C000FB1C021C1A70BB1C0A1C1A70FB1C1B781B
:1025D000224A94466344DB029022BA181360102307
:1025E000FB188022FF2118000BF06DF89723FB18D1
:1025F00000221A7020E097217B181B789B001A009C
:1026000090203B181B689B183A1813603B181B68F6
:102610001B68FB600C007B181B789B001022BA180B
:10262000D3180C22B918042218000BF043F83B19F8
:102630001A783B1901321A709723FB181B781F2B4D
:10264000D9D9BB1C1A781023F9187B6818000BF035
:1026500031F800231800BD4627B090BD1A000100D4
:1026600090B589B000AF78600A00BB1C1A800C24BA
:102670003B19180014231A0000210BF024F8BB1C8E
:102680001A8821007B181A607B1801225A607B1877
:1026900000229A607B180322DA607A187B681100A6
:1026A000180003F0B9FAC046BD4609B090BD90B518
:1026B00089B000AF78600A00BB1C1A800C243B195B
:1026C000180014231A0000210AF0FDFFBB1C1A8811
:1026D0003B191A603B1900225A603B1902229A608A
:1026E0003A197B681100180003F096FAC046BD46FF
:1026F00009B090BD80B584B000AF3B1D18000C231D
:102700001A0000210AF0DFFF3B1D06221A603B1D64
:10271000802252015A603B1D06229A603A1D064BE8
:102720001100180002F076FC031E01D001F09AFCA3
:10273000C046BD4604B080BDF804002080B584B01A
:1027400000AF3B1D18000C231A0000210AF0BBFF4C
:102750003B1D07221A603B1D802252015A603B1D1F
:1027600006229A603A1D064B1100180002F052FC36
:10277000031E01D001F076FCC046BD4604B080BD0A
:10278000F804002080B500AF2A4B180006F096F838
:10279000294B01220121180003F0D3FB802399006B
:1027A0009023DB050122180003F0CBFB80239B0163
:1027B00021480022190003F0C4FB8023DB011E48DE
:1027C0000122190003F0BDFB80231B021A480122DD
:1027D000190003F0B6FB802359009023DB0501228A
:1027E000180003F0AEFB01F043FC192002F0DEF804
:1027F00001F0C0FC192002F0D9F801F007FE0F4BE0
:10280000202202211800FFF7D5FE0C4B19780B4B44
:102810005A780A4B9B78082001F066FD074BD9785F
:10282000064B1A79054B5B790C2001F05DFDC04623
:10283000BD4680BD0404002000040048880100203B
:1028400080B582B000AF0A4B7B607A68094B1100FB
:1028500018000AF040FF7B681800FDF755FC0300E4
:102860009AB2054B1A80C046BD4602B080BDC04634
:1028700020D700080C0100208401002080B582B020
:1028800000AF0A4B7B607A68094B110018000AF010
:1028900022FF7B681800FDF737FC03009AB2054B56
:1028A0001A80C046BD4602B080BDC04624D700088D
:1028B0000C0100208401002080B500AF8023990026
:1028C0009023DB050122180003F03BFBFFF7D6FF46
:1028D000C046BD4680BD80B500AF802399009023DF
:1028E000DB050122180003F02CFBFFF7C7FFC046F1
:1028F000BD4680BD80B500AF054B00220121180008
:1029000003F01FFBFFF7BAFFC046BD4680BDC046BF
:102910000004004880B500AF054B002201211800DB
:1029200003F00FFBFFF7AAFFC046BD4680BDC046BF
:102930000004004880B500AF80239B0111480022AD
:10294000190003F0FEFA0A2002F030F88023DB01C0
:102950000C480122190003F0F4FA80231B020948F5
:102960000122190003F0EDFA802359009023DB05C2
:102970000122180003F0E5FAFFF780FFC046BD46CC
:1029800080BDC0460004004880B500AF8023DB0155
:1029900011480022190003F0D4FA0A2002F006F8C8
:1029A00080239B010C480122190003F0CAFA8023FE
:1029B0001B0209480122190003F0C3FA80235900C1
:1029C0009023DB050122180003F0BBFAFFF756FF46
:1029D000C046BD4680BDC0460004004880B500AF7B
:1029E00080231B0211480022190003F0AAFA0A20D2
:1029F00001F0DCFF80239B010C480122190003F049
:102A0000A0FA8023DB0109480122190003F099FA9A
:102A1000802359009023DB050122180003F091FA6E
:102A2000FFF72CFFC046BD4680BDC04600040048ED
:102A300080B500AF802359009023DB0500221800E9
:102A400003F07FFA0A2001F0B1FF80239B010C48BC
:102A50000122190003F075FA8023DB0108480122E6
:102A6000190003F06EFA80231B02054801221900A9
:102A700003F067FAFFF702FFC046BD4680BDC046BF
:102A80000004004880B582B000AF78607B68197898
:102A90007B6801331A787B6802331B78002001F0D1
:102AA00023FCFFF7EBFEC046BD4602B080BD80B5FB
:102AB00082B000AF01F0BAFCFA235B00180001F00D
:102AC00075FF3A0001323B0002333900082001F063
:102AD00056FC390003313A0004323B0005330C2028
:102AE00001F04DFC3B00062219000220FFF7F4FC28
:102AF000FFF7C4FEC046BD4602B080BD80B582B0BF
:102B000000AF00F0F1FA031E0BD0104B06221A8022
:102B10000E4B1B881A000E490E4B18000AF0CAFD16
:102B20000FE00D4B7B607A680A4B110018000AF029
:102B3000D2FD7B681800FDF7E7FA03009AB2034B59
:102B40001A80C046BD4602B080BDC0468401002048
:102B5000A80400200C01002028D7000880B584B00C
:102B600000AF3B1D180001F0AFFA031E0BD0104B55
:102B700006221A800E4B1B881A00391D0D4B1800B7
:102B80000AF098FD0FE00C4BFB60FA68094B11004E
:102B900018000AF0A0FDFB681800FDF7B5FA030065
:102BA0009AB2034B1A80C046BD4604B080BDC046F1
:102BB000840100200C01002028D7000880B500AF58
:102BC000094B202201211800FFF7F4FC074B0622D5
:102BD0001A80064B1B881A000349054B18000AF09F
:102BE00069FDC046BD4680BD8801002084010020EB
:102BF0000C01002080B582B000AF78607B680622AF
:102C000019000120FFF768FCC046BD4602B080BD38
:102C100080B500AF094B202203211800FFF7CAFC42
:102C2000074B08221A80064B1B881A000349054BE4
:102C300018000AF03FFDC046BD4680BD8801002057
:102C4000840100200C01002080B582B000AF7860C4
:102C50007B68082219000320FFF73EFCFFF70EFEF9
:102C6000C046BD4602B080BD80B500AF094B2022F2
:102C700002211800FFF79EFC074B06221A80064B24
:102C80001B881A000349054B18000AF013FDC046C3
:102C9000BD4680BD88010020840100200C01002079
:102CA00080B582B000AF78607B68062219000220F0
:102CB000FFF712FC7B6819787B6801331A787B6810
:102CC00002331B78082001F00FFB7B68033319786F
:102CD0007B6804331A787B6805331B780C2001F07D
:102CE00003FBFFF7CBFDC046BD4602B080BD000030
:102CF00080B500AFAC4B1B78072B0BD1AB4B1B68DF
:102D0000AB49072218000AF0EEFC031E02D1FFF7C0
:102D1000D3FD46E1A44B1B78082B0BD1A34B1B68BA
:102D2000A449082218000AF0DEFC031E02D1FFF7B6
:102D3000D2FD36E19C4B1B780E2B0BD19B4B1B68B5
:102D40009D490E2218000AF0CEFC031E02D1FFF7A7
:102D5000D1FD26E1944B1B780D2B0BD1934B1B68B7
:102D600096490D2218000AF0BEFC031E02D1FFF79F
:102D7000D1FD16E18C4B1B78072B0BD18B4B1B68BD
:102D80008F49072218000AF0AEFC031E02D1FFF79C
:102D9000D1FD06E1844B1B78072B0BD1834B1B68BD
:102DA0008849072218000AF09EFC031E02D1FFF793
:102DB000EBFDF6E07C4B1B78072B0BD17B4B1B68A4
:102DC0008149072218000AF08EFC031E02D1FFF78A
:102DD00005FEE6E0744B1B78072B0BD1734B1B6889
:102DE0007A49072218000AF07EFC031E02D1FFF781
:102DF0001FFED6E06C4B1B780A2B0FD16B4B1B6868
:102E00007349072218000AF06EFC031E06D1674BB7
:102E10001B6807331800FFF735FEC2E0624B1B78D2
:102E2000062B0BD1614B1B686A49062218000AF079
:102E30005AFC031E02D1FFF73AFEB2E05A4B1B7850
:102E4000072B0BD1594B1B686349072218000AF066
:102E50004AFC031E02D1FFF781FEA2E0524B1B7811
:102E60000A2B0BD1514B1B685C490A2218000AF04F
:102E70003AFC031E02D1FFF7A1FE92E04A4B1B78F9
:102E8000112B0FD1494B1B6855490B2218000AF032
:102E90002AFC031E06D1454B1B680B331800FFF7B5
:102EA000A9FE7EE0404B1B78092B0BD13F4B1B68E2
:102EB0004C49092218000AF016FC031E02D1FFF744
:102EC000D3FE6EE0384B1B78102B0FD1374B1B68AD
:102ED00045490A2218000AF006FC031E06D1334BAE
:102EE0001B680A331800FFF7DBFE5AE02E4B1B78F5
:102EF0000C2B0BD12D4B1B683C490C2218000AF0FF
:102F0000F2FB031E02D1FFF783FE4AE0264B1B783B
:102F1000152B0FD1254B1B6835490D2218000AF0DF
:102F2000E2FB031E06D1214B1B680D331800FFF78F
:102F30008BFE36E01C4B1B78232B0FD11B4B1B68E1
:102F40002C490B2218000AF0CEFB031E06D1174BAA
:102F50001B680B33180000F00FFC22E0124B1B78AB
:102F6000082B0BD1114B1B682349082218000AF0CB
:102F7000BAFB031E02D100F04FFD12E00A4B1B7892
:102F8000082B0BD1094B1B681C49082218000AF0BA
:102F9000AAFB031E02D100F0BDFD02E0FFF750FCCA
:102FA000C046C046BD4680BD080100200401002087
:102FB00030D7000838D7000844D7000854D7000895
:102FC00064D700086CD7000874D700087CD70008C5
:102FD00084D700088CD7000894D700089CD7000835
:102FE000A8D70008B4D70008C0D70008CCD700087D
:102FF000DCD70008ECD70008F8D7000804D8000890
:1030000080B584B000AF78607B68180001F02EFFB7
:1030100002002D4B1A602C4B1B681800FDF74CFD6D
:10302000031C2A49181CFDF739F9031C2849181CF0
:10303000FDF740FA031C2749181CFDF755FB031C3C
:10304000FB602449F868FDF729F9031C2249181C84
:10305000FDF730FA031C181CFDF7EAF802001A4BC2
:103060001A601E4B1B78002B11D1174B1B681B0CD1
:10307000DAB21B4B1A70144B1B681B0ADAB2184BDE
:103080005A70114B1B68DAB2154B9A7014E0134B4F
:103090001B78012B10D10C4B1B681B0CDAB2104BA8
:1030A000DA70094B1B681B0ADAB20D4B1A71064B1A
:1030B0001B68DAB20A4B5A710A4B01221A70C046D9
:1030C000BD4604B080BDC046A801002000F07F4589
:1030D000000020407B141E400400004A0000002035
:1030E000A80400200100002080B582B000AFFB1DC5
:1030F00000221A70264B1B78002B43D0254B1B78DF
:10310000002B0FD1244B00221A70224B01221A707F
:10311000224B00221A70FFF7EDFA214B180001F044
:10312000E9FD2FE01B4B1B78012B18D11B4B1B78A3
:10313000DBB2002B26D01A4B180001F04DFE164BC7
:1031400001221A70134B02221A70144B00221A70BB
:10315000FFF7F4FA124B180001F0CCFD12E00D4B12
:103160001B78022B0ED10D4B1B78DBB2002B09D044
:10317000FB1D01221A70074B00221A70084B180021
:1031800001F02AFEFB1D1B781800BD4602B080BD71
:1031900001010020AD0100200000002001000020FE
:1031A000F804002080B582B000AF00237B6000F0FF
:1031B000CDFD104B0021180002F0E0FA0E4B012269
:1031C0000221180002F0BDFE0C4B01221A700C4BBC
:1031D00001221A700B4B7B607B680648002200219D
:1031E00002F069FA084B180005F0D8FBC046BD464E
:1031F00002B080BDD403002000040048010100207B
:10320000000100207B0F0000B004002080B582B0D8
:1032100000AF7860194B1B78012B2AD1184B1B8803
:1032200001339AB2164B1A80164B1B88592B1AD8A9
:10323000154B1B78002B16D0124B1B881A00114B14
:10324000D3189A1C114B1000190006231A000AF01B
:1032500031FA0C4B1B8806339AB20A4B1A800A4B80
:1032600000221A7005E0084B1B780133DAB2064BD6
:103270001A70C046BD4602B080BDC04600010020A5
:10328000F40000204C040020AE010020A80400201F
:1032900080B584B000AF0200BB1D1A800F23FB185D
:1032A00000221A70114B1B78002B02D0012B07D083
:1032B00014E00F4B00221A800C4B01221A700DE013
:1032C0000B4B1B88BA1D12889A4206D8074B002266
:1032D0001A700F23FB1801221A70C0460F23FB1827
:1032E0001B781800BD4604B080BDC046AF01002069
:1032F000F400002080B584B000AF78600C49786895
:10330000FDF7D8F8031C0B49181CFCF7C7FF031C7A
:10331000181CFCF78DFF0300FB60FB6806480022C9
:10332000002102F0C8F9C046BD4604B080BDC046C9
:1033300000F07F4500002040D4030020B0B582B0EB
:1033400002AF4F4B1B789AB24E4B1B889A4200D368
:103350008FE04B4B1B7801221340DBB2002B3FD197
:10336000474B1B780133474A128893421CD1454B87
:103370009888444B5989434B9C89424BDD89414B8A
:103380005B8A404A128A019200932B00220000F0CF
:103390007FF80300012B00D06EE0394B1B7801331E
:1033A000DAB2374B1A7067E0364B9888354BD988BC
:1033B000344B9C89334BDD89324B5B8A314A128A0C
:1033C000019200932B00220000F062F80300012B11
:1033D00052D12B4B1B780133DAB2294B1A704BE0D8
:1033E000274B1B780133274A1288934220D1264B62
:1033F0001B689AB2234B5B8AD31A98B2214B598926
:10340000204B9C891F4BDD891E4B5B8A1D4A128A0B
:10341000019200932B00220000F0F4F80300012B2E
:103420002AD1174B1B780133DAB2154B1A7023E0FF
:10343000154B1B689AB2134B5B8AD31A98B2114B87
:103440001989104B9C890F4BDD890E4B5B8A0D4A05
:10345000128A019200932B00220000F0D3F803009F
:10346000012B09D1064B1B780133DAB2044B1A70D9
:1034700002E0064B01221A70C046BD46B0BDC046F0
:10348000FC000020E8030020F8000020FF000020DE
:10349000B0B584B000AF05000C0010001900BB1DD2
:1034A0002A1C1A803B1D221C1A80BB1C021C1A807D
:1034B0003B000A1C1A800F23FB1800221A704E4B87
:1034C0001B78002B06D1BB1D1A884C4B1A604A4B47
:1034D00001221A70484B1B78012B11D1474B1B68F6
:1034E0001800FDF7E9FA031C4549181CFCF7D6FE45
:1034F000031C181CFFF7FEFE3F4B02221A7074E0FB
:103500003D4B1B78022B0CD12423FB181B88180081
:10351000FFF7BEFE0300012B67D1374B03221A7061
:1035200063E0354B1B78032B34D1BB1C1A88334B1B
:103530001B68D218314B1A603B1D1A882F4B1B6831
:103540009A4211D92D4B1B681800FDF7B5FA031CE0
:103550002B49181CFCF7A2FE031C181CFFF7CAFE1F
:10356000254B04221A7040E03B1D1A88234B1A6039
:10357000224B1B681800FDF79FFA031C2049181CFA
:10358000FCF78CFE031C181CFFF7B4FE1A4B052237
:103590001A702AE0184B1B78042B16D13B001B88AD
:1035A0001800FFF775FE0300012B1ED1134B1A689C
:1035B000BB1C1B88D21A2023FB181B88D2180F4B68
:1035C0001A600D4B01221A700FE00B4B1B78052B74
:1035D0000BD13B001B881800FFF75AFE0300012B9C
:1035E00003D10F23FB1801221A700F23FB181B783D
:1035F0001800BD4604B0B0BDFD000020F80000205A
:1036000000007A44B0B584B000AF05000C00100093
:103610001900BB1D2A1C1A803B1D221C1A80BB1CD2
:10362000021C1A803B000A1C1A800F23FB18002280
:103630001A704E4B1B78002B06D1BB1D1A884C4BC1
:103640001A604A4B01221A70484B1B78012B11D18A
:10365000474B1B681800FDF72FFA031C4549181C3F
:10366000FCF71CFE031C181CFFF744FE3F4B022214
:103670001A7074E03D4B1B78022B0CD12423FB18ED
:103680001B881800FFF704FE0300012B67D1374B9E
:1036900003221A7063E0354B1B78032B34D1344B73
:1036A0001A68BB1C1B88D21A314B1A603B1D1A8842
:1036B0002F4B1B689A4211D22D4B1B681800FDF747
:1036C000FBF9031C2B49181CFCF7E8FD031C181C14
:1036D000FFF710FE254B04221A7040E03B1D1A88AC
:1036E000234B1A60224B1B681800FDF7E5F9031CF9
:1036F0002049181CFCF7D2FD031C181CFFF7FAFD2B
:103700001A4B05221A702AE0184B1B78042B16D18D
:103710003B001B881800FFF7BBFD0300012B1ED1E7
:10372000BB1C1A88124B1B68D2182023FB181B885D
:10373000D21A0F4B1A600D4B01221A700FE00B4B7F
:103740001B78052B0BD13B001B881800FFF7A0FD51
:103750000300012B03D10F23FB1801221A700F2342
:10376000FB181B781800BD4604B0B0BDFE00002059
:10377000F800002000007A4480B582B000AF786085
:10378000FFF710FD9B4B00221A709B4B00221A7012
:103790009A4B00221A707B681B781B021AB27B6856
:1037A00001331B781BB213431BB29AB2944B1A809D
:1037B0007B6802331B781B021AB27B6803331B78C9
:1037C0001BB213431BB29AB28D4B5A807B680433F1
:1037D0001B781B021AB27B6805331B781BB213439C
:1037E0001BB29AB2864B9A807B6806331B781B0209
:1037F0001AB27B6807331B781BB213431BB29AB211
:103800007F4BDA807B6808331B781B021AB27B6817
:1038100009331B781BB213431BB29AB2784B1A813F
:103820007B680A331B781B021AB27B680B331B7848
:103830001BB213431BB29AB2714B5A817B680C3393
:103840001B781B021AB27B680D331B781BB2134323
:103850001BB29AB26A4B9A817B680E331B781B02AB
:103860001AB27B680F331B781BB213431BB29AB298
:10387000634BDA817B6810331B781B021AB27B68BA
:1038800011331B781BB213431BB29AB25C4B1A82E2
:103890007B6812331B781B021AB27B6813331B78C8
:1038A0001BB213431BB29AB2554B5A827B68143336
:1038B0001B781B021AB27B6815331B781BB21343AB
:1038C0001BB29AB24E4B9A827B6816331B781B024E
:1038D0001AB27B6817331B781BB213431BB29AB220
:1038E000474BDA82464B9B881800FDF7E5F8031C2E
:1038F000181CFEF737FB434A434BFDF783FC0200DD
:103900000B00100019000022404BFDF711F90200D6
:103910000B0010001900FCF7A3FC03009AB2384B0F
:103920009A80374BDB881800FDF7C6F8031C181C7B
:10393000FEF718FB334A344BFDF764FC02000B0022
:10394000100019000022314BFDF7F2F802000B00C5
:1039500010001900FCF784FC03009AB2284BDA80AF
:10396000274B1B891800FDF7A7F8031C181CFEF74E
:10397000F9FA244A244BFDF745FC02000B00100025
:1039800019000022214BFDF7D3F802000B001000B4
:103990001900FCF765FC03009AB2194B1A81184B09
:1039A0005B891800FDF788F8031C181CFEF7DAFA8B
:1039B000144A154BFDF726FC02000B0010001900FD
:1039C0000022124BFDF7B4F802000B0010001900A2
:1039D000FCF746FC03009AB2094B5A810C4B0122BA
:1039E0001A70FEF74BFF0B4B00221A60C046BD4613
:1039F00002B080BDFD000020FE000020FC00002081
:103A0000E8030020713D0AD7A370164000B0A34020
:103A1000000100200004002080B582B000AF344BCC
:103A20007B60344B3B60344B78220021180009F056
:103A30004AFE324B78221A80314B1B88002B33D040
:103A40007B681800FCF760FB020079682A4B1800BD
:103A500009F030FE7B681800FCF756FB0200264B8D
:103A6000D31827490222180009F024FE7B681800A9
:103A7000FCF74AFB03009A1C1F4BD018204B1B88F5
:103A80001A00204B190009F015FE1D4B1B881A0067
:103A90001D4B1B68D2181C4B1A60194B5C2200216D
:103AA000180009F010FE1EE0184B1B78012B10D1F6
:103AB000174B1B780133DAB2154B1A703B681800AC
:103AC000FCF722FB020039680B4B180009F0F2FDED
:103AD00009E07B681800FCF717FB02007968064BC9
:103AE000180009F0E7FDC046BD4602B080BDC046E3
:103AF00010D800081CD800080C0100208401002008
:103B00004C0400204E04002000040020FF00002090
:103B1000AC01002080B500AF124B5C2200211800E0
:103B200009F0D1FD104B18220021180009F0CBFD3F
:103B30000E4B00221A700E4B00221A700D4B002201
:103B40001A700D4B180004F003FF0C4B180001F025
:103B500091F800F0D5F9FEF715FEFEF78FFEC0468E
:103B6000BD4680BD4C040020E8030020FF0000207B
:103B700000010020FC000020B0040020D40300203D
:103B800080B500AF00F0AEFE00F03EF800F0B8F9EE
:103B900009F020F800F008F900F092F800F0D6F8EB
:103BA00000F05AF9FEF7EEFD0F4B1B78012B12D1F6
:103BB0000D4B00221A700D4B1A780D4B1A700D4BDD
:103BC0000D4A1A60FFF794F80C4B1A880C4B110041
:103BD000180009F08FF80B4B1B78012BE4D1FFF78D
:103BE000ADFBFEF78BFFDFE7B1010020B201002043
:103BF0000801002004010020240800208401002086
:103C00000C0100200001002090B599B000AF2C24D9
:103C10003B19180034231A00002109F054FD1C231D
:103C2000FB18180010231A00002109F04CFD3B007E
:103C300018001C231A00002109F045FD21007B1803
:103C400030221A607B1801221A627B1801225A6105
:103C50007B1810229A617B1800225A627B18180088
:103C600003F0FEFF031E01D000F0FCF91C217B18BD
:103C700007221A607B1803225A607B1800229A6080
:103C80007B180022DA607B180121180004F06EFB1B
:103C9000031E01D000F0E6F93B00802292021A6078
:103CA0003B0000229A613B00180004F0B9FC031E9F
:103CB00001D000F0D7F9C046BD4619B090BD000054
:103CC00080B584B000AF3B1D18000C231A00002102
:103CD00009F0F9FC1B4B1C4A1A601A4B00225A606F
:103CE000184B00229A60174B0022DA60154B012214
:103CF0001A61144B04225A61124B00221A76114B9E
:103D000000225A760F4B00229A760E4B0022DA766A
:103D10000C4BC222FF32DA610A4B00221A62094BB5
:103D2000242200219954074B01229A62054B180066
:103D300000F060FE031E01D000F094F9C046BD46BD
:103D400004B080BDF80400200024014080B582B09A
:103D500000AF3B00180008231A00002109F0B3FC53
:103D60000F4B104A1A600E4B180001F081FC031E25
:103D700001D000F077F93B0000221A603B000022DE
:103D80005A603900064B1022180001F0B7FC031EE0
:103D900001D000F067F9C046BD4602B080BDC04604
:103DA000D40300200074004080B586B000AF082323
:103DB000FB18180010231A00002109F084FC3B00B6
:103DC000180008231A00002109F07DFC1F4B204A2F
:103DD0001A601E4B00225A601C4B00229A601B4B3B
:103DE0001C4ADA60194B00221A61184B00225A61F2
:103DF000164B00229A61154B180004F00FFD031EAC
:103E000001D000F02FF908217B18802252011A609E
:103E10007A180E4B1100180004F028FF031E01D081
:103E200000F020F93B0000221A603B0000225A609B
:103E30003A00064B1100180005F026F9031E01D0C8
:103E400000F010F9C046BD4606B080BD0404002055
:103E5000002C0140FEFF000080B586B000AF0823B3
:103E6000FB18180010231A00002109F02CFC3B005D
:103E7000180008231A00002109F025FC1F4B80229E
:103E8000D2051A601D4BE022FF325A601B4B002204
:103E90009A601A4B6322DA60184B00221A61174BA2
:103EA00080229A61154B180004F0B8FC031E01D063
:103EB00000F0D8F808217B18802252011A607A1885
:103EC0000E4B1100180004F0D1FE031E01D000F0CB
:103ED000C9F83B0000221A603B0000225A603A00F9
:103EE000064B1100180005F0CFF8031E01D000F0BA
:103EF000B9F8C046BD4606B080BDC046B00400203B
:103F000090B589B000AF0C243B19180014231A0097
:103F1000002109F0D8FB4E4B5A694D4B8021C90353
:103F20000A435A614A4B5A698023DB031340BB6042
:103F3000BB68474B5A69464B802189020A435A6144
:103F4000434B5A6980239B0213407B607B68404B44
:103F50005A693F4B8021C9020A435A613C4B5A6956
:103F60008023DB0213403B603B689023DB0501228A
:103F70000321180001F0E5FFC42399009023DB051D
:103F80000022180001F0DDFF3249334B00221800F7
:103F900001F0D7FF3B19314A1A603B1901225A60E0
:103FA0003B1900229A603B190022DA603A199023EB
:103FB000DB051100180001F02FFE3B190C221A60DE
:103FC0003B1900225A603B1901229A603A1990234A
:103FD000DB051100180001F01FFE3B19204A1A6092
:103FE0003B1901225A603B1900229A603B190022BA
:103FF000DA603B19184A1900100001F00DFE3B1958
:1040000002221A603B1901225A603B1902229A606F
:104010003B190022DA603B190F4A1900100001F029
:10402000FBFD21007B1880221A607B1801225A6058
:104030007B1802229A607B180122DA607B18064AFC
:104040001900100001F0E8FDC046BD4609B090BD62
:104050000010024087EC0000000400481303000039
:1040600005EC000080B500AFC046BD4680BD000035
:1040700080B500AF9023DB0501220121180001F07B
:1040800060FF9023DB0501220221180001F059FF97
:104090009023DB0501211800FEF7E2FA9023DB05EF
:1040A00002211800FEF7DCFA064B04211800FEF787
:1040B000D7FA044B00220421180001F042FFC04649
:1040C000BD4680BD0004004890B585B000AF786063
:1040D0000F243B1900221A709023DB0500220221D5
:1040E000180001F02EFF00F079FA9023DB0504217F
:1040F000180001F009FF031E2BD17B68DA1C7B68D6
:104100001100180000F09CF97B685A1C7B6804338E
:104110001900100000F094F97B689A1C7B68053345
:104120001900100000F08CF93B1901221A7090233D
:10413000DB0501220221180001F003FF00F04EFA16
:104140009023DB0500220221180001F0FAFE00F0A6
:1041500045FA9023DB0501220221180001F0F1FE4F
:1041600000F03CFA0F23FB181B781800BD4605B081
:1041700090BD000080B500AF9023DB050022012137
:10418000180001F0DEFE00F029FA304B0122042174
:10419000180001F0D6FEFA231B01180000F028FADF
:1041A0002B4B180000F024FA294B180000F020FADD
:1041B000264B00220421180001F0C3FEAF239B0010
:1041C000180000F015FA214B01220421180001F01B
:1041D000B8FE204B180000F00BFA1F4B180000F03F
:1041E00007FA1D4B180000F003FA184B00220421B7
:1041F000180001F0A6FEAF239B00180000F0F8F9AC
:10420000124B01220421180001F09BFE134B1800F1
:1042100000F0EEF9114B180000F0EAF9104B18000D
:1042200000F0E6F9094B00220421180001F089FE94
:1042300000F0D4F99023DB0501220121180001F0E0
:1042400080FE00F0CBF9C046BD4680BD00040048AA
:10425000941100008813000010270000204E000079
:10426000B80B000090B583B000AF04000800110047
:10427000FB1D221C1A70BB1D021C1A707B1D0A1C20
:104280001A709023DB0500220121180001F059FE6D
:1042900000F0A4F99023DB0510211800FEF7E0F9E7
:1042A000FB1D1B782033DBB2180000F054F9BB1D56
:1042B0001B78180000F04FF97B1D1B78180000F0E8
:1042C0004AF99023DB0510211800FEF7F0F990233E
:1042D000DB0501220121180001F033FE00F07EF918
:1042E000C046BD4603B090BDB0B582B000AF05007A
:1042F0000C0010001900FB1D2A1C1A70BB1D221C8B
:104300001A707B1D021C1A703B1D0A1C1A70902328
:10431000DB0500220121180001F013FE00F05EF918
:104320009023DB0510211800FEF79AF9FB1D1B787E
:104330004033DBB2180000F00EF9BB1D1B781800EB
:1043400000F009F97B1D1B78180000F004F93B1DF3
:104350001B78180000F0FFF89023DB0510211800EF
:10436000FEF7A5F99023DB0501220121180001F0D9
:10437000E8FD00F033F9C046BD4602B0B0BD90B5CF
:1043800085B000AFB9607A603B600F243B19021C16
:104390001A709023DB0500220121180001F0D1FDE5
:1043A00000F01CF99023DB0510211800FEF758F9E6
:1043B0003B191B78403BDBB2180000F0CCF890238F
:1043C000DB0510211800FEF772F900F007F900F084
:1043D0008FF803001A00BB681A7000F089F8030018
:1043E0001A007B681A7000F083F803001A003B681B
:1043F0001A709023DB0501220121180001F0A1FDB4
:1044000000F0ECF8C046BD4605B090BD80B500AFE9
:10441000A02220210420FFF725FF00230022802175
:104420000020FFF761FFC046BD4680BD80B500AFEC
:10443000A12220210420FFF715FFC046BD4680BD04
:1044400080B584B000AF786039607B6800221A7054
:104450003B6800221A700F23FB1808221A7000F024
:10446000A5F87B681B78DB18DAB27B681A703B68AA
:104470001B78DB18DAB23B681A707B681B78012264
:104480009343DAB27B681A703B681B78012293432E
:10449000DAB23B681A709023DB050421180001F0A2
:1044A00033FD031E06D07B681B7801221343DAB26A
:1044B0007B681A709023DB050821180001F024FDA9
:1044C000031E06D03B681B7801221343DAB23B6817
:1044D0001A700F217B187A181278013A1A707B181B
:1044E0001B78002BBBD1C046C046BD4604B080BD82
:1044F00080B582B000AFFB1D00221A70BB1D0822E0
:104500001A7000F053F8FA1DFB1D1B78DB181370AE
:10451000FB1DFA1D127801218A431A709023DB05D6
:104520001021180001F0F0FC031E05D0FB1DFA1D40
:10453000127801210A431A70BB1DBA1D1278013A84
:104540001A70BB1D1B78002BDBD1FB1D1B781800DC
:10455000BD4602B080BD80B584B000AF0200FB1D37
:104560001A700F23FB1808221A70FB1D1B78DB0939
:10457000DAB29023DB051021180001F0E2FC00F014
:1045800015F8FA1DFB1D1B78DB1813700F217B1823
:104590007A181278013A1A707B181B78002BE4D134
:1045A000C046C046BD4604B080BD000080B500AF27
:1045B000094B01220421180001F0C3FC00F00EF8A1
:1045C000054B00220421180001F0BBFC00F006F8A6
:1045D000C046BD4680BDC0460004004880B500AF5F
:1045E000AF239B00180000F003F8C046BD4680BD15
:1045F00080B582B000AF0200BB1D1A80084B1B685B
:1046000000225A62C046064B1B685A6ABB1D1B88B3
:104610009A42F8D3C046C046BD4602B080BDC046EF
:104620000404002080B582B000AF0F4B9A690E4B96
:1046300001210A439A610C4B9B69012213407B6064
:104640007B68094BDA69084B802149050A43DA6126
:10465000054BDA6980235B0513403B603B68C0462D
:10466000BD4602B080BDC0460010024090B58BB080
:1046700000AF786014243B19180014231A0000219D
:1046800009F021F87B681B681D4A934233D11D4B0A
:104690009A691C4B802189000A439A61194B9A69D7
:1046A00080239B0013403B613B69164B5A69154BB5
:1046B000802189020A435A61124B5A6980239B0266
:1046C0001340FB60FB683B19C0221A603B190322B0
:1046D0005A603B1900229A603A199023DB051100B9
:1046E000180001F099FA002200210C2000F08EFF42
:1046F0000C2000F0A0FFC046BD460BB090BDC046E8
:10470000002401400010024090B58BB000AF7860EB
:1047100014243B19180014231A00002108F0D3FFB9
:104720007B681B68194A93422BD1194BDA69184BE5
:10473000802189050A43DA61154BDA6980239B05DC
:1047400013403B613B69124B5A69114B802189022E
:104750000A435A610E4B5A6980239B021340FB6047
:10476000FB683B1920221A603B1903225A603B194F
:1047700000229A603A199023DB051100180001F01D
:104780004BFAC046BD460BB090BDC0460074004019
:104790000010024080B584B000AF78607B681B6871
:1047A000174A93420ED1174B9A69164B8021090183
:1047B0000A439A61134B9A6980231B011340FB60E3
:1047C000FB6819E07B681A688023DB059A4213D1E5
:1047D0000C4BDA690B4B01210A43DA61094BDB69A7
:1047E00001221340BB60BB68002200210F2000F0B3
:1047F0000DFF0F2000F01FFFC046BD4604B080BD76
:10480000002C01400010024080B500AFC046BD46FC
:1048100080BD80B500AFFEE780B500AFC046BD46A5
:1048200080BD80B500AFC046BD4680BD80B500AF3D
:1048300000F0A0F8C046BD4680BD000080B500AFC6
:10484000034B180000F01EFBC046BD4680BDC046AD
:10485000F804002080B500AF034B180004F0F0F816
:10486000C046BD4680BDC046B004002080B500AF44
:10487000034B180001F0B8FCC046BD4680BDC046E1
:10488000F411002080B500AFC046BD4680BD0000D9
:104890000D4885460D480E490E4A002302E0D458C3
:1048A000C4500433C4188C42F9D30B4A0B4C002378
:1048B00001E013600432A242FBD3FFF7E3FF08F0EC
:1048C000D5FEFFF75DF9FEE7004000200000002064
:1048D000D400002090DA0008D8000020E81400205E
:1048E000FEE7000080B500AF074B1A68064B1021A9
:1048F0000A431A60002000F009F8FFF793FE002336
:104900001800BD4680BDC0460020024090B583B06F
:1049100000AF7860144B1C68144B1B781900FA2305
:104920009800FBF7F9FB030019002000FBF7F4FBEC
:104930000300180000F08FFE031E01D001230FE0DA
:104940007B68032B0BD8796801235B420022180097
:1049500000F05CFE064B7A681A60002300E0012339
:104960001800BD4603B090BD040000200C000020DC
:104970000800002080B500AF054B1B781A00054BDE
:104980001B68D218034B1A60C046BD4680BDC046A6
:104990000C0000203805002080B500AF024B1B68DA
:1049A0001800BD4680BDC0463805002080B584B0E3
:1049B00000AF7860FFF7F0FF0300BB607B68FB602F
:1049C000FB68013305D00A4B1B781A00FB689B1863
:1049D000FB60C046FFF7E0FF0200BB68D31AFA682D
:1049E0009A42F7D8C046C046BD4604B080BDC04616
:1049F0000C00002080B584B000AF78600F23FB1856
:104A000000221A700023BB607B68002B01D10123B8
:104A100025E17B689B6B002B0AD17B680022DA635F
:104A20007B683422002199547B681800FFF71EFE32
:104A30007B689B6B1022134000D003E10F23FB180F
:104A40001B78002B00D0FDE07B681B689B6804226C
:104A5000134000D0F6E07B689B6B834A1340022230
:104A60001A437B689A637B681B689B680322134028
:104A7000012B12D17B681B681B6801221340012B9C
:104A800009D07B681B68DA6880231B021A408023E8
:104A90001B029A4201D1012300E00023002B16D112
:104AA0007B681B68DB681822934319007B689A684F
:104AB0007B681B680A43DA607B681B681B699B0084
:104AC00099087B685A687B681B680A431A617B688F
:104AD0001B68DA687B681B6864490A40DA607B6897
:104AE0001B7E9A037B685B7EDB031A437B689B7E9D
:104AF0005B031A437B689B6A012B02D080235B0116
:104B000000E000231A437B68DB681A437B681B695B
:104B1000022B01D1042300E000231A437B682421E7
:104B20005B5C5B001343BA681343BB607B68DB7E4E
:104B3000012B15D17B689B7E002B05D1BB688022A1
:104B400052021343BB600BE07B689B6B20221A432D
:104B50007B689A637B68DB6B01221A437B68DA63AC
:104B60007B68DA69C223FF339A4207D07B68DA692F
:104B70007B681B6A1343BA681343BB607B681B687E
:104B8000D9687B681B68BA680A43DA607B68DA6AAE
:104B900080235B059A421BD07B68DB6A012B17D010
:104BA0007B68DB6A022B13D07B68DB6A032B0FD098
:104BB0007B68DB6A042B0BD07B68DB6A052B07D094
:104BC0007B68DB6A062B03D07B68DB6A072B12D17C
:104BD0007B681B685A697B681B6807218A435A6196
:104BE0007B681B6859697B68DB6A07221A407B680F
:104BF0001B680A435A617B681B68DB681C4A1340C8
:104C0000BA689A420BD17B680022DA637B689B6B9F
:104C10000322934301221A437B689A631CE07B685A
:104C20009B6B1222934310221A437B689A637B6822
:104C3000DB6B01221A437B68DA630F23FB18012226
:104C40001A7009E07B689B6B10221A437B689A6399
:104C50000F23FB1801221A700F23FB181B78180072
:104C6000BD4604B080BDC046FDFEFFFF1902FEFF39
:104C7000E7FF3F83B0B584B000AF78600F23FB1827
:104C800000221A707B6834229B5C012B01D1022325
:104C900029E07B683422012199540F257C197B6817
:104CA000180000F0BAFB030023707B191B78002B5F
:104CB00012D17C197B68180000F03EFB03002370C2
:104CC0007B191B78002B07D17B689B6B084A13402C
:104CD00001221A437B689A637B683422002199542D
:104CE0000F23FB181B781800BD4604B0B0BDC046AA
:104CF000FEFEFFFF90B585B000AF78600F23FB1874
:104D000000221A707B681B689B680422134056D1EE
:104D10007B6834229B5C012B01D1022356E07B6827
:104D20003422012199547B685B7E012B07D00F232D
:104D3000FC187B68180000F07BFA030023700F2337
:104D4000FB181B78002B3ED17B689B6B214A1340DC
:104D5000802252001A437B689A637B680022DA63E0
:104D60007B683422002199547B681B681C221A60DE
:104D70007B685B69082B10D17B681B685A687B686D
:104D80001B6804218A435A607B681B685A687B68E9
:104D90001B6818210A435A6008E07B681B685A6840
:104DA0007B681B681C210A435A60C0467B681B68ED
:104DB0009A687B681B6804210A439A6003E00F230A
:104DC000FB1802221A700F23FB181B781800BD462F
:104DD00005B090BDFEF0FFFFB0B584B000AF7860C5
:104DE0000F23FB1800221A707B6834229B5C012B76
:104DF00001D1022333E07B683422012199540F252D
:104E00007C197B68180000F008FB03002370280061
:104E10003B181B78002B1BD17B681B685A687B688A
:104E20001B681C218A435A6005003C187B681800E7
:104E300000F082FA030023707B191B78002B07D146
:104E40007B689B6B084A134001221A437B689A6374
:104E50007B683422002199540F23FB181B7818001B
:104E6000BD4604B0B0BDC046FEFEFFFF80B582B0B7
:104E700000AF78607B681B681B6C1800BD4602B0F1
:104E800080BD000080B582B000AF78607B681B6891
:104E90001B6804221340042B06D17B681B685B68E7
:104EA00004221340042B0DD07B681B681B6808226A
:104EB0001340082B4FD17B681B685B6808221340A6
:104EC000082B48D17B689B6B1022134006D17B686E
:104ED0009B6B802292001A437B689A637B681B68F5
:104EE000DA68C0231B0113402DD17B689B7E002B09
:104EF00029D17B681B681B6808221340082B22D12C
:104F00007B681B689B680422134010D17B681B6878
:104F10005A687B681B680C218A435A607B689B6BCC
:104F2000334A134001221A437B689A630BE07B6883
:104F30009B6B20221A437B689A637B68DB6B0122A0
:104F40001A437B68DA637B681800FEF759F87B68C0
:104F50001B680C221A607B681B681B688022134048
:104F6000802B15D17B681B685B6880221340802BE7
:104F70000ED17B689B6B802252021A437B689A6336
:104F80007B68180000F036F87B681B6880221A6086
:104F90007B681B681B6810221340102B23D17B6891
:104FA0001B685B6810221340102B1CD17B689B6A26
:104FB000012B06D07B681B68DB6801221340012BA4
:104FC0000DD17B68DB6B02221A437B68DA637B6856
:104FD0001B6810221A607B68180000F013F87B68C9
:104FE0001B6810221A60C046BD4602B080BDC04694
:104FF000FEFEFFFF80B582B000AF7860C046BD46C0
:1050000002B080BD80B582B000AF7860C046BD46BA
:1050100002B080BD80B584B000AF786039600F23E6
:10502000FB1800221A700023BB607B68DA6A8023B9
:105030005B059A4211D07B68DB6A012B0DD07B683F
:10504000DB6A022B09D07B68DB6A032B05D07B6807
:10505000DB6A042B01D07B68DB6A7B6834229B5CB3
:10506000012B01D10223D0E07B6834220121995425
:105070007B681B689B680422134000D0B4E03B6847
:105080005B68644A934200D182E07B681B68996A3E
:105090003B681B6801229A407B681B680A439A623E
:1050A0007B68DA6A80235B059A4237D07B68DB6ACB
:1050B000012B33D07B68DB6A022B2FD07B68DB6A45
:1050C000032B2BD07B68DB6A042B27D07B68DB6A41
:1050D000052B23D07B68DB6A062B1FD07B68DB6A3D
:1050E000072B1BD03B689A687B681B685B690721AC
:1050F0000B409A4212D07B681B685A697B681B6818
:1051000007218A435A617B681B6859693B689B6821
:1051100007221A407B681B680A435A613B681B6878
:10512000102B07D03B681B68112B03D03B681B6812
:10513000122B63D1384B19683B681B68102B09D0C0
:105140003B681B68112B02D18023DB0304E0802322
:105150005B0401E080231B042F4A0B4313603B6870
:105160001B68102B4AD12D4B1B682D491800FAF7EC
:10517000D3FF03001A0013009B009B185B00BB6069
:1051800002E0BB68013BBB60BB68002BF9D135E096
:105190007B681B689A6A3B681B68012199400B0079
:1051A000D9437B681B680A409A623B681B68102BD6
:1051B00007D03B681B68112B03D03B681B68122B80
:1051C0001CD1154B19683B681B68102B07D03B6836
:1051D0001B68112B01D1134B02E0134B00E0134B62
:1051E0000D4A0B40136009E07B689B6B20221A4339
:1051F0007B689A630F23FB1801221A707B683422A4
:10520000002199540F23FB181B781800BD4604B0E9
:1052100080BDC046011000000827014004000020A6
:1052200040420F00FFFFBFFFFFFFFFFEFFFF7FFFBA
:1052300080B584B000AF78600023FB600023BB60C2
:105240007B681B689B6803221340012B12D17B688B
:105250001B681B6801221340012B09D07B681B6867
:10526000DA6880231B021A4080231B029A4201D174
:10527000012300E00023002B52D17B681B689B6850
:105280002A4A13400DD07B689B6B10221A437B681F
:105290009A637B68DB6B01221A437B68DA63012324
:1052A0003FE07B681B689A687B681B6801210A43A2
:1052B0009A601F4B1B681F491800FAF72DFF030067
:1052C000BB6002E0BB68013BBB60BB68002BF9D14F
:1052D000FFF762FB0300FB601BE0FFF75DFB0200D2
:1052E000FB68D31A022B14D97B681B681B68012248
:1052F0001340012B0DD07B689B6B10221A437B68F7
:105300009A637B68DB6B01221A437B68DA630123B3
:1053100007E07B681B681B6801221340012BDCD16E
:1053200000231800BD4604B080BDC04617000080B1
:105330000400002040420F0080B584B000AF7860C8
:105340000023FB607B681B689B6803221340012BD2
:1053500012D17B681B681B6801221340012B09D006
:105360007B681B68DA6880231B021A4080231B02BB
:105370009A4201D1012300E00023002B48D07B6832
:105380001B689B6805221340012B10D17B681B68AA
:105390009A687B681B6802210A439A607B681B68D5
:1053A00003221A60FFF7F8FA0300FB6029E07B682C
:1053B0009B6B10221A437B689A637B68DB6B01222C
:1053C0001A437B68DA63012323E0FFF7E5FA020062
:1053D000FB68D31A022B14D97B681B689B680122D7
:1053E0001340012B0DD17B689B6B10221A437B6805
:1053F0009A637B68DB6B01221A437B68DA630123C3
:1054000007E07B681B689B6801221340012BDCD0FE
:1054100000231800BD4604B080BD80B584B000AF45
:1054200078600023FB607B681B689B680422134044
:105430003AD07B681B689B6804221340042B0DD173
:105440007B681B689B680222134007D17B681B683E
:105450009A687B681B6810210A439A60FFF79CFAE0
:105460000300FB601AE0FFF797FA0200FB68D31A0B
:10547000022B13D97B681B689B68042213400DD054
:105480007B689B6B10221A437B689A637B68DB6B9B
:1054900001221A437B68DA63012306E07B681B68FC
:1054A0009B6804221340DED100231800BD4604B0DF
:1054B00080BD000080B582B000AF0200FB1D1A70F5
:1054C000FB1D1B787F2B09D8FB1D1B781A001F239F
:1054D0001A40044B012191400A001A60C046BD46A3
:1054E00002B080BD00E100E090B583B000AF0200E3
:1054F0003960FB1D1A70FB1D1B787F2B28D82F4AA3
:10550000FB1D1B785BB29B08C0339B009B58FA1DA8
:105510001278110003220A40D200FF2191400A00B4
:10552000D2431A4011003B689B01FF221A40FB1D29
:105530001B78180003230340DB009A401F48FB1D23
:105540001B785BB29B080A43C0339B001A5031E0C2
:105550001B4AFB1D1B7819000F230B40083B9B08BF
:1055600006339B00D31804331B68FA1D1278110010
:1055700003220A40D200FF2191400A00D2431A4080
:1055800011003B689B01FF221A40FB1D1B7818008D
:1055900003230340DB009A400948FB1D1B781C00D5
:1055A0000F232340083B9B080A4306339B00C31884
:1055B00004331A60C046BD4603B090BD00E100E070
:1055C00000ED00E080B582B000AF78607B685A1EC5
:1055D00080235B049A4201D3012310E00A4B7A68CE
:1055E000013A5A6001235B4203211800FFF77CFF58
:1055F000054B00229A60044B07221A600023180012
:10560000BD4602B080BDC04610E000E080B584B069
:1056100000AFB9607A600F217B18021C1A70BA685B
:105620007B181B785BB211001800FFF75DFFC046C6
:10563000BD4604B080BD80B582B000AF0200FB1D46
:105640001A70FB1D1B785BB21800FFF733FFC046D2
:10565000BD4602B080BD80B582B000AF78607B6887
:105660001800FFF7AFFF03001800BD4602B080BD71
:1056700080B582B000AF78607B68002B01D1012338
:1056800015E07B681B79DBB2002B06D17B6800221A
:105690005A717B681800FFF737F87B6802221A718D
:1056A0007B6800221A617B6801221A7100231800AE
:1056B000BD4602B080BD80B586B000AFF860B9606D
:1056C0007A603B6000237B61FB681B687B61BB6881
:1056D000002B05D17A697B68D31808337B6104E01D
:1056E0007A697B68D31814337B617B693A681A60E6
:1056F00000231800BD4606B080BD000080B586B00E
:1057000000AFF860B9607A6000237B6100233B61E1
:10571000FB685B79012B01D1022329E0FB680122A0
:105720005A71FB6802221A71FB681B681B687B6157
:10573000114A7B689A401300DA437B6913407B610E
:10574000BB681A68BB685B6813433B613A697B6856
:105750009A4013007A6913437B61FB681B687A697E
:105760001A60FB6801221A71FB6800225A7100233B
:105770001800BD4606B080BDFE0F000080B582B0A7
:1057800000AF786039607B685B79012B01D102231F
:105790003BE07B6801225A717B6802221A717B68A8
:1057A0001B68196801223B689A407B681B680A43A2
:1057B0001A603B68002B0FD17B681B681B683C227A
:1057C00013403C2B1AD17B681B685A687B681B68A6
:1057D00001210A435A6011E07B681B681A68F023B4
:1057E0009B031A40F0239B039A4207D17B681B68F6
:1057F0005A687B681B6802210A435A607B68012251
:105800001A717B6800225A7100231800BD4602B04D
:1058100080BD0000F0B587B000AFF860B9603A60B5
:105820007B601723FB1801221A701623FB18002235
:105830001A701523FB1800221A703E4B1B7E012B99
:1058400001D1022372E03B4B01221A761723FE1886
:10585000394B180000F0C4F8030033701723FB180D
:105860001B78002B5CD1FB68012B04D11523FB189E
:1058700001221A700BE0FB68022B04D11523FB18E0
:1058800002221A7003E01523FB1804221A70162353
:10589000FB1800221A7039E016217B181B785A0079
:1058A000BB68D0187B181B781B011A00203A002A0D
:1058B00003DB7968D1400C0008E02022D21A796815
:1058C00091400A003968D9400C0014437A68DA40E4
:1058D0001500A3B2190000F067F81723FE18164B45
:1058E000180000F07DF803003370144B1A69134B55
:1058F00001218A431A611723FB181B78002B0ED154
:1059000016217B181A787B1801321A701623FA18A0
:105910001523FB1812781B789A42BDD300E0C046CD
:10592000044B00221A761723FB181B781800BD467B
:1059300007B0F0BD4005002050C300000020024029
:1059400080B582B000AFFB1D00221A700C4B1B69A2
:10595000802213400DD00A4B0A4A5A60084B0A4A6B
:105960005A60074B1B698022134002D0FB1D0122A5
:105970001A70FB1D1B781800BD4602B080BDC046E2
:105980000020024023016745AB89EFCD80B500AF11
:10599000044B1A69034B80210A431A610023180043
:1059A000BD4680BD0020024080B582B000AF786067
:1059B0000A00BB1C1A80084B0022DA61074B1A69E7
:1059C000064B01210A431A617B68BA1C12881A80AF
:1059D000C046BD4602B080BD400500200020024008
:1059E00080B584B000AF7860FEF7D6FF0300FB609F
:1059F0000FE07B6801330CD07B68002B07D0FEF7EB
:105A0000CBFF0200FB68D31A7A689A4201D20323C3
:105A10001FE0124BDB6801221340012BE9D00F4B32
:105A2000DB6820221340202B02D10C4B2022DA60AD
:105A30000A4BDB6810221340102B05D0074BDB68A4
:105A400004221340042B03D100F00AF8012300E0E4
:105A500000231800BD4604B080BDC04600200240AF
:105A600080B582B000AF00237B60134BDB6810224F
:105A70001340102B09D1114BDB6902221A430F4B43
:105A8000DA617B68102213437B600B4BDB680422D6
:105A90001340042B09D1094BDB6901221A43074B40
:105AA000DA617B68042213437B60034B7A68DA6017
:105AB000C046BD4602B080BD002002404005002027
:105AC000B0B584B000AF786039600F23FB180122B5
:105AD0001A700023BB60324B1B7E012B01D10223C5
