:020000040800F2
:1000000000400020BD2F0008352F00083F2F0008BA
:1000100000000000000000000000000000000000E0
:10002000000000000000000000000000452F000854
:1000300000000000000000004F2F0008592F0008AA
:100040000D3000080D3000080D3000080D3000089C
:100050000D3000080D3000080D3000080D3000088C
:100060000D3000080D3000080D3000080D3000087C
:10007000692F00080D3000080D300008812F00089E
:100080000D3000080D3000080D3000080D3000085C
:100090000D3000080D3000080D3000080D3000084C
:1000A0000D3000080D3000080D3000080D3000083C
:1000B0000D3000080D3000080D300008992F0008A1
:1000C00010B5064C2378002B07D1054B002B02D02E
:1000D000044800E000BF0123237010BDD8000020B9
:1000E0000000000034BE0008044B10B5002B03D004
:1000F0000349044800E000BF10BDC04600000000F6
:10010000DC00002034BE00080023C25C0133002A5A
:10011000FBD1581E70470000002243088B4274D365
:1001200003098B425FD3030A8B4244D3030B8B42F8
:1001300028D3030C8B420DD3FF22090212BA030C01
:100140008B4202D31212090265D0030B8B4219D3E2
:1001500000E0090AC30B8B4201D3CB03C01A524102
:10016000830B8B4201D38B03C01A5241430B8B424A
:1001700001D34B03C01A5241030B8B4201D30B0333
:10018000C01A5241C30A8B4201D3CB02C01A52415A
:10019000830A8B4201D38B02C01A5241430A8B421D
:1001A00001D34B02C01A5241030A8B4201D30B0206
:1001B000C01A5241CDD2C3098B4201D3CB01C01A20
:1001C000524183098B4201D38B01C01A524143092A
:1001D0008B4201D34B01C01A524103098B4201D318
:1001E0000B01C01A5241C3088B4201D3CB00C01A85
:1001F000524183088B4201D38B00C01A52414308FD
:100200008B4201D34B00C01A5241411A00D2014621
:10021000524110467047FFE701B5002000F006F894
:1002200002BDC0460029F7D076E770477047C04648
:100230009E2110B5C905041C00F08CFC002803D1D8
:10024000201C00F0FBFB10BD9E21201CC90500F006
:100250002DFA00F0F3FB80231B069C466044F2E776
:10026000F0B54F464646D6464502C0B547000C1C81
:100270006D0A3F0EC60F002F66D0FF2F6CD00023F3
:10028000EA00802599469A46ED0415437F3F6002B7
:100290006100430A9846090EE40F002948D0FF295F
:1002A00010D08022D800D2040243904600207F392B
:1002B0004A4633007F1A02436C4992008A586340D1
:1002C000DBB29746002B6DD10220FF3F33E00023C5
:1002D00098462600454682465346022B00D17FE0D1
:1002E000032B00D194E0012B17D038007F30002879
:1002F0005FDD6B0704D00F232B40042B00D00435A7
:100300002B0103D538005A4B80301D40FE2867DC96
:10031000AD016D0AC0B202E01E0000200025C0053C
:100320002843F6073043E0BCBA46B146A846F0BDC4
:10033000002B2BD101204A4633004E490243920044
:100340008A586340DBB29746002D13D104239946A7
:10035000033B00279A469AE7002D05D108239946CA
:10036000063BFF279A4692E70C239946093BFF2755
:100370009A468CE7280000F0F7FB7627431F9D4044
:1003800000237F4299469A463F1A80E7180000F002
:10039000EBFB4246431F76219A404942091A904698
:1003A000002085E7FF21032082E71E00FF200025B3
:1003B000B5E701231B1A1B2BAFDC9E372900BD407C
:1003C000D9406A1E95410D436B0704D00F232B4083
:1003D000042B00D004356B0144D5012000259EE795
:1003E000FF2000259BE780250026FF20ED0396E7F0
:1003F000002398468020C003054209D043460342AB
:1004000006D1454605436D022600FF206D0A86E7AA
:100410008020C00305436D02FF206D0A7FE741463F
:100420006A014801824219D21B210025013F0126A1
:1004300014006D005200002C01DB904201D8121A0A
:10044000354301390029F3D1501E824138007F30F5
:100450001E001543002800DD4BE7AAE71A210125FD
:10046000121AE4E7AD0100206D0A58E7B4BF000896
:10047000FFFFFFF7F4BF0008F8B557464E46454664
:10048000DE464402E0B545000F1C640A2D0EC60F7F
:10049000002D47D0FF2D4DD0002380209A469B464B
:1004A000E400C00404437F3D7802430A99467A0081
:1004B000FB0F9846120E4B4644D0FF2A11D0D800AD
:1004C0008023DB040343994600207F3AAD1847465A
:1004D00053467740691C0F2B3FD8724A9B00D35874
:1004E0009F46FF35002B00D079E0524602231A4385
:1004F00092460220EBE747464C4683465B46022B7A
:1005000028D0032B00D1C6E0012B4FD100200024BE
:10051000C005FF0720433843F0BCBB46B246A9469E
:10052000A046F8BD002C71D104239A46033B002558
:100530009B46B9E7002C63D108239A46063BFF256A
:100540009B46B1E7002B50D1524601331A439246E5
:100550000120BCE7FF200024DAE74846260C2404EB
:10056000220C0404240C4B4620001B0C5043744303
:100570005A435E431219030C9B189C4203D98022F4
:1005800052029446664400041A04000C12189401A6
:10059000601E84411B0C920E9B1914439B011C434B
:1005A0001B0172D50120630804401C4308007F3002
:1005B00000283CDD630704D00F232340042B00D028
:1005C0000434230103D580310800374B1C40FE283A
:1005D000C0DCA401640AC0B29AE737008EE7524635
:1005E00003231A439246032071E7484600F0BCFA01
:1005F0004A46431F9A402D1A91460020763D66E7F1
:100600000C239A46093BFF259B464DE7200000F04E
:10061000ABFA7625431F9C4000236D429A469B46C9
:100620002D1A41E780240027FF20E40370E701230F
:100630001B1A1B2B00DD69E79E3120008C40D8403F
:10064000631E9C410443630704D00F232340042B03
:1006500000D0043463011AD50120002458E780201B
:10066000C003044209D04B46034206D14C46044322
:1006700064024746FF20640A4AE78020C00304431F
:1006800064023700FF20640A42E729008EE7A401D4
:100690000020640A3CE78020C00304436402FF207A
:1006A000640A35E734C00008FFFFFFF7F0B546469F
:1006B000D6464F4643025B0ADA0094464A02C0B56A
:1006C0004400560A051CB046240E4E0092091F0035
:1006D00020009246ED0F360EC90FFF2E00D17FE0AD
:1006E000012251408D4251D0A21B9146002A00DCCC
:1006F0007EE0002E00D199E0FF2C00D18CE0802319
:100700005246DB041A4392464A4601231B2A08DC60
:1007100053462021D340891A52468A40511E8A41AD
:1007200013436246D31A5A0100D4F3E09B019E0999
:10073000300000F019FA05388640844200DDF7E009
:100740003200041B20200134E240041BA640330089
:100750005E1EB341002413435A0704D00F221A40EF
:10076000042A00D004335A0100D4D6E0621CFE2CC7
:1007700000D1DAE09B015F0AD0B2C0053843ED0733
:100780002843E0BCBA46B146A846F0BDA21B91463C
:10079000002A63DD002E00D199E0FF2C3CD080239D
:1007A0005246DB041A4392464A4601231B2A08DCC0
:1007B00053462021D340891A52468A40511E8A410D
:1007C000134363445A0100D4A4E00134FF2C00D148
:1007D000ABE0012297491A405B080B401343BBE78B
:1007E000002A32D08D4235D0FF2252429146A14498
:1007F0004A46002A51D0301B002C00D09CE06346B2
:10080000002B00D1DFE00138002800D1F7E0FF2EF7
:1008100000D099E00D004346002B00D185E08027F1
:10082000FF031F437F02FF207F0AA6E75246002AEC
:1008300074D0012252429046C1444A46002A00D157
:10084000C8E0FF2C00D05FE7E6E701225140A94253
:1008500000D049E7FF2252429146A1444A46002A6D
:1008600043D0311B002C00D18CE0FF2E00D192E050
:1008700080236246DB041A43944601231B2909DCCA
:10088000202063466246CB40411A8A401100481E30
:1008900081410B433400534494E7FE22661C3242EC
:1008A00064D1002C00D082E06346002B00D1ABE085
:1008B0005346002B00D160E7634652469B1A5A010B
:1008C00000D4AAE0634652460D00D31A44E75246CC
:1008D000002A23D0012252429046C1444A46002AAF
:1008E00075D0FF2C00D05FE796E7FE260134264244
:1008F00053D1002872D16346002B00D193E05346B8
:10090000002B00D139E7634400245A0102D54A4A3A
:10091000013413405A0700D020E7DB08FF2C00D138
:100920007AE75B025F0AE0B227E7FF20002724E7AF
:10093000414B241A33400FE7FF2E00D16AE7802392
:100940006246DB041A43944601231B2809DC202459
:1009500063466246C340201A82401000441EA041F4
:10096000034352460D003400D31ADCE66346524678
:100970009E1A730117D4002E00D0D9E6002500205E
:100980000027FAE66346002B44D0013900294CD0F9
:10099000FF2E00D071E743463EE7FF2CC5D05246FC
:1009A00062445308B6E763460D00D61AC0E66246B5
:1009B000002A16D15346002B00D02BE780270025B4
:1009C000FF20FF03D9E60D0043463400A6E7534657
:1009D0006344F7E6634652469B1AA4E66246002A41
:1009E000D9D05246002A00D116E78022D203134202
:1009F00000D111E74046104200D00DE70AE7524609
:100A00000D003400D31A8EE65346002B08D00D009B
:100A10004746B2E64346340080E7002B00D079E732
:100A200000250027A9E64746A7E65346340063445D
:100A3000C8E6C046FFFFFF7DFFFFFFFB410242000B
:100A4000C30F490A0020120E7E2A03D99D2A02D91B
:100A5000094A98187047802000040143952A07DC52
:100A60009620821AD1404842002BF3D10800F1E7CA
:100A7000963A9140F7E7C046FFFFFF7F70B5051E2D
:100A80000ED000F071F89E2304001B1A962B0CDC8C
:100A9000082801DD083CA5406D026D0AD8B201E0CE
:100AA00000200025C005284370BD992B09DD0200F8
:100AB00029001B3291404A1E91410522121AD5404D
:100AC0000D43052C01DD621F95402900084E314081
:100AD0006A0709D00F202840042805D004314A01B4
:100AE00002D59F2331401B1B89014D0AD8B2D9E79B
:100AF000FFFFFFFB8446081C6146FFE71FB500F0BF
:100B0000C5F8002801D40021C8421FBD10B500F06F
:100B100049F84042013010BD10B500F0B7F8002888
:100B200001DB002010BD012010BDC04610B500F053
:100B3000ADF8002801DD002010BD012010BDC04629
:100B400010B500F057F8002801DC002010BD01208E
:100B500010BDC04610B500F04DF8002801DA0020A5
:100B600010BD012010BDC0461C2101231B0498426A
:100B700001D3000C10391B0A984201D3000A08392E
:100B80001B09984201D30009043902A2105C4018E5
:100B90007047C04604030202010101010000000089
:100BA0000000000070B542004E024C0045026D0A84
:100BB000120EC30F760A240EC90FFF2A0FD0FF2C86
:100BC00011D00120A24200D070BDB542FCD18B42B1
:100BD0000DD0002AF8D12800451EA841F4E70120D5
:100BE000002DF1D1EBE70120002EEDD1E9E7002047
:100BF000EAE7C046F0B5420046024D024C00C30F82
:100C0000760A120E6D0A240EC80FFF2A1FD0FF2C81
:100C100010D0002A1FD171427141002C01D1002D4A
:100C20001ED000290ED183421ED00221581E08403A
:100C30000138F0BD002D26D1002AF4D17142714156
:100C40000029F0D00028F4D101204042F1E7002E25
:100C500019D1FF2CEED0002CE5D1002DE3D1E4E733
:100C60000020002EE5D0E0E7A24205DCEADBAE4240
:100C700002D8E7D30020DCE741424141484202214B
:100C800008400138D5E702204042D2E7F0B54200E3
:100C900046024D024C00C30F760A120E6D0A240E56
:100CA000C80FFF2A0DD0FF2C0FD0002A23D171428C
:100CB0007141002C0FD1002D0DD10020002E14D039
:100CC0000DE0002E10D1FF2C15D1002D0CD1002AE3
:100CD00003D171427141002908D1834210D0022111
:100CE000581E0840013800E00220F0BD0028FCD169
:100CF00001204042F9E7002CEFD1002DEDD1EEE7C5
:100D0000A24205DCF2DBAE4202D8EFD30020ECE7D2
:100D1000414241414842022108400138E5E7C046CE
:100D2000B0B5AAB000AF39601100FB1D021C1A70EB
:100D3000BB1D0A1C1A70FB1D1B782F4A9446634486
:100D4000DB02A0243A19136020257B198022FF21A1
:100D500018000BF04EF8BB1D1A7839687B19180083
:100D60000BF03EF803F082F90C217B1800221A6088
:100D70007B183A1912685A607B1801229A60002386
:100D8000BB600823FA187B181100180003F02EFA34
:100D9000A723FB1800221A7022E0A7243B191B7816
:100DA0009B011A00A0257B191B689B187A191360F8
:100DB0003B191B78DB002022BA18D1181823FB1826
:100DC000082218000BF00CF8BA69FB697919096858
:100DD000032003F0B5F83B191A783B1901321A7059
:100DE000A723FB181B780F2BD7D903F065F9002335
:100DF0001800BD462AB0B0BD1A00010090B5A7B0DA
:100E000000AF786008001100FB1C021C1A70BB1CAC
:100E10000A1C1A70FB1C1B78224A94466344DB02AE
:100E20009022BA1813601023FB188022FF211800AB
:100E30000AF0DFFF9723FB1800221A7020E09721A9
:100E40007B181B789B001A0090203B181B689B188E
:100E50003A1813603B181B681B68FB600C007B187A
:100E60001B789B001022BA18D3180C22B918042240
:100E700018000AF0B5FF3B191A783B1901321A70B5
:100E80009723FB181B781F2BD9D9BB1C1A7810236A
:100E9000F9187B6818000AF0A3FF00231800BD466C
:100EA00027B090BD1A00010090B589B000AF7860FE
:100EB0000A00BB1C1A800C243B19180014231A00CA
:100EC00000210AF096FFBB1C1A8821007B181A60CB
:100ED0007B1801225A607B1800229A607B1803223B
:100EE000DA607A187B681100180003F02BFAC0460C
:100EF000BD4609B090BD90B589B000AF78600A00DA
:100F0000BB1C1A800C243B19180014231A00002162
:100F10000AF06FFFBB1C1A883B191A603B190022AC
:100F20005A603B1902229A603A197B681100180036
:100F300003F008FAC046BD4609B090BD80B584B044
:100F400000AF3B1D18000C231A0000210AF051FFCE
:100F50003B1D06221A603B1D802252015A603B1D38
:100F600006229A603A1D064B1100180002F0E8FBB9
:100F7000031E01D001F00CFCC046BD4604B080BD8C
:100F80000C05002080B584B000AF3B1D18000C2379
:100F90001A0000210AF02DFF3B1D07221A603B1D9D
:100FA000802252015A603B1D06229A603A1D064B70
:100FB0001100180002F0C4FB031E01D001F0E8FB91
:100FC000C046BD4604B080BD0C05002080B500AF12
:100FD000294B180006F008F8284B002201211800C0
:100FE00003F045FB80239B0124480122190003F0F4
:100FF0003EFB224B00220421180003F038FB802323
:10100000DB001E480122190003F031FB80231B0185
:101010001A480122190003F02AFB80235B011748BC
:101020000122190003F023FB01F0B7FB192002F0A5
:1010300053F801F033FC192002F04EF801F07EFD68
:101040000F4B202202211800FFF7D8FE0C4B197815
:101050000B4B5A780A4B9B78082001F0DDFC084BBB
:10106000D978074B1A79064B5B790C2001F0D4FC38
:10107000C046BD4680BDC0461004002000040048A4
:101080009001002080B582B000AF0A4B7B607A6887
:10109000094B110018000AF0B4FE7B681800FFF736
:1010A00033F803009AB2054B1A80C046BD4602B021
:1010B00080BDC0464CBE00080C0100208C01002001
:1010C00080B582B000AF0A4B7B607A68094B110093
:1010D00018000AF096FE7B681800FFF715F8030069
:1010E0009AB2054B1A80C046BD4602B080BDC046CC
:1010F00050BE00080C0100208C01002080B500AF1C
:1011000080239B0104480022190003F0B0FAFFF786
:10111000D7FFC046BD4680BD0004004880B500AF83
:1011200080239B0104480122190003F0A0FAFFF775
:10113000C7FFC046BD4680BD0004004880B500AF73
:10114000054B00220121180003F091FAFFF7B8FFC8
:10115000C046BD4680BDC0460004004880B500AF13
:10116000054B01220121180003F081FAFFF7A8FFC7
:10117000C046BD4680BDC0460004004880B500AFF3
:10118000114B00220421180003F071FA0A2001F02B
:10119000A3FF8023DB000C480122190003F067FA4B
:1011A00080231B0108480122190003F060FA802304
:1011B0005B0105480122190003F059FAFFF780FF8F
:1011C000C046BD4680BDC0460004004880B500AFA3
:1011D0008023DB0010480022190003F048FA0A209F
:1011E00001F07AFF0C4B01220421180003F03FFAB2
:1011F00080231B0108480122190003F038FA8023DC
:101200005B0105480122190003F031FAFFF758FF8E
:10121000C046BD4680BDC0460004004880B500AF52
:1012200080231B0110480022190003F020FA0A2035
:1012300001F052FF0C4B01220421180003F017FAB1
:101240008023DB0008480122190003F010FA8023F4
:101250005B0105480122190003F009FAFFF730FF8E
:10126000C046BD4680BDC0460004004880B500AF02
:1012700080235B0110480022190003F0F8F90A20CE
:1012800001F02AFF0C4B01220421180003F0EFF9B2
:101290008023DB0008480122190003F0E8F98023CD
:1012A0001B0105480122190003F0E1F9FFF708FFCF
:1012B000C046BD4680BDC0460004004880B582B02F
:1012C00000AF78607B6819787B6801331A787B6897
:1012D00002331B78002001F09FFBFFF7F1FEC046B0
:1012E000BD4602B080BD80B582B000AF01F036FCD3
:1012F000FA235B00180001F0EFFE3A0001323B00D8
:1013000002333900082001F0D2FB390003313A00E2
:1013100004323B0005330C2001F0C9FB3B000622E0
:1013200019000220FFF7FCFCFFF7CAFEC046BD46CD
:1013300002B080BD80B582B000AF00F0F1FA031EAC
:101340000BD0104B06221A800E4B1B881A000E4938
:101350000E4B18000AF044FD0FE00D4B7B607A68DD
:101360000A4B110018000AF04CFD7B681800FEF7CC
:10137000CBFE03009AB2034B1A80C046BD4602B0B2
:1013800080BDC0468C010020BC0400200C01002060
:1013900054BE000880B584B000AF3B1D180001F0BA
:1013A00028FA031E0BD0104B06221A800E4B1B8806
:1013B0001A00391D0D4B18000AF012FD0FE00C4BFE
:1013C000FB60FA68094B110018000AF01AFDFB686F
:1013D0001800FEF799FE03009AB2034B1A80C0462C
:1013E000BD4604B080BDC0468C0100200C01002029
:1013F00054BE000880B500AF094B2022012118001F
:10140000FFF7FCFC074B06221A80064B1B881A00CC
:101410000349054B18000AF0E3FCC046BD4680BDF9
:10142000900100208C0100200C01002080B582B0CA
:1014300000AF78607B68062219000120FFF770FC7E
:10144000C046BD4602B080BD80B500AF094B20222A
:1014500003211800FFF7D2FC074B08221A80064B25
:101460001B881A000349054B18000AF0B9FCC04656
:10147000BD4680BD900100208C0100200C010020A1
:1014800080B582B000AF78607B6808221900032025
:10149000FFF746FCFFF714FEC046BD4602B080BD14
:1014A00080B500AF094B202202211800FFF7A6FCEF
:1014B000074B06221A80064B1B881A000349054B6E
:1014C00018000AF08DFCC046BD4680BD900100208A
:1014D0008C0100200C01002080B582B000AF786044
:1014E0007B68062219000220FFF71AFC7B68197836
:1014F0007B6801331A787B6802331B78082001F07F
:101500008BFA7B68033319787B6804331A787B681D
:1015100005331B780C2001F07FFAFFF7D1FDC046A0
:10152000BD4602B080BD000080B500AFAC4B1B785B
:10153000072B0BD1AB4B1B68AB49072218000AF0F5
:1015400068FC031E02D1FFF7D9FD46E1A44B1B78CE
:10155000082B0BD1A34B1B68A449082218000AF0E2
:1015600058FC031E02D1FFF7D9FD36E19C4B1B78D6
:101570000E2B0BD19B4B1B689D490E2218000AF0C5
:1015800048FC031E02D1FFF7D9FD26E1944B1B78DE
:101590000D2B0BD1934B1B6896490D2218000AF0B6
:1015A00038FC031E02D1FFF7D9FD16E18C4B1B78E6
:1015B000072B0BD18B4B1B688F49072218000AF0B1
:1015C00028FC031E02D1FFF7D9FD06E1844B1B78EE
:1015D000072B0BD1834B1B688849072218000AF0A0
:1015E00018FC031E02D1FFF7F1FDF6E07C4B1B78DF
:1015F000072B0BD17B4B1B688149072218000AF08F
:1016000008FC031E02D1FFF709FEE6E0744B1B78CD
:10161000072B0BD1734B1B687A49072218000AF07D
:10162000F8FB031E02D1FFF721FED6E06C4B1B78BE
:101630000A2B0FD16B4B1B687349072218000AF065
:10164000E8FB031E06D1674B1B6807331800FFF742
:1016500035FEC2E0624B1B78062B0BD1614B1B6839
:101660006A49062218000AF0D4FB031E02D1FFF7D4
:101670003AFEB2E05A4B1B78072B0BD1594B1B6833
:101680006349072218000AF0C4FB031E02D1FFF7CA
:1016900081FEA2E0524B1B780A2B0BD1514B1B68E9
:1016A0005C490A2218000AF0B4FB031E02D1FFF7BE
:1016B000A1FE92E04A4B1B78112B0FD1494B1B68BE
:1016C00055490B2218000AF0A4FB031E06D1454B16
:1016D0001B680B331800FFF7A9FE7EE0404B1B7818
:1016E000092B0BD13F4B1B684C49092218000AF00B
:1016F00090FB031E02D1FFF7D3FE6EE0384B1B7840
:10170000102B0FD1374B1B6845490A2218000AF0ED
:1017100080FB031E06D1334B1B680A331800FFF70A
:10172000DBFE5AE02E4B1B780C2B0BD12D4B1B688C
:101730003C490C2218000AF06CFB031E02D1FFF793
:1017400083FE4AE0264B1B78152B0FD1254B1B68D7
:1017500035490D2218000AF05CFB031E06D1214B0F
:101760001B680D331800FFF78BFE36E01C4B1B780F
:10177000232B0FD11B4B1B682C490B2218000AF09E
:1017800048FB031E06D1174B1B680B33180000F0F3
:101790000FFC22E0124B1B78082B0BD1114B1B685E
:1017A0002349082218000AF034FB031E02D100F07E
:1017B000CDFC12E00A4B1B78082B0BD1094B1B68A0
:1017C0001C49082218000AF024FB031E02D100F075
:1017D0003BFD02E0FFF756FCC046C046BD4680BD5B
:1017E00008010020040100205CBE000864BE00085F
:1017F00070BE000880BE000890BE000898BE0008B9
:10180000A0BE0008A8BE0008B0BE0008B8BE000810
:10181000C0BE0008C8BE0008D4BE0008E0BE000874
:10182000ECBE0008F8BE000808BF000818BF00089A
:1018300024BF000830BF000880B584B000AF7860D6
:101840007B68180001F0A8FE02002D4B1A602C4B9B
:101850001B681800FFF712F9031C2A49181CFEF731
:10186000FFFC031C2849181CFEF706FE031C274931
:10187000181CFEF71BFF031CFB602449F868FEF7E9
:10188000EFFC031C2249181CFEF7F6FD031C181C74
:10189000FEF7CEFC02001A4B1A601E4B1B78002B81
:1018A00011D1174B1B681B0CDAB21B4B1A70144B6F
:1018B0001B681B0ADAB2184B5A70114B1B68DAB25C
:1018C000154B9A7014E0134B1B78012B10D10C4B65
:1018D0001B681B0CDAB2104BDA70094B1B681B0A31
:1018E000DAB20D4B1A71064B1B68DAB20A4B5A7109
:1018F0000A4B01221A70C046BD4604B080BDC046E6
:10190000B001002000F07F453D0A47407B141E4097
:101910000400004A00000020BC0400200100002058
:1019200080B582B000AFFB1D00221A70264B1B78D9
:10193000002B43D0254B1B78002B0FD1244B0022CA
:101940001A70224B01221A70224B00221A70FFF7E4
:10195000F5FA214B180001F063FD2FE01B4B1B78BB
:10196000012B18D11B4B1B78DBB2002B26D01A4B56
:10197000180001F0C7FD164B01221A70134B02220A
:101980001A70144B00221A70FFF7FCFA124B180061
:1019900001F046FD12E00D4B1B78022B0ED10D4BD2
:1019A0001B78DBB2002B09D0FB1D01221A70074BFC
:1019B00000221A70084B180001F0A4FDFB1D1B78D3
:1019C0001800BD4602B080BD01010020B501002015
:1019D00000000020010000200C05002080B582B02E
:1019E00000AF00237B6000F049FD104B0021180080
:1019F00002F05AFA0E4B01220221180002F037FEC3
:101A00000C4B01221A700C4B01221A700B4B7B609D
:101A10007B6806480022002102F0E3F9084B180019
:101A200005F052FBC046BD4602B080BDE003002079
:101A3000000400480101002000010020AC0C00005F
:101A4000C404002080B582B000AF7860194B1B78C9
:101A5000012B2AD1184B1B8801339AB2164B1A80DE
:101A6000164B1B88602B1AD8154B1B78002B16D0F1
:101A7000124B1B881A00114BD3189A1C114B1000E3
:101A8000190006231A000AF0ABF90C4B1B88063329
:101A90009AB20A4B1A800A4B00221A7005E0084BD2
:101AA0001B780133DAB2064B1A70C046BD4602B04D
:101AB00080BDC04600010020F40000205804002032
:101AC000B6010020BC04002080B584B000AF020045
:101AD000BB1D1A800F23FB1800221A70114B1B78B4
:101AE000002B02D0012B07D014E00F4B00221A80EC
:101AF0000C4B01221A700DE00B4B1B88BA1D12888B
:101B00009A4206D8074B00221A700F23FB180122B5
:101B10001A70C0460F23FB181B781800BD4604B08E
:101B200080BDC046B7010020F400002080B584B01D
:101B300000AF78600C497868FEF79EFC031C0B49E7
:101B4000181CFEF78DFB031C181CFEF771FB03002D
:101B5000FB60FB6806480022002102F042F9C04603
:101B6000BD4604B080BDC04600F07F453D0A4740F9
:101B7000E0030020B0B582B002AF4F4B1B789AB2A1
:101B80004E4B1B889A4200D38FE04B4B1B780122AF
:101B90001340DBB2002B3FD1474B1B780133474A40
:101BA000128893421CD1454B9888444B5989434B2A
:101BB0009C89424BDD89414B5B8A404A128A0192E3
:101BC00000932B00220000F07FF80300012B00D0CF
:101BD0006EE0394B1B780133DAB2374B1A7067E08D
:101BE000364B9888354BD988344B9C89334BDD89EB
:101BF000324B5B8A314A128A019200932B002200F9
:101C000000F062F80300012B52D12B4B1B780133FB
:101C1000DAB2294B1A704BE0274B1B780133274A65
:101C20001288934220D1264B1B689AB2234B5B8AC1
:101C3000D31A98B2214B5989204B9C891F4BDD89BF
:101C40001E4B5B8A1D4A128A019200932B002200D0
:101C500000F0F4F80300012B2AD1174B1B78013355
:101C6000DAB2154B1A7023E0154B1B689AB2134B6E
:101C70005B8AD31A98B2114B1989104B9C890F4B70
:101C8000DD890E4B5B8A0D4A128A019200932B006C
:101C9000220000F0D3F80300012B09D1064B1B787A
:101CA0000133DAB2044B1A7002E0064B01221A70BB
:101CB000C046BD46B0BDC046FC000020F403002075
:101CC000F8000020FF000020B0B584B000AF050090
:101CD0000C0010001900BB1D2A1C1A803B1D221C81
:101CE0001A80BB1C021C1A803B000A1C1A800F239E
:101CF000FB1800221A704E4B1B78002B06D1BB1D1F
:101D00001A884C4B1A604A4B01221A70484B1B78B8
:101D1000012B11D1474B1B681800FEF7AFFE031CC7
:101D20004549181CFEF79CFA031C181CFFF7FEFE21
:101D30003F4B02221A7074E03D4B1B78022B0CD1F2
:101D40002423FB181B881800FFF7BEFE0300012B9D
:101D500067D1374B03221A7063E0354B1B78032B96
:101D600034D1BB1C1A88334B1B68D218314B1A6014
:101D70003B1D1A882F4B1B689A4211D92D4B1B68AB
:101D80001800FEF77BFE031C2B49181CFEF768FAAF
:101D9000031C181CFFF7CAFE254B04221A7040E0F2
:101DA0003B1D1A88234B1A60224B1B681800FEF754
:101DB00065FE031C2049181CFEF752FA031C181C70
:101DC000FFF7B4FE1A4B05221A702AE0184B1B7855
:101DD000042B16D13B001B881800FFF775FE03008B
:101DE000012B1ED1134B1A68BB1C1B88D21A20234F
:101DF000FB181B88D2180F4B1A600D4B01221A706A
:101E00000FE00B4B1B78052B0BD13B001B881800F8
:101E1000FFF75AFE0300012B03D10F23FB18012209
:101E20001A700F23FB181B781800BD4604B0B0BD14
:101E3000B8010020F800002000007A44B0B584B05A
:101E400000AF05000C0010001900BB1D2A1C1A80F1
:101E50003B1D221C1A80BB1C021C1A803B000A1C62
:101E60001A800F23FB1800221A704E4B1B78002B90
:101E700006D1BB1D1A884C4B1A604A4B01221A70BE
:101E8000484B1B78012B11D1474B1B681800FEF7FC
:101E9000F5FD031C4549181CFEF7E2F9031C181C4C
:101EA000FFF744FE3F4B02221A7074E03D4B1B7853
:101EB000022B0CD12423FB181B881800FFF704FE0B
:101EC0000300012B67D1374B03221A7063E0354BB7
:101ED0001B78032B34D1344B1A68BB1C1B88D21AD5
:101EE000314B1A603B1D1A882F4B1B689A4211D246
:101EF0002D4B1B681800FEF7C1FD031C2B49181C55
:101F0000FEF7AEF9031C181CFFF710FE254B042248
:101F10001A7040E03B1D1A88234B1A60224B1B6845
:101F20001800FEF7ABFD031C2049181CFEF798F9BA
:101F3000031C181CFFF7FAFD1A4B05221A702AE041
:101F4000184B1B78042B16D13B001B881800FFF799
:101F5000BBFD0300012B1ED1BB1C1A88124B1B6852
:101F6000D2182023FB181B88D21A0F4B1A600D4B76
:101F700001221A700FE00B4B1B78052B0BD13B0095
:101F80001B881800FFF7A0FD0300012B03D10F23CE
:101F9000FB1801221A700F23FB181B781800BD468E
:101FA00004B0B0BDFE000020F800002000007A441C
:101FB00080B582B000AF7860FFF710FD5D4B002266
:101FC0001A705D4B00221A705C4B00221A707B68FD
:101FD0001B781B021AB27B6801331B781BB21343B8
:101FE0001BB29AB2564B1A807B6802331B781B02D5
:101FF0001AB27B6803331B781BB213431BB29AB22D
:102000004F4B5A807B6804331B781B021AB27B68E3
:1020100005331B781BB213431BB29AB2484B9A800C
:102020007B6806331B781B021AB27B6807331B7868
:102030001BB213431BB29AB2414BDA807B68083360
:102040001B781B021AB27B6809331B781BB213433F
:102050001BB29AB23A4B1A817B680A331B781B0277
:102060001AB27B680B331B781BB213431BB29AB2B4
:10207000334B5A817B680C331B781B021AB27B6886
:102080000D331B781BB213431BB29AB22C4B9A81AF
:102090007B680E331B781B021AB27B680F331B78E8
:1020A0001BB213431BB29AB2254BDA817B68103303
:1020B0001B781B021AB27B6811331B781BB21343C7
:1020C0001BB29AB21E4B1A827B6812331B781B021A
:1020D0001AB27B6813331B781BB213431BB29AB23C
:1020E000174B5A827B6814331B781B021AB27B6829
:1020F00015331B781BB213431BB29AB2104B9A8252
:102100007B6816331B781B021AB27B6817331B7867
:102110001BB213431BB29AB2094BDA82094B01225C
:102120001A70FEF7CDFF084B00221A60C046BD466C
:1021300002B080BDFD000020FE000020FC00002059
:10214000F4030020000100200C04002080B582B0C0
:1021500000AF344B7B60344B3B60344B7F2200211B
:10216000180009F046FE324B7F221A80314B1B8843
:10217000002B33D07B681800FDF7C6FF020079689A
:102180002A4B180009F02CFE7B681800FDF7BCFFF5
:102190000200264BD31827490222180009F020FE1E
:1021A0007B681800FDF7B0FF03009A1C1F4BD01886
:1021B000204B1B881A00204B190009F011FE1D4B03
:1021C0001B881A001D4B1B68D2181C4B1A60194B38
:1021D00064220021180009F00CFE1EE0184B1B7849
:1021E000012B10D1174B1B780133DAB2154B1A7043
:1021F0003B681800FDF788FF020039680B4B180098
:1022000009F0EEFD09E07B681800FDF77DFF020094
:102210007968064B180009F0E3FDC046BD4602B0E0
:1022200080BDC0463CBF000848BF00080C0100202C
:102230008C010020580400205A0400200C040020C7
:10224000FF000020B401002080B500AF124B6422D3
:102250000021180009F0CDFD104B182200211800B4
:1022600009F0C7FD0E4B00221A700E4B00221A70A7
:102270000D4B00221A700D4B180004F0FFFE0C4BA2
:10228000180001F08DF800F0D3F9FEF79FFEFEF77D
:1022900017FFC046BD4680BD58040020F40300204F
:1022A000FF00002000010020FC000020C4040020EA
:1022B000E003002080B500AF00F0AAFE00F03CF87B
:1022C00000F0B6F909F01CF800F006F900F090F8FB
:1022D00000F05AF9FEF77AFE0F4B1B78012B12D152
:1022E0000D4B00221A700D4B1A780D4B1A700D4BC6
:1022F0000D4A1A60FFF718F90C4B1A880C4B1100A5
:10230000180009F08DF80B4B1B78012BE4D1FFF777
:1023100031FCFFF70FF8DFE7BA010020BC01002015
:102320000801002004010020340800208C01002056
:102330000C0100200001002090B599B000AF2C24C2
:102340003B19180034231A00002109F052FD1C2308
:10235000FB18180010231A00002109F04AFD3B0069
:1023600018001C231A00002109F043FD21007B18EE
:1023700030221A607B1801221A627B1801225A61EE
:102380007B1810229A617B1800225A627B18180071
:1023900003F0FCFF031E01D000F0FAF91C217B18AA
:1023A00007221A607B1803225A607B1800229A6069
:1023B0007B180022DA607B180121180004F06CFB06
:1023C000031E01D000F0E4F93B00802292021A6063
:1023D0003B0000229A613B00180004F0B7FC031E8A
:1023E00001D000F0D5F9C046BD4619B090BD00003F
:1023F00080B584B000AF3B1D18000C231A000021EB
:1024000009F0F7FC1B4B1C4A1A601A4B00225A6059
:10241000184B00229A60174B0022DA60154B0122FC
:102420001A61144B04225A61124B00221A76114B86
:1024300000225A760F4B00229A760E4B0022DA7653
:102440000C4BC222FF32DA610A4B00221A62094B9E
:10245000242200219954074B01229A62054B18004F
:1024600000F05EFE031E01D000F092F9C046BD46AA
:1024700004B080BD0C0500200024014080B582B06E
:1024800000AF3B00180008231A00002109F0B1FC3E
:102490000F4B104A1A600E4B180001F07FFC031E10
:1024A00001D000F075F93B0000221A603B000022C9
:1024B0005A603900064B0022180001F0B5FC031EDB
:1024C00001D000F065F9C046BD4602B080BDC046EF
:1024D000E00300200074004080B586B000AF082300
:1024E000FB18180010231A00002109F082FC3B00A1
:1024F000180008231A00002109F07BFC1F4B204A1A
:102500001A601E4B00225A601C4B00229A601B4B23
:102510001C4ADA60194B00221A61184B00225A61DA
:10252000164B00229A61154B180004F00DFD031E96
:1025300001D000F02DF908217B18802252011A6089
:102540007A180E4B1100180004F026FF031E01D06C
:1025500000F01EF93B0000221A603B0000225A6086
:102560003A00064B1100180005F024F9031E01D0B3
:1025700000F00EF9C046BD4606B080BD1004002034
:10258000002C0140FEFF000080B586B000AF08239C
:10259000FB18180010231A00002109F02AFC3B0048
:1025A000180008231A00002109F023FC1F4B802289
:1025B000D2051A601D4BE022FF325A601B4B0022ED
:1025C0009A601A4B6322DA60184B00221A61174B8B
:1025D00080229A61154B180004F0B6FC031E01D04E
:1025E00000F0D6F808217B18802252011A607A1870
:1025F0000E4B1100180004F0CFFE031E01D000F0B6
:10260000C7F83B0000221A603B0000225A603A00E3
:10261000064B1100180005F0CDF8031E01D000F0A4
:10262000B7F8C046BD4606B080BDC046C404002011
:1026300090B589B000AF0C243B19180014231A0080
:10264000002109F0D6FB4E4B5A694D4B8021C9033E
:102650000A435A614A4B5A698023DB031340BB602B
:10266000BB68474B5A69464B802189020A435A612D
:10267000434B5A6980239B0213407B607B68404B2D
:102680005A693F4B8021C9020A435A613C4B5A693F
:102690008023DB0213403B603B689023DB05012273
:1026A0000321180001F0E3FF9023DB050022302115
:1026B000180001F0DCFF3349334B0022180001F011
:1026C000D6FF3B1933221A603B1901225A603B198D
:1026D00000229A603B190022DA603A199023DB0548
:1026E0001100180001F02EFE3B190C221A603B1954
:1026F00000225A603B1901229A603A199023DB05A7
:102700001100180001F01EFE3B19204A1A603B1907
:1027100001225A603B1900229A603B190022DA60BC
:102720003B19194A1900100001F00CFE3B19022256
:102730001A603B1901225A603B1902229A603B1928
:102740000022DA603B19104A1900100001F0FAFD6E
:1027500021007B1880221A607B1801225A607B18A6
:1027600002229A607B180122DA607B18064A19005F
:10277000100001F0E7FDC046BD4609B090BDC0465F
:1027800000100240873C000000040048053C0000A7
:1027900080B500AFC046BD4680BD80B500AF902378
:1027A000DB0501220121180001F061FF9023DB0508
:1027B00001220221180001F05AFF9023DB050121BC
:1027C0001800FEF771FB9023DB0502211800FEF7CD
:1027D0006BFB9023DB0520211800FEF765FB90239F
:1027E000DB0500222021180001F041FFC046BD4654
:1027F00080BD90B585B000AF78600F243B190022F2
:102800001A709023DB0500220221180001F02FFF2F
:1028100000F07AFA9023DB050421180001F00AFF8A
:10282000031E2BD17B68DA1C7B681100180000F0B6
:102830009FF97B685A1C7B6804331900100000F074
:1028400097F97B689A1C7B6805331900100000F02B
:102850008FF93B1901221A709023DB050122022116
:10286000180001F004FF00F04FFA9023DB0500226E
:102870000221180001F0FBFE00F046FA9023DB0570
:1028800001220221180001F0F2FE00F03DFA0F23B0
:10289000FB181B781800BD4605B090BD80B500AF91
:1028A0009023DB0500220121180001F0E0FE00F07A
:1028B0002BFA9023DB0501222021180001F0D7FE1E
:1028C000FA231B01180000F029FA2D4B180000F024
:1028D00025FA2B4B180000F021FA9023DB0500228B
:1028E0002021180001F0C3FEAF239B00180000F068
:1028F00015FA9023DB0501222021180001F0B7FE14
:10290000204B180000F00AFA1F4B180000F006FADE
:102910001D4B180000F002FA9023DB050022202155
:10292000180001F0A4FEAF239B00180000F0F6F998
:102930009023DB0501222021180001F098FE134BA3
:10294000180000F0EBF9114B180000F0E7F9104BFC
:10295000180000F0E3F99023DB0500222021180085
:1029600001F085FE00F0D0F99023DB050122012162
:10297000180001F07CFE00F0C7F9C046BD4680BDDE
:10298000941100008813000010270000204E000062
:10299000B80B000090B583B000AF04000800110030
:1029A000FB1D221C1A70BB1D021C1A707B1D0A1C09
:1029B0001A709023DB0500220121180001F057FE58
:1029C00000F0A2F99023DB0510211800FEF76CFA45
:1029D000FB1D1B782033DBB2180000F054F9BB1D3F
:1029E0001B78180000F04FF97B1D1B78180000F0D1
:1029F0004AF99023DB0510211800FEF77CFA90239A
:102A0000DB0501220121180001F031FE00F07CF904
:102A1000C046BD4603B090BDB0B582B000AF050062
:102A20000C0010001900FB1D2A1C1A70BB1D221C73
:102A30001A707B1D021C1A703B1D0A1C1A70902311
:102A4000DB0500220121180001F011FE00F05CF905
:102A50009023DB0510211800FEF726FAFB1D1B78DA
:102A60004033DBB2180000F00EF9BB1D1B781800D4
:102A700000F009F97B1D1B78180000F004F93B1DDC
:102A80001B78180000F0FFF89023DB0510211800D8
:102A9000FEF731FA9023DB0501220121180001F035
:102AA000E6FD00F031F9C046BD4602B0B0BD90B5BC
:102AB00085B000AFB9607A603B600F243B19021CFF
:102AC0001A709023DB0500220121180001F0CFFDD0
:102AD00000F01AF99023DB0510211800FEF7E4F945
:102AE0003B191B78403BDBB2180000F0CCF8902378
:102AF000DB0510211800FEF7FEF900F005F900F0E3
:102B00008FF803001A00BB681A7000F089F8030000
:102B10001A007B681A7000F083F803001A003B6803
:102B20001A709023DB0501220121180001F09FFD9E
:102B300000F0EAF8C046BD4605B090BD80B500AFD4
:102B4000A02220210420FFF725FF0023002280215E
:102B50000020FFF761FFC046BD4680BD80B500AFD5
:102B6000A12220210420FFF715FFC046BD4680BDED
:102B700080B584B000AF786039607B6800221A703D
:102B80003B6800221A700F23FB1808221A7000F00D
:102B9000A4F87B681B78DB18DAB27B681A703B6894
:102BA0001B78DB18DAB23B681A707B681B7801224D
:102BB0009343DAB27B681A703B681B780122934317
:102BC000DAB23B681A709023DB050421180001F08B
:102BD00031FD031E06D07B681B7801221343DAB255
:102BE0007B681A709023DB050821180001F022FD94
:102BF000031E06D03B681B7801221343DAB23B6800
:102C00001A700F217B187A181278013A1A707B1803
:102C10001B78002BBBD1C046C046BD4604B080BD6A
:102C200080B582B000AFFB1D00221A70BB1D0822C8
:102C30001A7000F052F8FA1DFB1D1B78DB18137098
:102C4000FB1DFA1D127801218A431A709023DB05BF
:102C50001021180001F0EEFC031E05D0FB1DFA1D2B
:102C6000127801210A431A70BB1DBA1D1278013A6D
:102C70001A70BB1D1B78002BDBD1FB1D1B781800C5
:102C8000BD4602B080BD80B584B000AF0200FB1D20
:102C90001A700F23FB1808221A70FB1D1B78DB0922
:102CA000DAB29023DB051021180001F0E0FC00F0FF
:102CB00014F8FA1DFB1D1B78DB1813700F217B180D
:102CC0007A181278013A1A707B181B78002BE4D11D
:102CD000C046C046BD4604B080BD80B500AF90235D
:102CE000DB0501222021180001F0C1FC00F00CF8E6
:102CF0009023DB0500222021180001F0B8FC00F031
:102D000003F8C046BD4680BD80B500AFAF239B0031
:102D1000180000F003F8C046BD4680BD80B582B003
:102D200000AF0200BB1D1A80084B1B6800225A62CC
:102D3000C046064B1B685A6ABB1D1B889A42F8D3D3
:102D4000C046C046BD4602B080BDC046100400204B
:102D500080B582B000AF0F4B9A690E4B01210A4338
:102D60009A610C4B9B69012213407B607B68094B85
:102D7000DA69084B802149050A43DA61054BDA69B3
:102D800080235B0513403B603B68C046BD4602B0F4
:102D900080BDC0460010024090B58BB000AF786097
:102DA00014243B19180014231A00002109F021F8FB
:102DB0007B681B681D4A934233D11D4B9A691C4B9B
:102DC000802189000A439A61194B9A6980239B00EC
:102DD00013403B613B69164B5A69154B80218902B0
:102DE0000A435A61124B5A6980239B021340FB60CD
:102DF000FB683B19C0221A603B1903225A603B1939
:102E000000229A603A199023DB051100180001F0A6
:102E100099FA002200210C2000F08EFF0C2000F017
:102E2000A0FFC046BD460BB090BDC0460024014087
:102E30000010024090B58BB000AF786014243B19AD
:102E4000180014231A00002108F0D3FF7B681B68C8
:102E5000194A93422BD1194BDA69184B8021890505
:102E60000A43DA61154BDA6980239B0513403B6105
:102E70003B69124B5A69114B802189020A435A61FE
:102E80000E4B5A6980239B021340FB60FB683B1981
:102E900010221A603B1903225A603B1900229A60E3
:102EA0003A199023DB051100180001F04BFAC046D7
:102EB000BD460BB090BDC0460074004000100240FB
:102EC00080B584B000AF78607B681B68174A934276
:102ED0000ED1174B9A69164B802109010A439A615A
:102EE000134B9A6980231B011340FB60FB6819E0B8
:102EF0007B681A688023DB059A4213D10C4BDA6990
:102F00000B4B01210A43DA61094BDB6901221340B3
:102F1000BB60BB68002200210F2000F00DFF0F20D6
:102F200000F01FFFC046BD4604B080BD002C01402C
:102F30000010024080B500AFC046BD4680BD80B5E0
:102F400000AFFEE780B500AFC046BD4680BD80B58E
:102F500000AFC046BD4680BD80B500AF00F0A0F810
:102F6000C046BD4680BD000080B500AF034B1800D1
:102F700000F01EFBC046BD4680BDC0460C050020CB
:102F800080B500AF034B180004F0F0F8C046BD4612
:102F900080BDC046C404002080B500AF034B1800BC
:102FA00001F0B8FCC046BD4680BDC04604120020FA
:102FB00080B500AFC046BD4680BD00000D488546C7
:102FC0000D480E490E4A002302E0D458C450043381
:102FD000C4188C42F9D30B4A0B4C002301E0136058
:102FE0000432A242FBD3FFF7E3FF08F0D5FEFFF760
:102FF00061F9FEE70040002000000020D40000201E
:103000007CC10008D8000020F8140020FEE7000072
:1030100080B500AF074B1A68064B10210A431A60AF
:10302000002000F009F8FFF793FE00231800BD46CA
:1030300080BDC0460020024090B583B000AF7860EC
:10304000144B1C68144B1B781900FA239800FDF7E9
:1030500063F8030019002000FDF75EF80300180074
:1030600000F08FFE031E01D001230FE07B68032BCD
:103070000BD8796801235B420022180000F05CFE47
:10308000064B7A681A60002300E001231800BD4651
:1030900003B090BD040000200C00002008000020B8
:1030A00080B500AF054B1B781A00054B1B68D21882
:1030B000034B1A60C046BD4680BDC0460C000020D0
:1030C0004C05002080B500AF024B1B681800BD46C0
:1030D00080BDC0464C05002080B584B000AF78604C
:1030E000FFF7F0FF0300BB607B68FB60FB68013308
:1030F00005D00A4B1B781A00FB689B18FB60C04682
:10310000FFF7E0FF0200BB68D31AFA689A42F7D8CB
:10311000C046C046BD4604B080BDC0460C0000207D
:1031200080B584B000AF78600F23FB1800221A70BE
:103130000023BB607B68002B01D1012325E17B6864
:103140009B6B002B0AD17B680022DA637B683422F8
:10315000002199547B681800FFF71EFE7B689B6B6B
:103160001022134000D003E10F23FB181B78002B23
:1031700000D0FDE07B681B689B680422134000D0F0
:10318000F6E07B689B6B834A134002221A437B68FC
:103190009A637B681B689B6803221340012B12D142
:1031A0007B681B681B6801221340012B09D07B68D8
:1031B0001B68DA6880231B021A4080231B029A4294
:1031C00001D1012300E00023002B16D17B681B688E
:1031D000DB681822934319007B689A687B681B6838
:1031E0000A43DA607B681B681B699B0099087B684F
:1031F0005A687B681B680A431A617B681B68DA6837
:103200007B681B6864490A40DA607B681B7E9A030E
:103210007B685B7EDB031A437B689B7E5B031A4300
:103220007B689B6A012B02D080235B0100E00023B6
:103230001A437B68DB681A437B681B69022B01D148
:10324000042300E000231A437B6824215B5C5B00BD
:103250001343BA681343BB607B68DB7E012B15D137
:103260007B689B7E002B05D1BB68802252021343F2
:10327000BB600BE07B689B6B20221A437B689A63E0
:103280007B68DB6B01221A437B68DA637B68DA694F
:10329000C223FF339A4207D07B68DA697B681B6AD6
:1032A0001343BA681343BB607B681B68D9687B68AB
:1032B0001B68BA680A43DA607B68DA6A80235B05B8
:1032C0009A421BD07B68DB6A012B17D07B68DB6AD4
:1032D000022B13D07B68DB6A032B0FD07B68DB6A81
:1032E000042B0BD07B68DB6A052B07D07B68DB6A7D
:1032F000062B03D07B68DB6A072B12D17B681B6827
:103300005A697B681B6807218A435A617B681B687E
:1033100059697B68DB6A07221A407B681B680A438D
:103320005A617B681B68DB681C4A1340BA689A4282
:103330000BD17B680022DA637B689B6B032293438B
:1033400001221A437B689A631CE07B689B6B122204
:10335000934310221A437B689A637B68DB6B0122DC
:103360001A437B68DA630F23FB1801221A7009E005
:103370007B689B6B10221A437B689A630F23FB18B0
:1033800001221A700F23FB181B781800BD4604B0E9
:1033900080BDC046FDFEFFFF1902FEFFE7FF3F8331
:1033A000B0B584B000AF78600F23FB1800221A700C
:1033B0007B6834229B5C012B01D1022329E07B68CE
:1033C0003422012199540F257C197B68180000F0E4
:1033D000BAFB030023707B191B78002B12D17C19D8
:1033E0007B68180000F03EFB030023707B191B78FC
:1033F000002B07D17B689B6B084A134001221A43BC
:103400007B689A637B683422002199540F23FB1850
:103410001B781800BD4604B0B0BDC046FEFEFFFFDD
:1034200090B585B000AF78600F23FB1800221A70AA
:103430007B681B689B680422134056D17B6834224A
:103440009B5C012B01D1022356E07B6834220121D1
:1034500099547B685B7E012B07D00F23FC187B6897
:10346000180000F07BFA030023700F23FB181B7871
:10347000002B3ED17B689B6B214A13408022520077
:103480001A437B689A637B680022DA637B68342284
:10349000002199547B681B681C221A607B685B6959
:1034A000082B10D17B681B685A687B681B68042155
:1034B0008A435A607B681B685A687B681B681821BE
:1034C0000A435A6008E07B681B685A687B681B687F
:1034D0001C210A435A60C0467B681B689A687B6857
:1034E0001B6804210A439A6003E00F23FB180222A1
:1034F0001A700F23FB181B781800BD4605B090BD4D
:10350000FEF0FFFFB0B584B000AF78600F23FB186A
:1035100000221A707B6834229B5C012B01D10223AC
:1035200033E07B683422012199540F257C197B6894
:10353000180000F008FB0300237028003B181B78DC
:10354000002B1BD17B681B685A687B681B681C2199
:103550008A435A6005003C187B68180000F082FA24
:10356000030023707B191B78002B07D17B689B6BB2
:10357000084A134001221A437B689A637B6834220D
:10358000002199540F23FB181B781800BD4604B086
:10359000B0BDC046FEFEFFFF80B582B000AF7860D0
:1035A0007B681B681B6C1800BD4602B080BD000024
:1035B00080B582B000AF78607B681B681B6804220E
:1035C0001340042B06D17B681B685B680422134000
:1035D000042B0DD07B681B681B6808221340082B46
:1035E0004FD17B681B685B6808221340082B48D1C9
:1035F0007B689B6B1022134006D17B689B6B8022FB
:1036000092001A437B689A637B681B68DA68C02360
:103610001B0113402DD17B689B7E002B29D17B6839
:103620001B681B6808221340082B22D17B681B688B
:103630009B680422134010D17B681B685A687B6822
:103640001B680C218A435A607B689B6B334A13408A
:1036500001221A437B689A630BE07B689B6B2022F4
:103660001A437B689A637B68DB6B01221A437B6891
:10367000DA637B681800FEF7DFF87B681B680C22B2
:103680001A607B681B681B6880221340802B15D151
:103690007B681B685B6880221340802B0ED17B689F
:1036A0009B6B802252021A437B689A637B681800E6
:1036B00000F036F87B681B6880221A607B681B6804
:1036C0001B6810221340102B23D17B681B685B689A
:1036D00010221340102B1CD17B689B6A012B06D053
:1036E0007B681B68DB6801221340012B0DD17B68CE
:1036F000DB6B02221A437B68DA637B681B6810224B
:103700001A607B68180000F013F87B681B681022B1
:103710001A60C046BD4602B080BDC046FEFEFFFF37
:1037200080B582B000AF7860C046BD4602B080BDB3
:1037300080B582B000AF7860C046BD4602B080BDA3
:1037400080B584B000AF786039600F23FB18002289
:103750001A700023BB607B68DA6A80235B059A429B
:1037600011D07B68DB6A012B0DD07B68DB6A022BF2
:1037700009D07B68DB6A032B05D07B68DB6A042BEE
:1037800001D07B68DB6A7B6834229B5C012B01D112
:103790000223D0E07B683422012199547B681B68A6
:1037A0009B680422134000D0B4E03B685B68644A25
:1037B000934200D182E07B681B68996A3B681B6872
:1037C00001229A407B681B680A439A627B68DA6A26
:1037D00080235B059A4237D07B68DB6A012B33D0AC
:1037E0007B68DB6A022B2FD07B68DB6A032B2BD034
:1037F0007B68DB6A042B27D07B68DB6A052B23D030
:103800007B68DB6A062B1FD07B68DB6A072B1BD02B
:103810003B689A687B681B685B6907210B409A428A
:1038200012D07B681B685A697B681B6807218A4332
:103830005A617B681B6859693B689B6807221A407C
:103840007B681B680A435A613B681B68102B07D0D2
:103850003B681B68112B03D03B681B68122B63D19C
:10386000384B19683B681B68102B09D03B681B68F4
:10387000112B02D18023DB0304E080235B0401E0F1
:1038800080231B042F4A0B4313603B681B68102BDB
:103890004AD12D4B1B682D491800FCF73DFC030055
:1038A0001A0013009B009B185B00BB6002E0BB6822
:1038B000013BBB60BB68002BF9D135E07B681B681E
:1038C0009A6A3B681B68012199400B00D9437B68C9
:1038D0001B680A409A623B681B68102B07D03B6844
:1038E0001B68112B03D03B681B68122B1CD1154B96
:1038F00019683B681B68102B07D03B681B68112BAD
:1039000001D1134B02E0134B00E0134B0D4A0B4067
:10391000136009E07B689B6B20221A437B689A63E3
:103920000F23FB1801221A707B683422002199545E
:103930000F23FB181B781800BD4604B080BDC0469D
:1039400001100000082701400400002040420F0041
:10395000FFFFBFFFFFFFFFFEFFFF7FFF80B584B0CB
:1039600000AF78600023FB600023BB607B681B68AE
:103970009B6803221340012B12D17B681B681B68D4
:1039800001221340012B09D07B681B68DA68802371
:103990001B021A4080231B029A4201D1012300E03E
:1039A0000023002B52D17B681B689B682A4A134076
:1039B0000DD07B689B6B10221A437B689A637B68EF
:1039C000DB6B01221A437B68DA6301233FE07B68EB
:1039D0001B689A687B681B6801210A439A601F4B29
:1039E0001B681F491800FCF797FB0300BB6002E04F
:1039F000BB68013BBB60BB68002BF9D1FFF762FBE2
:103A00000300FB601BE0FFF75DFB0200FB68D31ABD
:103A1000022B14D97B681B681B6801221340012B01
:103A20000DD07B689B6B10221A437B689A637B687E
:103A3000DB6B01221A437B68DA63012307E07B68B2
:103A40001B681B6801221340012BDCD100231800E6
:103A5000BD4604B080BDC0461700008004000020B1
:103A600040420F0080B584B000AF78600023FB6057
:103A70007B681B689B6803221340012B12D17B6873
:103A80001B681B6801221340012B09D07B681B684F
:103A9000DA6880231B021A4080231B029A4201D15C
:103AA000012300E00023002B48D07B681B689B6843
:103AB00005221340012B10D17B681B689A687B6834
:103AC0001B6802210A439A607B681B6803221A6004
:103AD000FFF7F8FA0300FB6029E07B689B6B10227C
:103AE0001A437B689A637B68DB6B01221A437B680D
:103AF000DA63012323E0FFF7E5FA0200FB68D31A3B
:103B0000022B14D97B681B689B6801221340012B90
:103B10000DD17B689B6B10221A437B689A637B688C
:103B2000DB6B01221A437B68DA63012307E07B68C1
:103B30001B689B6801221340012BDCD00023180076
:103B4000BD4604B080BD80B584B000AF786000236E
:103B5000FB607B681B689B68042213403AD07B683B
:103B60001B689B6804221340042B0DD17B681B68E3
:103B70009B680222134007D17B681B689A687B68A8
:103B80001B6810210A439A60FFF79CFA0300FB6050
:103B90001AE0FFF797FA0200FB68D31A022B13D939
:103BA0007B681B689B68042213400DD07B689B6B6D
:103BB00010221A437B689A637B68DB6B01221A43ED
:103BC0007B68DA63012306E07B681B689B6804223C
:103BD0001340DED100231800BD4604B080BD0000B4
:103BE00080B582B000AF0200FB1D1A70FB1D1B7870
:103BF0007F2B09D8FB1D1B781A001F231A40044B8A
:103C0000012191400A001A60C046BD4602B080BD45
:103C100000E100E090B583B000AF02003960FB1D09
:103C20001A70FB1D1B787F2B28D82F4AFB1D1B7891
:103C30005BB29B08C0339B009B58FA1D12781100A1
:103C400003220A40D200FF2191400A00D2431A40C9
:103C500011003B689B01FF221A40FB1D1B781800D6
:103C600003230340DB009A401F48FB1D1B785BB217
:103C70009B080A43C0339B001A5031E01B4AFB1DCE
:103C80001B7819000F230B40083B9B0806339B0051
:103C9000D31804331B68FA1D1278110003220A405E
:103CA000D200FF2191400A00D2431A4011003B6824
:103CB0009B01FF221A40FB1D1B78180003230340C1
:103CC000DB009A400948FB1D1B781C000F23234092
:103CD000083B9B080A4306339B00C31804331A6051
:103CE000C046BD4603B090BD00E100E000ED00E03D
:103CF00080B582B000AF78607B685A1E80235B0479
:103D00009A4201D3012310E00A4B7A68013A5A60C3
:103D100001235B4203211800FFF77CFF054B0022C3
:103D20009A60044B07221A6000231800BD4602B0B7
:103D300080BDC04610E000E080B584B000AFB9603F
:103D40007A600F217B18021C1A70BA687B181B78E6
:103D50005BB211001800FFF75DFFC046BD4604B01E
:103D600080BD80B582B000AF0200FB1D1A70FB1D44
:103D70001B785BB21800FFF733FFC046BD4602B0A8
:103D800080BD80B582B000AF78607B681800FFF717
:103D9000AFFF03001800BD4602B080BD80B582B001
:103DA00000AF78607B68002B01D1012315E07B68B0
:103DB0001B79DBB2002B06D17B6800225A717B682D
:103DC0001800FFF737F87B6802221A717B6800221F
:103DD0001A617B6801221A7100231800BD4602B0E7
:103DE00080BD80B586B000AFF860B9607A603B6096
:103DF00000237B61FB681B687B61BB68002B05D1DE
:103E00007A697B68D31808337B6104E07A697B6840
:103E1000D31814337B617B693A681A600023180059
:103E2000BD4606B080BD000080B586B000AFF8602A
:103E3000B9607A6000237B6100233B61FB685B799A
:103E4000012B01D1022329E0FB6801225A71FB6892
:103E500002221A71FB681B681B687B61114A7B6830
:103E60009A401300DA437B6913407B61BB681A6890
:103E7000BB685B6813433B613A697B689A401300F7
:103E80007A6913437B61FB681B687A691A60FB6877
:103E900001221A71FB6800225A7100231800BD46E6
:103EA00006B080BDFE0F000080B582B000AF786024
:103EB00039607B685B79012B01D102233BE07B6891
:103EC00001225A717B6802221A717B681B6819688B
:103ED00001223B689A407B681B680A431A603B6872
:103EE000002B0FD17B681B681B683C2213403C2BC6
:103EF0001AD17B681B685A687B681B6801210A43DA
:103F00005A6011E07B681B681A68F0239B031A4013
:103F1000F0239B039A4207D17B681B685A687B6831
:103F20001B6802210A435A607B6801221A717B6870
:103F300000225A7100231800BD4602B080BD000067
:103F4000F0B587B000AFF860B9603A607B601723C6
:103F5000FB1801221A701623FB1800221A70152371
:103F6000FB1800221A703E4B1B7E012B01D102234D
:103F700072E03B4B01221A761723FE18394B1800CA
:103F800000F0C4F8030033701723FB181B78002BD4
:103F90005CD1FB68012B04D11523FB1801221A7098
:103FA0000BE0FB68022B04D11523FB1802221A70C8
:103FB00003E01523FB1804221A701623FB180022B5
:103FC0001A7039E016217B181B785A00BB68D0188C
:103FD0007B181B781B011A00203A002A03DB796842
:103FE000D1400C0008E02022D21A796891400A00E2
:103FF0003968D9400C0014437A68DA401500A3B23E
:10400000190000F067F81723FE18164B180000F08F
:104010007DF803003370144B1A69134B01218A4356
:104020001A611723FB181B78002B0ED116217B1861
:104030001A787B1801321A701623FA181523FB1808
:1040400012781B789A42BDD300E0C046044B002290
:104050001A761723FB181B781800BD4607B0F0BD71
:104060005005002050C300000020024080B582B0FF
:1040700000AFFB1D00221A700C4B1B6980221340FD
:104080000DD00A4B0A4A5A60084B0A4A5A60074B3D
:104090001B698022134002D0FB1D01221A70FB1DF8
:1040A0001B781800BD4602B080BDC046002002400B
:1040B00023016745AB89EFCD80B500AF044B1A698A
:1040C000034B80210A431A6100231800BD4680BDBE
:1040D0000020024080B582B000AF78600A00BB1CAF
:1040E0001A80084B0022DA61074B1A69064B01213E
:1040F0000A431A617B68BA1C12881A80C046BD4602
:1041000002B080BD500500200020024080B584B080
:1041100000AF7860FEF7D6FF0300FB600FE07B681E
:1041200001330CD07B68002B07D0FEF7CBFF0200D9
:10413000FB68D31A7A689A4201D203231FE0124B1C
:10414000DB6801221340012BE9D00F4BDB682022F2
:104150001340202B02D10C4B2022DA600A4BDB6883
:1041600010221340102B05D0074BDB6804221340AC
:10417000042B03D100F00AF8012300E0002318000B
:10418000BD4604B080BDC0460020024080B582B06C
:1041900000AF00237B60134BDB6810221340102B11
:1041A00009D1114BDB6902221A430F4BDA617B689C
:1041B000102213437B600B4BDB6804221340042B5B
:1041C00009D1094BDB6901221A43074BDA617B688D
:1041D000042213437B60034B7A68DA60C046BD4615
:1041E00002B080BD0020024050050020B0B584B070
:1041F00000AF786039600F23FB1801221A7000238A
:10420000BB60324B1B7E012B01D102235AE02F4BA6
:1042100001221A767B681B68012B16D12C4B1800E3
:10422000FFF774FF031E47D100F056F80F23FC1868
:10423000274B1800FFF76AFF03002370254B1A690C
:10424000244B04218A431A6136E0214B1800FFF702
:104250005DFF031E30D13B68012252421A607B6829
:104260005B68BB601FE0BB68180000F04DF80F25CD
:104270007C19174B1800FFF749FF03002370154BFB
:104280001A69144B02218A431A617B191B78002B8F
:1042900003D03B68BA681A600EE0BB688022120146
:1042A00094466344BB607B689B68DA027B685B680A
:1042B000D318BA689A42D6D3044B00221A760F2339
:1042C000FB181B781800BD4604B0B0BD5005002097
:1042D00050C300000020024080B500AF084B002210
:1042E000DA61084B1A69074B04210A431A61054B2E
:1042F0001A69044B40210A431A61C046BD4680BD7D
:10430000500500200020024080B582B000AF7860E8
:104310000A4B0022DA610A4B1A69094B02210A434F
:104320001A61074B7A685A61054B1A69044B4021A0
:104330000A431A61C046BD4602B080BD5005002048
:104340000020024080B586B000AF7860396000235D
:104350007B6155E13B681B6801217A6991400A0045
:104360001340FB60FB68002B00D146E13B685B68B3
:1043700003221340012B05D03B685B6803221340E6
:10438000022B30D17B689B683B617B695B00032219
:104390009A401300DA433B6913403B613B68DA689B
:1043A0007B695B009A4013003A6913433B617B6869
:1043B0003A699A607B685B683B6101227B699A403D
:1043C0001300DA433B6913403B613B685B681B09A0
:1043D00001221A407B699A4013003A6913433B61FA
:1043E0007B683A695A603B685B6803221340032B81
:1043F00017D07B68DB683B617B695B0003229A40D6
:104400001300DA433B6913403B613B689A687B6960
:104410005B009A4013003A6913433B617B683A6939
:10442000DA603B685B6803221340022B23D17B696F
:10443000DA087B6808329200D3583B617B69072217
:1044400013409B000F229A401300DA433B6913404C
:104450003B613B681A697B6907210B409B009A40CE
:1044600013003A6913433B617B69DA087B680832C1
:1044700092003969D1507B681B683B617B695B00A6
:1044800003229A401300DA433B6913403B613B68C7
:104490005B6803221A407B695B009A4013003A690B
:1044A00013433B617B683A691A603B685A68C023D2
:1044B0009B02134000D1A0E0574B9A69564B012153
:1044C0000A439A61544B9B6901221340BB60BB684D
:1044D000524A7B699B0802339B009B583B617B6976
:1044E000032213409B000F229A401300DA433B69DA
:1044F00013403B617A689023DB059A4219D07B68B0
:10450000474A934213D07B68464A93420DD07B685A
:10451000454A934207D07B68444A934201D1042321
:1045200008E0052306E0032304E0022302E0012360
:1045300000E000237A6903210A40920093403A691F
:1045400013433B6135497B699B0802339B003A6901
:104550005A50374B1B683B61FB68DA433B69134099
:104560003B613B685A6880235B02134003D03A6981
:10457000FB6813433B612E4B3A691A602C4B5B6816
:104580003B61FB68DA433B6913403B613B685A6817
:1045900080239B02134003D03A69FB6813433B61BD
:1045A000234B3A695A60224B9B683B61FB68DA43B4
:1045B0003B6913403B613B685A6880235B031340AF
:1045C00003D03A69FB6813433B61194B3A699A601F
:1045D000174BDB683B61FB68DA433B6913403B6187
:1045E0003B685A6880239B03134003D03A69FB68F9
:1045F00013433B610E4B3A69DA607B6901337B619F
:104600003B681A687B69DA40131E00D0A2E6C046F8
:10461000C046BD4606B080BD00100240000001400B
:104620000004004800080048000C00480010004842
:104630000004014080B584B000AF78600A00BB1C64
:104640001A807B681B69BA1C1288134004D00F23A0
:10465000FB1801221A7003E00F23FB1800221A70C6
:104660000F23FB181B781800BD4604B080BD80B531
:1046700082B000AF786008001100BB1C021C1A80D9
:104680007B1C0A1C1A707B1C1B78002B04D0BB1CE3
:104690001A887B689A6103E0BB1C1A887B689A625F
:1046A000C046BD4602B080BDF0B58BB006AF7860A5
:1046B0007B68002B01D10123FFE07B68814A9B5C72
:1046C000DBB2002B08D17A68AA239B000021D154C9
:1046D0007B68180007F002F87B687A4A0321995436
:1046E0007B681B68180003F0E9F80F23FB18002211
:1046F0001A7058E00F203B181B7879685A1C130079
:104700009B009B18DB00CB18013301221A703B1869
:104710001B7879685A1C13009B009B18DB003A1821
:1047200012785A5404003B181A783B191B7898B237
:10473000796813009B009B18DB00CB183633021CF2
:104740001A803B191B7879685A1C13009B009B1830
:10475000DB00CB18033300221A703B191A787968F2
:1047600013009B009B18DB00CB18383300221A6023
:104770003B191A78796813009B009B18DB00CB1853
:104780003C3300221A603B191A78796813009B00A9
:104790009B18DB00CB18403300221A603B191A78B3
:1047A0003B1901321A700F217B181A787B685B68FD
:1047B0009A429FD37B1800221A7056E00F243B19AF
:1047C0001A7878686A23FF33190013009B009B183E
:1047D000DB00C3185B1800221A703B191A7878683E
:1047E000B423590013009B009B18DB00C3185B180F
:1047F0003A1912781A703B191A7878686C23FF33CB
:10480000190013009B009B18DB00C3185B180022E3
:104810001A703B191A787868BC23590013009B0062
:104820009B18DB00C3185B1800221A603B191A782A
:104830007868BE23590013009B009B18DB00C31847
:104840005B1800221A603B191A787868C023590057
:1048500013009B009B18DB00C3185B1800221A6032
:104860003B191A783B1901321A700F23FB181A787A
:104870007B685B689A42A1D37B6818687B686A464C
:1048800011001A00103270CA70C130CA30C15968A4
:104890009A68DB6803F02CF87B6824220021995485
:1048A0007B68084A012199547B68DB69012B03D19D
:1048B0007B68180001F034FD00231800BD4605B0E8
:1048C000F0BDC046A902000080B582B000AF78609C
:1048D0007A68AA239B00D35C012B01D1022314E048
:1048E0007A68AA239B000121D1547B681B681800B9
:1048F00002F0CEFF7B681B68180004F029FF7A687D
:10490000AA239B000021D15400231800BD4602B009
:1049100080BD000080B582B000AF78607B681B6806
:10492000180004F02BFF020080231B021A40802392
:104930001B029A4203D17B68180000F0BBFB7B6826
:104940001B68180004F01AFF02008023DB001A40E5
:104950008023DB009A4214D17B681B6844229B5A57
:104960009AB27B681B68A2490A4091B244229952CC
:104970007B68180006F03DFF7B680021180000F0FE
:1049800045F97B681B68180004F0F8FE02008023DC
:10499000DB011A408023DB019A420BD17B681B6844
:1049A00044229B5A9AB27B681B6892490A4091B292
:1049B000442299527B681B68180004F0DFFE020055
:1049C00080239B011A4080239B019A420BD17B6874
:1049D0001B6844229B5A9AB27B681B6886490A402E
:1049E00091B2442299527B681B68180004F0C6FEFD
:1049F000020080235B011A4080235B019A4237D179
:104A00007B681B6840229B5A9AB27B681B68042112
:104A10008A4391B2402299527B681B6840229B5A7C
:104A20009AB27B681B6808218A4391B2402299524E
:104A30007A68B8239B00D35C012B09D17A68B8232C
:104A40009B000021D1547B680021180001F092FCEA
:104A50007B68180006F00EFF7B681B6844229B5A97
:104A60009AB27B681B6865490A4091B24422995208
:104A70007B681B68180004F081FE020080231B0184
:104A80001A4080231B019A4227D17B681B68402271
:104A90009B5A9AB27B681B6808210A4391B2402254
:104AA00099527B681B6844229B5A9AB27B681B68A8
:104AB00053490A4091B2442299527B681B684022B4
:104AC0009B5A9AB27B681B6804210A4391B2402228
:104AD00099527B68180006F0B1FE7B681B681800CD
:104AE00004F04CFE030080221340802B45D17B68EC
:104AF0001B6844229B5A9AB27B681B6880218A43B8
:104B000091B2442299527A68B8239B00D35C002B5F
:104B10002FD17B681B6840229B5A9AB27B681B6826
:104B200004210A4391B2402299527B681B684022BB
:104B30009B5A9AB27B681B6808210A4391B24022B3
:104B400099527A68B8239B000121D1547B681B6875
:104B500054229B5A9BB29B083C22134019007A684E
:104B6000B9239B00D1507B680121180001F002FCA1
:104B700003E07B68180006F061FE7B681B68180084
:104B800004F0FCFD020080239B001A4080239B0060
:104B90009A420FD17B681B6844229B5A9AB27B6869
:104BA0001B6818490A4091B2442299527B68180048
:104BB00006F010FE7B681B68180004F0DFFD0200A1
:104BC00080235B001A4080235B009A420BD17B68F4
:104BD0001B6844229B5A9AB27B681B680A490A40A8
:104BE00091B244229952C046BD4602B080BDC04633
:104BF000FFFBFFFFFFBFFFFFFFDFFFFFFFEFFFFF39
:104C0000FFF7FFFFFFFDFFFFFFFEFFFF80B582B054
:104C100000AF78600A00FB1C1A707A68AA239B0018
:104C2000D35C012B01D1022317E07A68AA239B00F1
:104C30000121D1547B68FA1C242112785A547B68D4
:104C40001A68FB1C1B781900100004F06DFD7A68CF
:104C5000AA239B000021D15400231800BD4602B0B6
:104C600080BD90B585B000AF78600C0010001900D1
:104C7000FB1C221C1A703B00021C1A80BB1C0A1C65
:104C80001A700B23FB1800221A70FB1C1B785BB2F6
:104C9000002B0FDAFB1C1B78072213405A1C130051
:104CA0009B009B18DB007A68D318FB60FB6801222D
:104CB0005A700FE0FB1C1B7807221A4013009B0060
:104CC0009B18DB006933FF337A68D318FB60FB68FD
:104CD00000225A70FB1C1B7807221340DAB2FB68D3
:104CE0001A703B001A88FB681A61FB68BA1C1278BC
:104CF000DA70FB685B78002B04D0FB681B789AB2F3
:104D0000FB68DA81BB1C1B78022B02D1FB680022F6
:104D10001A717A68AA239B00D35C012B01D102236C
:104D200013E07A68AA239B000121D1547B681B6899
:104D3000FA681100180002F007FE7A68AA239B00A7
:104D40000021D1540B23FB181B781800BD4605B079
:104D500090BD80B584B000AF78600A00FB1C1A706B
:104D6000FB1C1B785BB2002B0FDAFB1C1B780722A5
:104D700013405A1C13009B009B18DB007A68D31861
:104D8000FB60FB6801225A700FE0FB1C1B780722B6
:104D90001A4013009B009B18DB006933FF337A68CD
:104DA000D318FB60FB6800225A70FB1C1B7807229B
:104DB0001340DAB2FB681A707A68AA239B00D35CAE
:104DC000012B01D1022311E07A68AA239B00012163
:104DD000D1547B681B68FA681100180003F028F9A9
:104DE0007A68AA239B000021D15400231800BD46F5
:104DF00004B080BD80B586B000AFF8607A603B60DB
:104E00000B203B180A1C1A7001007B181B78072224
:104E10001A4013009B009B18DB006933FF33FA68CC
:104E2000D3187B617B697A685A617B693A689A61B9
:104E30007B690022DA617B6900225A707B181B783B
:104E400007221340DAB27B691A707B181B7807229D
:104E5000134007D1FB681B687A691100180003F042
:104E6000A7FA06E0FB681B687A691100180003F0D6
:104E70009FFA00231800BD4606B080BD80B582B001
:104E800000AF78600A00FB1C1A70FB1C1B7807221D
:104E90001A407868C223590013009B009B18DB005E
:104EA000C3185B181B681800BD4602B080BD80B5F2
:104EB00086B000AFF8607A603B600B203B180A1C9C
:104EC0001A703B181B78072213405A1C13009B00D2
:104ED0009B18DB00FA68D3187B617B697A685A619A
:104EE0007B693A689A617B692422012199547B6924
:104EF0003A681A627B690022DA617B6901225A7082
:104F00003B181B7807221340DAB27B691A703B18F2
:104F10001B780722134007D1FB681B687A691100D0
:104F2000180003F045FA06E0FB681B687A69110077
:104F3000180003F03DFA00231800BD4606B080BDFE
:104F400080B584B000AF78600A00FB1C1A70FB1CAF
:104F50001B7807221A407B685B689A4201D90123BB
:104F600046E0FB1C1B785BB2002B0FDAFB1C1B78A6
:104F7000072213405A1C13009B009B18DB007A6821
:104F8000D318FB60FB6801225A700DE0FB1C1A78F5
:104F900013009B009B18DB006933FF337A68D3183A
:104FA000FB60FB6800225A70FB6801229A70FB1CB0
:104FB0001B7807221340DAB2FB681A707A68AA23BA
:104FC0009B00D35C012B01D1022311E07A68AA2354
:104FD0009B000121D1547B681B68FA6811001800FE
:104FE00004F0A0FA7A68AA239B000021D154002380
:104FF0001800BD4604B080BD80B584B000AF7860B5
:105000000A00FB1C1A70FB1C1B780F221A407B68DD
:105010005B689A4201D9012348E0FB1C1B785BB214
:10502000002B0FDAFB1C1B78072213405A1C1300BD
:105030009B009B18DB007A68D318FB60FB68012299
:105040005A700FE0FB1C1B7807221A4013009B00CC
:105050009B18DB006933FF337A68D318FB60FB6869
:1050600000225A70FB6800229A70FB1C1B780722F2
:105070001340DAB2FB681A707A68AA239B00D35CEB
:10508000012B01D1022311E07A68AA239B000121A0
:10509000D1547B681B68FA681100180004F092FA7A
:1050A0007A68AA239B000021D15400231800BD4632
:1050B00004B080BDB0B596B000AF786000F0D8FB0A
:1050C0007B681A6856203B184421525A1A803B18B4
:1050D0001B88DAB255243B190F210A401A703B197C
:1050E0001B78002B00D079E13B181B88102213405D
:1050F00054D17B681B681B889AB20E203B18AF49BD
:105100000A401A807B681B683A181288AC490A4327
:1051100092B21A807B682833FB647B681B6850223C
:105120009B5A9BB21A00FB6C1B78DB00D2187B6881
:105130001B68D318A34A944663441B889B059A0DA9
:10514000FB6CDA61FB6C5A69FB6CDB69D218FB6C97
:105150005A617B680021180006F01EFB7B68242240
:105160009B5CDBB2002B01D100F082FBFB6C9B69E6
:10517000002B01D000F07CFB7B6824229B5CDBB21F
:10518000802252421343DAB27B681B6891B24C22F0
:1051900099527B6824220021995469E37B68693322
:1051A000FF33FB647B681A6852217B1812881A80CF
:1051B0007B181A8880231B01134037D07B681B683B
:1051C00050229B5A9BB21A00FB6C1B78DB00D21852
:1051D0007B681B68D3187C4A944663441B889B05F4
:1051E0009A0DFB6CDA617B6818687B68AC229200D0
:1051F0009918FB6CDA88FB6CDB699BB204F010FB3E
:105200007B681B681B889AB210203B186F490A40C4
:105210001A807B681B683A18128880210A4392B270
:105220001A807B68180006F081FA21E35223FB18EC
:1052300000229B5E002B00DB1AE37B681B681B8847
:105240009AB21E203B1861490A401A807B681B688D
:105250003A18128880210A4392B21A807B681B6830
:1052600050229B5A9BB21A00FB6C1B78DB00D218B1
:105270007B681B68D318544A944663441B889B057B
:105280009A0DFB6CDA61FB6CDB69002B1AD0FB6CAE
:105290005B69002B16D07B681868FB6C5969FB6C46
:1052A000DA88FB6CDB699BB204F0BAFAFB6C5A69D2
:1052B000FB6CDB69D218FB6C5A617B68002118001B
:1052C00006F049FA7B681B681B889BB21A00802392
:1052D0001B01134000D0CBE27B681B68BB617B687D
:1052E0001B6850229B5A9BB21A00BB699B18BB617A
:1052F000BB69354A944663447B61FB6C1B69002B98
:1053000010D17B691B889BB2314A13409AB27B69EA
:105310001A807B691B889BB2294A13439AB27B6926
:105320001A802BE0FB6C1B693E2B12D8FB6C1B69AF
:105330005B087B64FB6C1B690122134002D07B6C11
:1053400001337B647B6C9BB29B029AB27B691A80AF
:1053500014E0FB6C1B695B097B64FB6C1B691F22FF
:10536000134002D17B6C013B7B647B6C9BB29B0244
:105370009BB2134A13439AB27B691A807B681B68FD
:105380001B889AB212203B1812490A401A803B1817
:105390003A181288802149014A401A803B183A186D
:1053A0001288802189014A401A807B681B683A185C
:1053B000128809490A4392B21A8059E20F8FFFFFFF
:1053C0000080FFFF02040000060400008F0F0000B1
:1053D000FF83FFFF8FBFFFFF8080FFFF7B681B689D
:1053E0001A0055203B181B789B00D21852217B18BD
:1053F00012881A807B1800229B5E002B00DBFAE0EB
:105400007B681B681A003B181B789B00D3181B880D
:105410009AB250243B19CF490A401A807B681B6816
:105420001A003B181B789B00D3183A191288802168
:105430000A4392B21A803B181A7813009B009B18FB
:10544000DB006933FF337A68D318FB64FB6C1B7B8A
:10545000002B25D17B681B6850229B5A9BB21A00F7
:10546000FB6C1B78DB00D2187B681B68D318BA4A28
:10547000944663441A8848243B199205920D1A8079
:105480003B191B88002B00D18DE07B681868FB6CF2
:105490005969FB6CDA883B191B8804F0C1F982E07A
:1054A000FB6CDB78022B0CD14823FC185223FB1831
:1054B0001A88F96C7B68180000F0EEF9030023806D
:1054C00071E07B681B681A00FB6C1B789B00D3188B
:1054D0001B889AB24A203B18A0490A401A807B6870
:1054E0001B681A00FB6C1B789B00D3183A181288B3
:1054F0009B490A4392B21A807B681B681A00FB6CB6
:105500001B789B00D3181B889BB21A008023DB01F9
:10551000134024D07B681B6850229B5A9BB21A0010
:10552000FB6C1B78DB00D2187B681B68D3188D4A94
:10553000944663441A8848243B199205920D1A80B8
:105540003B191B88002B2ED07B681868FB6C5969AF
:10555000FB6C1A893B191B8804F062F923E07B6815
:105560001B6850229B5A9BB21A00FB6C1B78DB0015
:10557000D2187B681B68D318774A944663441A880C
:1055800048243B199205920D1A803B191B88002B69
:1055900009D07B681868FB6C5969FB6C5A893B1908
:1055A0001B8804F03DF9FB6CDA6948217B181B88E5
:1055B000D218FB6CDA61FB6C5A697B181B88D21815
:1055C000FB6C5A61FB6C9B69002B05D07B181A8819
:1055D000FB6C1B699A4207D2FB6C1A787B6811003E
:1055E000180006F0B8F806E07B681B68FA6C11003A
:1055F000180002F0DDFE52243B191B888022134064
:1056000000D135E155203B181B785A1C13009B0034
:105610009B18DB007A68D318FB647B681B681A0050
:105620003B181B789B00D3181B889AB242257B1924
:105630004D490A401A807B681B681A003B181B788A
:105640009B00D3187A19128848490A4392B21A80EB
:10565000FB6CDB78022B00D1ADE0FB6C00229A6181
:105660003B191B884022134046D0FB6C5B78002B13
:1056700025D17B681B687B627B681B6850229B5A24
:105680009BB21A007B6A9B187B62FB6C1B78DA006A
:105690007B6AD318334A944663443B623B6A1B8857
:1056A0009BB2334A13409AB23B6A1A803B6A1B880A
:1056B0009BB22E4A13439AB23B6A1A8073E0FB6C8A
:1056C0005B78012B6FD17B681B68FB627B681B6872
:1056D00050229B5A9BB21A00FB6A9B18FB62FB6C20
:1056E0001B78DA00FB6AD3181E4A94466344BB62F7
:1056F000BB6A00221A8056E07B681B68FB63FB6C68
:105700005B78002B36D17B681B687B637B681B68EA
:1057100050229B5A9BB21A007B6B9B187B63FB6CDD
:105720001B78DA007B6BD3180B4A944663443B63C7
:105730003B6B1B889BB20E4A13409AB23B6B1A809C
:105740003B6B1B889BB2094A13439AB23B6B1A808E
:1057500029E0C0468F0F0000060400008F8FFFFF76
:10576000C080FFFF020400000F8FFFFF0080FFFFDB
:10577000FF83FFFFFB6C5B78012B14D17B681B68F8
:1057800050229B5A9BB21A00FB6B9B18FB63FB6C6D
:105790001B78DA00FB6BD3183D4A94466344BB6325
:1057A000BB6B00221A80FB6C1A787B681100180012
:1057B00005F0F2FF5CE0FB6CDB78022B50D152234A
:1057C000FB181A8880235B00134049D17B681B6853
:1057D00050229B5A9BB21A00FB6C1B78DB00D2183C
:1057E0007B681B68D3182B4A944663441A8840216F
:1057F0007B189205920D1A80FB6C9A697B181B88A6
:105800009A4207D9FB6C9A697B181B88D21AFB6CE9
:105810009A6102E0FB6C00229A61FB6C9B69002B91
:1058200007D1FB6C1A787B681100180005F0B4FFF3
:105830001EE0FB6C5A6940217B181B88D218FB6C58
:105840005A61FB6CDA697B181B88D218FB6CDA6131
:105850007B681B68FA6C1100180002F0A9FD07E0D4
:105860005223FB181A88F96C7B68180000F030F995
:105870007B681B6844229B5A9BB21BB2002B01DA47
:10588000FFF71EFC00231800BD4616B0B0BDC04691
:10589000060400000204000090B589B000AFF86073
:1058A000B960BB1D1A80BB1D1A888023DB01134021
:1058B00000D17DE0FB681B6850229B5A9BB21A0006
:1058C000BB681B78DB00D218FB681B68D3187A4AC8
:1058D000944663441A881A217B189205920D1A8007
:1058E000BB689A697B181B889A4207D3BB689A6980
:1058F0007B181B88D21ABB689A6102E0BB68002241
:105900009A61BB689B69002B21D1FB681B681A0058
:10591000BB681B789B00D3181B889AB218203B18D1
:1059200066490A401A803B183A181288802189017A
:105930004A401A80FB681B681A00BB681B789B00F2
:10594000D3183A1812885E490A4392B21A80BB1DD6
:105950001B88402213401AD0FB681B681A00BB68E2
:105960001B789B00D3181B889AB216203B18554908
:105970000A401A80FB681B681A00BB681B789B00F2
:10598000D3183A18128850490A4392B21A801A243E
:105990003B191B88002B00D186E0FB681868BB68A8
:1059A0005969BB681A893B191B8803F039FF7BE0F2
:1059B000FB681B6850229B5A9BB21A00BB681B787D
:1059C000DB00D218FB681B68D318404A9446634436
:1059D0001A881A217B189205920D1A80BB689A6961
:1059E0007B181B889A4207D3BB689A697B181B886F
:1059F000D21ABB689A6102E0BB6800229A61BB6858
:105A00009B69002B21D1FB681B681A00BB681B78BF
:105A10009B00D3181B889AB21E203B1827490A40C6
:105A20001A803B183A181288802189014A401A804E
:105A3000FB681B681A00BB681B789B00D3183A18D8
:105A400012881F490A4392B21A80BB1D1B8840224C
:105A500013401AD1FB681B681A00BB681B789B00B7
:105A6000D3181B889AB21C203B1816490A401A808A
:105A7000FB681B681A00BB681B789B00D3183A1898
:105A8000128811490A4392B21A801A243B191B88C2
:105A9000002B09D0FB681868BB685969BB685A8934
:105AA0003B191B8803F0BCFE1A23FB181B88180047
:105AB000BD4609B090BDC046020400008FBFFFFF85
:105AC0008080FFFF8F8FFFFFC080FFFF0604000074
:105AD00080B5A2B000AFF860B960BB1D1A80BB1DD5
