:020000040800F2
:1000000000400020014800087947000883470008A5
:1000100000000000000000000000000000000000E0
:1000200000000000000000000000000089470008F8
:100030000000000000000000934700089D470008F2
:10004000514800085148000851480008514800082C
:10005000514800085148000851480008514800081C
:10006000514800085148000851480008514800080C
:10007000AD4700085148000851480008C54700082E
:1000800051480008514800085148000851480008EC
:1000900051480008514800085148000851480008DC
:1000A00051480008514800085148000851480008CC
:1000B000514800085148000851480008DD47000831
:1000C00010B5064C2378002B07D1054B002B02D02E
:1000D000044800E000BF0123237010BDD8000020B9
:1000E0000000000074D60008044B10B5002B03D0AC
:1000F0000349044800E000BF10BDC04600000000F6
:10010000DC00002074D600080023C25C0133002A02
:10011000FBD1581E70470000002243088B4274D365
:1001200003098B425FD3030A8B4244D3030B8B42F8
:1001300028D3030C8B420DD3FF22090212BA030C01
:100140008B4202D31212090265D0030B8B4219D3E2
:1001500000E0090AC30B8B4201D3CB03C01A524102
:10016000830B8B4201D38B03C01A5241430B8B424A
:1001700001D34B03C01A5241030B8B4201D30B0333
:10018000C01A5241C30A8B4201D3CB02C01A52415A
:10019000830A8B4201D38B02C01A5241430A8B421D
:1001A00001D34B02C01A5241030A8B4201D30B0206
:1001B000C01A5241CDD2C3098B4201D3CB01C01A20
:1001C000524183098B4201D38B01C01A524143092A
:1001D0008B4201D34B01C01A524103098B4201D318
:1001E0000B01C01A5241C3088B4201D3CB00C01A85
:1001F000524183088B4201D38B00C01A52414308FD
:100200008B4201D34B00C01A5241411A00D2014621
:10021000524110467047FFE701B5002000F006F894
:1002200002BDC0460029F7D076E770477047C04648
:100230009E2110B5C905041C01F02EFF002803D132
:10024000201C00F017FC10BD9E21201CC90500F0E9
:1002500063FA00F00FFC80231B069C466044F2E723
:1002600070B500220C4B04000D0001F0DBFE0028ED
:1002700004D12000290001F023FE70BD064B0022AE
:100280002000290001F08AFA01F01AFE80231B06E3
:100290009C466044F1E7C0460000E041F0B54F469F
:1002A0004646D6464502C0B547000C1C6D0A3F0EB7
:1002B000C60F002F00D170E0FF2F00D175E0EB00DA
:1002C0008025ED041D43002399469A467F3F600236
:1002D000430A984663001B0EE40F002B4ED0FF2B01
:1002E00046D04246D0008022D204024390460022EB
:1002F0007F3B3100FF1A4B466140C9B213430F2BBD
:1003000000D9B5E06E489B00C3589F46002398462D
:100310002600454692465346022B00D189E0032B26
:1003200000D19EE0012B18D03B007F33002B69DD0C
:100330006A0704D00F222A40042A00D004352A017B
:1003400003D5604B1D403B008033FE2B00DD70E089
:10035000AD016D0AD8B202E00E0000200025C005F4
:100360002843F6073043E0BCBA46B146A846F0BD84
:100370004346002B3FD10222FF3F03E04346002BC0
:100380002DD1012231004B466140C9B213430F2BDE
:1003900034D84D489B00C3589F46002D13D10423E9
:1003A0009946033B00279A4691E7002D05D1082383
:1003B0009946063BFF279A4689E70C239946093B55
:1003C000FF279A4683E7280001F070FE7627431F37
:1003D0009D4000237F4299469A463F1A77E7404660
:1003E00001F064FE4246431F9A4076235B429046EA
:1003F0001B1A00227DE7FF2303227AE70E00FF206D
:100400000025ACE70120C01A1B28A6DC9E372A0075
:10041000BD40C2406B1E9D4115436B0704D00F23A6
:100420002B40042B00D004356B0144D5012000255E
:1004300095E7FF20002592E780250026FF20ED03A9
:100440008DE7002398468020C003054209D043462B
:10045000034206D1454605436D022600FF206D0A82
:100460007DE78020C00305436D02FF206D0A76E71B
:1004700042466B015001834219D21B220025013FE5
:1004800001261C006D005B00002C01DB984201D8A6
:100490001B1A3543013A002AF3D15A1E93411D43DA
:1004A0003B007F330E00002B00DD41E7AAE71A2254
:1004B00001251B1AE4E7AD0100206D0A4FE7C04695
:1004C000F4D70008FFFFFFF734D80008F0B54F4617
:1004D0004646D64644024500C0B5640A0F1C2D0EA0
:1004E000C60F002D00D18DE0FF2D00D192E000233A
:1004F000802099469A46E400C00404437F3D780278
:10050000430A98467B001B0EFF0F002B00D170E0C2
:10051000FF2B00D186E04246D00080227F3BED18C1
:100520000023D204024390469C4631004B4679405A
:10053000681C0F2B1CD8764A9B00D3589F46390065
:100540004446E2465346022B0FD0032B00D1D7E09E
:10055000012B37D100200024C0052043C9070843E0
:10056000E0BCBA46B146A846F0BDFF200024F3E740
:10057000260C2404220C44462404240C4346270061
:100580001B0C574374435A435E4312193B0C9B1890
:100590009C4203D980225202944666443F041A04C6
:1005A0003F0CD2199401671EBC411B0C920E9B1983
:1005B00014439B011C431B0100D49BE001236208F0
:1005C0001C40144302007F32002A64DD630704D01C
:1005D0000F232340042B00D00434230103D5020051
:1005E0004C4B80321C40FE2ABFDCA401640AD0B20E
:1005F000B2E74346002B3DD14A4601331A439146A8
:100600009C4692E7002C29D104239946033B002500
:100610009A4674E7002C1BD108239946063BFF2518
:100620009A466CE74346FF35002B0BD102234A461E
:100630001A4391469C4678E753463100022B00D07E
:1006400083E792E703234A461A4391469C466CE7A8
:100650000C239946093BFF259A4650E7200001F0FC
:1006600025FD7625431F9C4000236D4299469A46FE
:100670002D1A44E7404601F019FD4246431F9A40B7
:1006800000232D1A90469C46763D4EE7802400219B
:10069000FF20E40360E701239B1A1B2B00DD59E7D1
:1006A00022009E30DA4084401300621E94411C43B5
:1006B000630704D00F232340042B00D004346301CC
:1006C0001AD50120002447E78020C003044209D046
:1006D0004346034206D14446044364023900FF20E6
:1006E000640A39E78020C003044364023100FF201C
:1006F000640A31E7280065E7A4010020640A2BE7BB
:100700008020C00304436402FF20640A24E7C0463B
:1007100074D80008FFFFFFF7F8B5CE4647464302FE
:100720005B0A4E02DA009446720A914645004A007E
:1007300080B52D0E1F00C40F120EC90FB609FF2A77
:100740005BD0012041408C4239D0A81A00285ADDE4
:10075000002A6AD0FF2D00D1D9E08022D2041643AE
:100760001B2800DCE9E001206346181A430100D48D
:10077000B4E080018709380001F098FC0538874013
:10078000854200DCCCE02D1AB5483840430704D040
:100790000F230340042B00D00430430100D4A0E019
:1007A0006A1CFE2D00D18DE08001470AD2B2D0052F
:1007B0003843E4072043C0BCB946B046F8BDA81A88
:1007C0008046002845DD002A70D0FF2D00D19EE034
:1007D0008023DB041E4343461B2B00DCD2E00120B8
:1007E000604443017AD50135FF2D6BD001239D4A2A
:1007F0000340400810401843C8E7002E20D08C4228
:1008000023D02800FF38002839D0571B002D00D0F6
:100810009DE06346002B00D1DBE07B1E012F00D161
:100820000DE1FF2F71D01F0098E0002E00D1A7E04E
:10083000421E012800D1E6E0FF2868D010008FE7B3
:1008400001204140A14200D07FE7FF204042804686
:10085000A8444046002838D0511B002D00D1AEE0FE
:10086000FF2A00D1DFE080236046DB041843844682
:100870001B2900DCD9E0012015008019B1E7FE201A
:100880006A1C104271D1002D00D0A6E06346002BF7
:1008900000D1D9E00022002E00D188E7981B430147
:1008A00000D4E1E063460C00F01A6FE7002E00D19F
:1008B000B7E00200013A012800D19CE0FF2826D0D1
:1008C000904688E7FF22002771E7FE206A1C10424D
:1008D00064D0FF2AF6D0150066447008430700D0A4
:1008E00056E7C308FF2D12D05B025F0AEAB25EE74B
:1008F0006246002A00D196E0002E08D08022D20362
:10090000134204D04846104201D10C004B46002B44
:10091000D8D08027FF031F437F02FF227F0A46E7CC
:1009200020233A00451B38000135EA405D1BA840F2
:10093000431E98410025104328E720231B1A32004C
:100940009E40C2403000431E984110430CE7FF2AEE
:10095000DBD080236046DB04184384461B2F56DD22
:1009600001200C001500301A00E763469F1B7B0135
:100970003DD4002F00D0FEE600240022002716E719
:100980000500AFE7320043464146DA4020235B1AB8
:100990009E403000431E9841104321E7002DA7D10F
:1009A0006346002B59D00022002E00D1FFE6300014
:1009B0006044430192D52A4B013518408EE76346C7
:1009C000002B47D04B1E012915D0FF292BD0190031
:1009D0004EE70C004B463D0084E76246002A8BD16F
:1009E000002E92D180270024FF22FF03DFE663461A
:1009F0000C00F71ABFE6300060440125430100D423
:100A00006CE70225F2E663460125981BAEE620233B
:100A100064466046FC40DF1BB840431E98412043BB
:100A20009FE705005EE74B4671E720236546604679
:100A3000CD40591A8840431E984128431CE763461D
:100A40000C000125F01A91E6002E95D00C004F46BF
:100A50000022ACE64B460D0044E74F460022A6E6D6
:100A6000FFFFFFFBFFFFFF7D002800D036E70024DB
:100A700000279CE641024200C30F490A0020120EE3
:100A80007E2A03DD9D2A02DD094A981870478020DE
:100A900000040143952A07DC9620821AD14048427F
:100AA000002BF3D10800F1E7963A9140F7E7C046F2
:100AB000FFFFFF7F70B5051E0ED001F0F7FA9E23F1
:100AC00004001B1A962B0CDC082801DD083CA5400D
:100AD0006D026D0AD8B201E000200025C005284350
:100AE00070BD992B09DD020029001B3291404A1E7E
:100AF00091410522121AD5400D43052C12DC290024
:100B00000C4E31406A0709D00F202840042805D038
:100B100004314A0102D59F2331401B1B89014D0A34
:100B2000D8B2DBE7621F95402900024E31406A07C8
:100B3000F4D0E9E7FFFFFFFBF0B54F464646D64647
:100B40000D000400C0B51F0011002803620F400A09
:100B500010437A00520DE3003C039146640AFA0FF9
:100B60004F0F6E0027439246B846760DED0FC90031
:100B7000954200D199E04C46341BA446002C00DC81
:100B80007CE04A46002A00D1B8E0C54A964200D12E
:100B90001CE180223C0012041443A0466246382A1D
:100BA00000DD61E11F2A00DDCCE164462022121B3A
:100BB000444694400F00A14664469140E7404C46AD
:100BC0004A1E91413C43424621436446E240801A1A
:100BD0005C1AA3429B415F42C71B3B0200D4D0E09A
:100BE0007F027F0A002F00D1FFE0380001F05EFA9B
:100BF00001000839202322005B1A8F40DA408C4024
:100C00001743B14200DAFFE0891B4B1C1F2B00DDAC
:100C1000A8E020223900D21A200094409140D84008
:100C2000621E9441DF40002601430C43630709D054
:100C30000F232340042B05D0231DA342A44164426B
:100C40003F191C003B0200D49EE0954B01369E42AA
:100C500000D1B7E0934AE40817407B0771057F0293
:100C600023433F0B4A0D12053A43ED072A43180070
:100C70001100E0BCBA46B146A846F0BD002C4BD0EE
:100C80004C46A41BA446002E00D023E104001C43C4
:100C900000D1AFE16246541E012A00D115E2804D19
:100CA000AC4500D1C8E1A4461BE14A46B21A9446BD
:100CB000002A00DCACE04A46002A43D0784A96423B
:100CC00000D1AFE180223C0012041443A0466246EA
:100CD000382A67DC1F2A00DC5FE14746203AD7400C
:100CE0006246202A05D064464022121B44469440A6
:100CF00021434A1E91410C003C4357E03A000A430D
:100D000000D105E12200013A012C00D182E1644CBE
:100D1000A4455BD0944641E7634C771C274200D042
:100D2000C4E004001C43002E00D069E1002C00D177
:100D3000BFE144460C4300D0D0E14207DB08134337
:100D4000C00829E03A000A4300D170E162466446D7
:100D5000013A012C00D1E0E0514CA44500D161E101
:100D60009446B4E73A001F39CA401100202B03D043
:100D70004022D31A9F403C43631E9C41002700261B
:100D80000C43630700D053E7B446E4087B072343D2
:100D9000F808434A94451DD06246070352053F0BAD
:100DA000520D60E744460C43621E9441E4189C4295
:100DB0009B415F423F183B02E3D5394B01369E42CF
:100DC00000D0B5E03200002700234CE74207DB08E3
:100DD0001343C0081A00024300D1E1E180273F031A
:100DE00007433F032E4A3F0B3DE7200001F05EF929
:100DF000010018311F2900DCFCE608388440270078
:100E00000024B14200DBFFE6264A761A17400DE7C0
:100E1000002A2FD04A46921B9446002E00D1ADE006
:100E20001F4A914500D10FE180221204104362460F
:100E3000382A00DD0FE11F2A00DD80E16446202210
:100E40001E00121B6746040093409440FE405A1E49
:100E50009341F84034431C43804464188C42BF41A2
:100E60007F424E464744A6E742460A4311004A1EC7
:100E70009141ADE60C4C721C224200D0A1E0020070
:100E80001A43002E00D0FAE0002A00D145E13A00D2
:100E90000A4300D046E14207DB081343C0087BE762
:100EA000FF070000FFFF7FFFFE07000047465C1AB8
:100EB000C21BA342BF417F42B94617004A46BF1A30
:100EC0003A0200D58DE023003B4300D08AE60020A3
:100ED000002561E7B44CA14500D1ADE08024240495
:100EE00020436446382C3DDC62461F2C00DDB7E011
:100EF00020251E002D1B0400AB40AC40D640D04046
:100F000042465D1EAB413443121A904623432CE007
:100F10004207DB081343C0083BE75C189C429B4137
:100F200040445B42C71801263B0200D429E7022651
:100F30009E4A63081740012214401C43FB071C43D0
:100F40007F0873E64446203AD4406246202A05D002
:100F500067464022D21B4746974039434A1E91417B
:100F6000214335E60343581E8341CC1AA142BF41B9
:100F700043467F4255464E46DF1B2EE602001A438B
:100F800000D1BDE062466446013A012C00D1E5E0A3
:100F9000854CA44558D0944649E764462022121B4C
:100FA000444694400F00A14664469140E7404C46B9
:100FB0004A1E91413C4342460C436146CA40801858
:100FC000F4E6794CA24200D1FDE6591899429B41C2
:100FD00040445F42C719FC07490816000C437F08CC
:100FE000CFE6CC1AA142BF4143467F42181A55466C
:100FF000C71BF7E5C9087B0755460B43F808C8E649
:10100000002C00D081E043460B4315D18020002501
:101010000003E3E65C1AA3429B41C71B5B42012627
:10102000FF1ADAE54207DB081343C008D2E642079D
:10103000DB081343C008ACE643464246C9085B07D9
:1010400055460B43D008C5E6434642465B07C908F0
:101050000B43D008BEE603431C00631E9C41FCE624
:101060000200203CE24014006246202A03D04025C2
:10107000AD1AA8400343581E8341234375E7002A55
:10108000E2D03A000A43CDD04207DB081343802266
:10109000C0081203104206D0FC08144203D12000FD
:1010A000CB087A0713435A0FDB005207DB081343C0
:1010B00090E643460B4300D109E743464246C90840
:1010C0005B0755460B43D00866E6CC1AA14289411E
:1010D0003F1A4942554601267F1A7EE542465C1A70
:1010E000871AA34292415242BF1A3A023DD5CC1A06
:1010F000A1428941434649421F1A55467F1A95E548
:101100007B07C9080B43F80843E64446DB080C4359
:1011100030D142071343C0085CE67B07C9080B4384
:10112000F80839E65C189C429B4140445B42C71872
:101130003B0200D425E61D4B01261F4021E604009A
:10114000203AD4406246202A04D040226646921BB0
:10115000904003435A1E93411C437EE65C188C4228
:101160008941404449424718DDE623003B4300D112
:10117000ADE606E6440723438024C008240320424A
:1011800008D04246D608264204D155463000CB0846
:1011900051070B435A0FDB00DB085207134319E6D4
:1011A0000023014A1F005EE5FF070000FFFF7FFFED
:1011B000F0B557464E464546DE46E0B58146050049
:1011C0000C03480092461F0085B0240B400DCE0F43
:1011D000002800D156E1D44B984200D172E16B0F48
:1011E000E4001C4380231B0423439846CF4BED00AF
:1011F0009B4600239946834400933C037B00504662
:10120000240B5B0DFF0F002B00D11FE1C64A934258
:1012100000D162E1C549420F8C46E40059461443AF
:10122000802263441204CB1A14439B46C200002060
:1012300033007B409A464B460F2B27D8BC499B0076
:10124000CB589F46B246009B022B16D0032B00D1F1
:101250008EE2012B00D0D9E0002300240025524665
:101260001B052343D20713432800190005B0F0BC27
:10127000BB46B246A946A046F0BD00240025AA4BB5
:10128000EDE7BA46A04615000090DCE7444500D2E1
:10129000C7E100D1C2E101235B429C462E004046DB
:1012A0000025E3442302140E1C431B0C994623041F
:1012B0001F0C1202494600920197FEF7B3FF02008D
:1012C0007A430B04310C804619438A4207D9012323
:1012D0005B429C460919E0448C4200D807E2881A18
:1012E0004946FEF79FFF09048C4631046646019A81
:1012F000090C4243030031438A4204D90919013BD6
:101300008C4200D8EDE1881A424612041A439046F6
:101310004146009B0E041B0C1F000293009B360CE1
:101320001B04190C0B007343120C7E4303915143B1
:101330007A431F0CBC4676186644B14203D980211B
:1013400049028C466244310C8A1831041E04360C62
:101350008E19904202D312D1B54210D24346591E83
:10136000009B9C4665441F009D429B415B421B19AC
:10137000C018844200D2A0E100D19BE18846AE1B98
:10138000B542AD41801A6D42401B844200D1D5E187
:101390004946FEF747FF019A0B044243310C050012
:1013A00019438A4200D96CE1881A4946FEF73AFF90
:1013B000019A360442430904360C03000E43B2423C
:1013C00000D953E10398B61A02002D041D43029F71
:1013D0002B041B0C5A437B439C46290C4843130C9B
:1013E000844463447943984203D980204002844670
:1013F0006144180C12041B04120C41189B188E42F5
:1014000000D2FFE000D1FAE001231D43494A5A44CB
:10141000002A00DCAAE06B0700D03DE1ED0843465E
:10142000DB0106D54246444B1A4090468022D2004A
:101430005A44424B9A4200DD1FE743465B071D4377
:10144000434652055C02240B530D08E752462243E3
:1014500000D17BE0002C00D1FAE0200000F026FE55
:1014600002000B3A1D2301009B1A52460839DA404C
:101470008C40144352468A40314B58449B46834427
:101480000020D5E64B462343984644D0002C00D19B
:10149000CEE0200000F00AFE010002000B391D23FF
:1014A0005B1A49461000D940083884400B004D466D
:1014B0002343984685402348831A9B460023994638
:1014C00000939AE64B46234398461DD1082399463C
:1014D000063B0025834600938FE65246224309D1FE
:1014E000022349461943184B89469C460024022092
:1014F000E3449DE603234A461A43134B91469C4618
:1015000052460320E34493E60C239946093BA04648
:101510008346009371E60423994600239B460133DA
:101520000025009369E6C046FF07000001FCFFFFAD
:10153000B4D80008FF030000FFFFFFFEFE07000015
:10154000F30300000DFCFFFF01F8FFFF49460123F4
:1015500019438946002401206AE6002380249A4624
:1015600000258A4B24037AE601256D4201239B1A4C
:10157000382B00DD70E61F2B00DCBFE01F21494245
:101580008A1A4146D1400A00202B04D04146804BA4
:101590005B4499400D436B1E9D4107232A431D0068
:1015A00000241540134200D1D4E00F210023114044
:1015B000042900D1CBE0111D9142924152429B1867
:1015C0000A00190200D4C2E001230024002546E6E7
:1015D000802341461B03194208D01C4206D11C43FC
:1015E0002403BA461500694B240B38E68024434691
:1015F00024031C432403B246644B240B2FE6002B28
:1016000000D103E7A619681EA64200D28DE08E42E3
:1016100000D2A3E000D1B3E00500F5E6AA4200D96C
:1016200039E64346DE0758086B081E43ED0739E6E6
:10163000484600F03BFD01000200153120321C2914
:1016400000DC2CE74B46083883400025984632E7FB
:1016500000F02CFD03001A00153220301C2A00DC9B
:1016600000E75446083B00229C4005E73619013B41
:10167000B44200D9A6E6B24200D8A3E6831E3619CA
:10168000A0E60919013D8C4200D98DE68A4200D8B6
:101690008AE6851E091987E60F232B40042B00D10B
:1016A000BCE605235B42AB429B4104355B42ED083F
:1016B0009844B4E6AF4200D960E6824204D800D034
:1016C0005CE6AE4200D859E602235B429C46009B92
:1016D000E0449C4665449D429B415B421B19C018F7
:1016E0004DE68A4200D80EE6831E09190BE68A42AF
:1016F00000D8F4E5831E98460919F0E5254928002D
:1017000059448D4042468A40691E8D414146D84029
:10171000D94002432A430B00510700D151E70F2162
:101720001140042900D046E74BE705008E4200D067
:101730006AE6009A934200D066E667E6164A5A4483
:10174000002A00DC10E701230025984467E65D07C6
:101750005B021C0BD2080023154380E50098023D74
:1017600042008242BF417F423C1936190092DDE7B8
:101770008024434624031C432403044B240B6EE5BE
:10178000009A9A42EAD30500D3E7C046FF0700005B
:101790003E0400001E040000FF030000F8B5574699
:1017A0004E464546DE46E0B51E0017004A000B03D4
:1017B000520D5B0A9046420F1A43CD0FCD4C3103B8
:1017C000C300944670007A0F490AFF009A46B94652
:1017D000400DF60F1143A04200D1B1E00122564066
:1017E000B346B54200D188E04246121A002A00DC16
:1017F000AEE0002800D1C1E0BE48804500D151E1F3
:10180000802000040143382A00DD7BE11F2A00DD2F
:10181000EEE120203E00801A0C00D640D1408740E7
:1018200062468440521A781E8741944634432743C7
:10183000DC1BA3429B4162465B42D31A99464B464E
:101840001B0200D418E14B465802430A99464B4606
:10185000002B00D137E1484600F028FC0100083990
:101860002023220048465B1ADA4088408C404346D9
:101870001043884500DD36E1C91A4B1C1F2B00DDE3
:10188000EAE020222600D21A01009440DE40D8402F
:1018900000239140621E94418146984631430C4397
:1018A000630709D00F232340042B05D0231DA34237
:1018B000A4416442A1441C004B461B0200D4DEE05C
:1018C00041468C4B0131994200D1E7E04B468A48B2
:1018D000E4080340180049055B07400223434A0D12
:1018E000040B1205ED0722432A4318001100F0BC37
:1018F000BB46B246A946A046F8BD4246121A002A87
:1019000052DD002800D19CE0A04500D1CAE0802033
:1019100000040143382A00DD49E11F2A00DC97E179
:1019200010000E002038C640202A04D04020821A21
:1019300091400F43B9464C46621E944134433AE10C
:101940000A003A4328D0B346B5422BD06B4A4244F2
:10195000002A5DD042464446821A002C00D0F5E0B1
:1019600065461D4300D19CE1551E012A00D1FBE1D3
:10197000604CA24200D1BDE12A00F0E008003843EB
:1019800000D1C3E0501E012A00D1A8E1594CA24267
:1019900000D187E0020036E701225640B346B54247
:1019A00000D021E7554A4244002A00D1B5E0424622
:1019B0004446821A002C00D138E14E4EB04200D18C
:1019C000DEE18026644636043443A446382A00DD2E
:1019D00096E11F2A00DD24E22026B41AA2466446BE
:1019E0005646B440A1461C004E46D440264334001F
:1019F0005646B3405E1EB3411C436346D340C918EC
:101A0000E419BC42BF417F42B94680468944D8E0D0
:101A100040463B4C0130204200D0B4E04046002814
:101A200000D044E16046184300D190E108003843FB
:101A300000D0AAE16146DB0849070B436146CC08A8
:101A400027E00800384361D0501E012A00D139E157
:101A5000A24227D002005DE702001F39CA401100F0
:101A6000202B03D04022D31A98400443631E9C418C
:101A70000023994698460C43630700D012E74B4673
:101A80004A46E4085B072343D408424619498A4280
:101A90000ED024035205240B520D22E70A00002425
:101AA00000231EE7DB086246520713436246D40850
:101AB0001A00224300D1FCE18022120314432403C4
:101AC0000C4A240B0DE7200000F0F0FA0100183159
:101AD0001F2900DCC4E60838844043462000002467
:101AE000884500DCC8E6044A5B1A104098468146E7
:101AF000D6E6C046FF070000FFFF7FFF01F8FFFFAB
:101B0000FE0700000F437A1E974191E66146DB080D
:101B100049070B436146CC08B8E74046D34C013037
:101B2000204200D0A2E04046002800D001E16046FB
:101B3000184300D15EE10800384300D05FE1614600
:101B4000DB0849070B436146CC08A2E7C84DA84211
:101B500000D1CFE0802564462D042C43A446382ACA
:101B600056DC1F2A00DDD1E020251E00AD1A644698
:101B7000AB40AC40D6405D1EAB413443234364468A
:101B8000D440091B49E06046DC1B461AA342804151
:101B90004042814630004E46801B8146000276D48A
:101BA0004B46234300D052E60024002571E7394319
:101BB0000C00621E9441E4189C429B415B426344CA
:101BC00099464B461B0200D456E701239C46A84B7E
:101BD000E044984538D04B46A648012203401800FF
:101BE000630814401C43C3071C434308994657E647
:101BF00010000E002038C640202A04D04020821A4F
:101C000091400F43B9464F467A1E974137430FE63E
:101C100062461A4313005A1E9341FC1AA742BF4161
:101C20007F42CB1B99465D46804608E666461E43CA
:101C300000D1BEE0561E012A00D109E18C4CA2421F
:101C400000D119E13200C1E642460024002348E6F3
:101C500020200C00801A3E0087408440D640781E29
:101C60008741D14034433C438C44A4E7804A9042AE
:101C700000D1E9E0DF199F429B4161445B42C918F2
:101C8000CC077F084B08994680463C43F4E6FC1A93
:101C9000A742BF4163467F42C91ACB1B99465D46A6
:101CA000D5E5FF084B075D463B43CC08EEE66246B0
:101CB0001A4300D082E00B003B431BD18024002557
:101CC0002403F9E6DC199C429B41614489465B424E
:101CD00099444B461B0244D401239846CCE6DC1BB6
:101CE0006246A3429B41511A5B42CB1A994601239B
:101CF0009846A4E5FF084B075D463B43CC08D7E672
:101D000062461A431400631E9C4179E6150064463E
:101D1000203DEC40A046202A05D040256446AA1A62
:101D2000944023439A465446631E9C4143462343B2
:101D300073E762461A4323D00A003A4300D0A0E07A
:101D40006246DB08520713436246D408B0E60B0034
:101D50003B4300D128E7FF084B075D463B43CC08D7
:101D600097E60223984636E7FC1AA742BF4163462E
:101D70007F42C91ACB1B994601235D4698465EE512
:101D80004B07FF083B43CC0892E6DC1B6046A342AE
:101D9000B641401A7642801B8146000260D5FC1A8B
:101DA000A742BF4163467F42C91ACB1B99465D4695
:101DB00076E5FF084B073B43CC0867E60A00DB08E3
:101DC0003A4300D16FE66246520713436246D40895
:101DD00080221203144207D0C808104204D15D4685
:101DE0000400FB0849070B435A0FDB00DB085207CE
:101DF00013435DE64B07FF083B43CC0849E6DC197B
:101E00009C429B41614489465B4299444B461B027C
:101E100000D431E64A46174B1A40012391469846B2
:101E20002AE616006446203EF440A046202A05D04B
:101E300040266446B21A944023439A465446631E91
:101E40009C4143461C43DBE502000024002348E597
:101E5000DC19BC42BF41614489467F42B94438E73E
:101E60004B46234300D19FE606E6C046FE0700002E
:101E7000FF070000FFFF7FFFFF084B073B43CC0835
:101E800016E66246DB08520713436246D4088022F6
:101E90001203144207D0C808104204D15D46040062
:101EA000FB0849070B435A0FDB005207DB081343BB
:101EB000FEE50023014A1C0013E5C046FF070000B1
:101EC0000A0030B5134C530009030500090B00202C
:101ED0005B0DD20FA34204DD0F48834202DD0F4B9E
:101EE000D01830BD8020400301430D48C01A1F2880
:101EF00008DD0C48C31AD9400B005842002AF0D123
:101F00001800EEE7084CC540A446634499400B0016
:101F10002B43F2E7FE0300001D040000FFFFFF7FDC
:101F20003304000013040000EDFBFFFF70B5430015
:101F30004602C40FFE201B0E591C750A08420CD025
:101F4000E022920094466D07360B63441B05334331
:101F5000E40723432800190070BD002B14D1002D85
:101F60001BD0280000F0A2F80A281CDC0B232E004E
:101F70001B1ADE40030015339D400E4A3603121A29
:101F80005205360B530DE1E7002D09D08022360BA8
:101F90001203094B6D071643D8E700230026D5E747
:101FA0000026054BD2E703000B3B9D402E00002589
:101FB000E3E7C04689030000FF07000084461000E5
:101FC00062468C461900634600E0C0461FB500F02B
:101FD000E3F9002801D40021C8421FBD10B500F06C
:101FE00033F94042013010BD10B500F0D5F900289A
:101FF00001DB002010BD012010BDC04610B500F06F
:10200000CBF9002801DD002010BD012010BDC04625
:1020100010B500F05BF9002801DC002010BD0120A4
:1020200010BDC04610B500F051F9002801DA0020BB
:1020300010BD012010BDC046844608006146FFE780
:102040001FB500F0BDF8002801D40021C8421FBD13
:1020500010B500F049F84042013010BD10B500F055
:10206000AFF8002801DB002010BD012010BDC046E4
:1020700010B500F0A5F8002801DD002010BD0120FA
:1020800010BDC04610B500F055F8002801DC002056
:1020900010BD012010BDC04610B500F04BF800285F
:1020A00001DA002010BD012010BDC0461C21012313
:1020B0001B04984201D3000C10391B0A984201D32B
:1020C000000A08391B09984201D30009043902A209
:1020D000105C40187047C046040302020101010170
:1020E000000000000000000070B5420045024E02F2
:1020F0004C00C30F6D0A0120120E760A240EC90F80
:10210000FF2A06D0FF2C03D0A24201D1B54206D04F
:1021100070BD002DFCD1FF2CFAD1002EF8D18B42DE
:1021200006D00120002AF3D12800431E9841EFE792
:102130000020EDE770B5420045024E024C00C30F8F
:102140006D0A120E760A240EC80FFF2A1BD0FF2C30
:102150000ED0002A1BD1002C01D1002E1CD0002D46
:102160000CD083421CD00221581E0840013870BD9B
:10217000002E22D1002AF4D1002DF2D10028F6D170
:1021800001204042F3E7002D17D1FF2CF0D0002CA6
:10219000E7D1002EE5D1E6E70020002DE7D0E2E709
:1021A000A24205DCEADBB54202D8E7D30020DEE735
:1021B0004342584140000138D9E702204042D6E767
:1021C00070B5420045024E024C00C30F6D0A120E5C
:1021D000760A240EC80FFF2A0BD0FF2C0DD0002A40
:1021E0001FD1002C16D1002E14D10020002D10D0AC
:1021F00009E0002D0CD1FF2C13D1002E08D1002AAC
:1022000008D0834212D00221581E0840013800E055
:10221000022070BD002DF4D10028FAD101204042E7
:10222000F7E7002CEDD1002EEBD1ECE7A24205DC64
:10223000F2DBB54202D8EFD30020EAE7434258412F
:1022400040000138E5E7C046F0B54E464546DE465B
:1022500057469046E0B517001A03120B0500844656
:1022600019480E034C0091465A00DB0F9B46360B73
:10227000640DC90F520D844219D0824210D0012042
:1022800094420ED14E450CD10120C44509D1594587
:1022900017D0002C05D130002843431E984100E0A0
:1022A0000120F0BCBB46B246A946A046F0BD3300B3
:1022B00001202B43F5D1A242F3D14B463B43F0D151
:1022C000E2E70020EDE7C046FF070000F0B5474613
:1022D000CE460400180016001B031B0B2D4D4A00B0
:1022E000994680B543000F03A446B0463F0B520DFC
:1022F000C90F5B0DC00FAA4221D0AB4213D0002AF8
:1023000022D13C43002B02D14D462E4322D0002C3B
:1023100010D0814222D00220013908400138C0BCCF
:10232000B946B046F0BD4D462E4329D1002AF0D122
:102330003C43EED10028F2D101204042EFE73D00BE
:1023400025431DD19342EED0002BE2D14C462643CB
:10235000DFD1E0E70020002CE1D0DCE79A420ADC84
:10236000E8DB4F45D7D80ED000204F45D7D2002903
:10237000E2D00800D3E74342584140000138CEE79D
:1023800002204042CBE7C445C5D80020C445C6D290
:10239000EDE7C046FF070000F0B54746CE46040013
:1023A000180016001B031B0B2C4D4A00994680B5E4
:1023B00043000F03A446B0463F0B520DC90F5B0DFF
:1023C000C00FAA420DD0AB4210D0002A27D13C4307
:1023D000002B11D14D462E430ED10020002C15D0DC
:1023E0000EE03D00254310D1934218D14D462E43B7
:1023F0000BD1002A02D13C43002C0BD0814214D0D7
:10240000022001390840013800E00220C0BCB94672
:10241000B046F0BD0028F9D101204042F6E7002B7C
:10242000ECD14C462643E9D1EAE79A4204DD434227
:10243000584140000138E9E79A42EBDB4F45DFD8CD
:1024400006D000204F45E1D20029E5D00800DDE7A5
:10245000C445D5D80020C445D8D2F5E7FF07000011
:10246000B0B5AAB000AF39601100FB1D021C1A7094
:10247000BB1D0A1C1A70FB1D1B782F4A944663442F
:10248000DB02A0243A19136020257B198022FF214A
:1024900018000BF0CCF8BB1D1A7839687B191800AE
:1024A0000BF0BCF803F004FA0C217B1800221A6030
:1024B0007B183A1912685A607B1801229A6000232F
:1024C000BB600823FA187B181100180003F0B0FA5B
:1024D000A723FB1800221A7022E0A7243B191B78BF
:1024E0009B011A00A0257B191B689B187A191360A1
:1024F0003B191B78DB002022BA18D1181823FB18CF
:10250000082218000BF08AF8BA69FB697919096882
:10251000032003F037F93B191A783B1901321A707E
:10252000A723FB181B780F2BD7D903F0E7F900235B
:102530001800BD462AB0B0BD1A00010090B5A7B082
:1025400000AF786008001100FB1C021C1A70BB1C55
:102550000A1C1A70FB1C1B78224A94466344DB0257
:102560009022BA1813601023FB188022FF21180054
:102570000BF05DF89723FB1800221A7020E09721DA
:102580007B181B789B001A0090203B181B689B1837
:102590003A1813603B181B681B68FB600C007B1823
:1025A0001B789B001022BA18D3180C22B9180422E9
:1025B00018000BF033F83B191A783B1901321A70E6
:1025C0009723FB181B781F2BD9D9BB1C1A78102313
:1025D000F9187B6818000BF021F800231800BD469D
:1025E00027B090BD1A00010090B589B000AF7860A7
:1025F0000A00BB1C1A800C243B19180014231A0073
:1026000000210BF014F8BB1C1A8821007B181A60FB
:102610007B1801225A607B1800229A607B180322E3
:10262000DA607A187B681100180003F0ADFAC04632
:10263000BD4609B090BD90B589B000AF78600A0082
:10264000BB1C1A800C243B19180014231A0000210B
:102650000AF0EDFFBB1C1A883B191A603B190022D7
:102660005A603B1902229A603A197B6811001800DF
:1026700003F08AFAC046BD4609B090BD80B584B06B
:1026800000AF3B1D18000C231A0000210AF0CFFFF9
:102690003B1D06221A603B1D802252015A603B1DE1
:1026A00006229A603A1D064B1100180002F06AFCDF
:1026B000031E01D001F08EFCC046BD4604B080BDB3
:1026C0000801002080B584B000AF3B1D18000C232A
:1026D0001A0000210AF0ABFF3B1D07221A603B1DC8
:1026E000802252015A603B1D06229A603A1D064B19
:1026F0001100180002F046FC031E01D001F06AFC34
:10270000C046BD4604B080BD0801002080B500AFC2
:10271000294B180006F08AF8284B002201211800E6
:1027200003F0C7FB80239B0124480122190003F01A
:10273000C0FB224B00220421180003F0BAFB8023C7
:10274000DB001E480122190003F0B3FB80231B01AC
:102750001A480122190003F0ACFB80235B011748E3
:102760000122190003F0A5FB01F039FC192002F049
:10277000D5F801F0B5FC192002F0D0F801F000FE08
:102780000F4B202202211800FFF7D8FE0C4B1978BE
:102790000B4B5A780A4B9B78082001F05FFD084BE1
:1027A000D978074B1A79064B5B790C2001F056FD5E
:1027B000C046BD4680BDC0465C0100200004004804
:1027C000EC02002080B582B000AF0A4B7B607A68D3
:1027D000094B110018000AF032FF7B681800FDF762
:1027E00093FC03009AB2054B1A80C046BD4602B066
:1027F00080BDC0468CD6000870020020E802002090
:1028000080B582B000AF0A4B7B607A68094B11003B
:1028100018000AF014FF7B681800FDF775FC030030
:102820009AB2054B1A80C046BD4602B080BDC04674
:1028300090D6000870020020E802002080B500AFAA
:1028400080239B0104480022190003F032FBFFF7AC
:10285000D7FFC046BD4680BD0004004880B500AF2C
:1028600080239B0104480122190003F022FBFFF79B
:10287000C7FFC046BD4680BD0004004880B500AF1C
:10288000054B00220121180003F013FBFFF7B8FFEE
:10289000C046BD4680BDC0460004004880B500AFBC
:1028A000054B01220121180003F003FBFFF7A8FFED
:1028B000C046BD4680BDC0460004004880B500AF9C
:1028C000114B00220421180003F0F3FA0A2002F051
:1028D00025F88023DB000C480122190003F0E9FAF7
:1028E00080231B0108480122190003F0E2FA80232B
:1028F0005B0105480122190003F0DBFAFFF780FFB6
:10290000C046BD4680BDC0460004004880B500AF4B
:102910008023DB0010480022190003F0CAFA0A20C5
:1029200001F0FCFF0C4B01220421180003F0C1FA56
:1029300080231B0108480122190003F0BAFA802302
:102940005B0105480122190003F0B3FAFFF758FFB5
:10295000C046BD4680BDC0460004004880B500AFFB
:1029600080231B0110480022190003F0A2FA0A205C
:1029700001F0D4FF0C4B01220421180003F099FA56
:102980008023DB0008480122190003F092FA80231B
:102990005B0105480122190003F08BFAFFF730FFB5
:1029A000C046BD4680BDC0460004004880B500AFAB
:1029B00080235B0110480022190003F07AFA0A20F4
:1029C00001F0ACFF0C4B01220421180003F071FA56
:1029D0008023DB0008480122190003F06AFA8023F3
:1029E0001B0105480122190003F063FAFFF708FFF5
:1029F000C046BD4680BDC0460004004880B582B0D8
:102A000000AF78607B6819787B6801331A787B683F
:102A100002331B78002001F021FCFFF7F1FEC046D5
:102A2000BD4602B080BD80B582B000AF01F0B8FCF9
:102A3000FA235B00180001F071FF3A0001323B00FD
:102A400002333900082001F054FC390003313A0008
:102A500004323B0005330C2001F04BFC3B00062206
:102A600019000220FFF7FCFCFFF7CAFEC046BD4676
:102A700002B080BD80B582B000AF00F0F1FA031E55
:102A80000BD0104B06221A800E4B1B881A000E49E1
:102A90000E4B18000AF0C2FD0FE00D4B7B607A6808
:102AA0000A4B110018000AF0CAFD7B681800FDF7F8
:102AB0002BFB03009AB2034B1A80C046BD4602B0FE
:102AC00080BDC046E80200206002002070020020A5
:102AD00094D6000880B584B000AF3B1D180001F00B
:102AE000AAFA031E0BD0104B06221A800E4B1B882D
:102AF0001A00391D0D4B18000AF090FD0FE00C4B29
:102B0000FB60FA68094B110018000AF098FDFB6899
:102B10001800FDF7F9FA03009AB2034B1A80C04679
:102B2000BD4604B080BDC046E8020020700200200F
:102B300094D6000880B500AF094B2022012118006F
:102B4000FFF7FCFC074B06221A80064B1B881A0075
:102B50000349054B18000AF061FDC046BD4680BD23
:102B6000EC020020E80200207002002080B582B054
:102B700000AF78607B68062219000120FFF770FC27
:102B8000C046BD4602B080BD80B500AF094B2022D3
:102B900003211800FFF7D2FC074B08221A80064BCE
:102BA0001B881A000349054B18000AF037FDC04680
:102BB000BD4680BDEC020020E8020020700200202B
:102BC00080B582B000AF78607B68082219000320CE
:102BD000FFF746FCFFF714FEC046BD4602B080BDBD
:102BE00080B500AF094B202202211800FFF7A6FC98
:102BF000074B06221A80064B1B881A000349054B17
:102C000018000AF00BFDC046BD4680BDEC02002056
:102C1000E80200207002002080B582B000AF78602A
:102C20007B68062219000220FFF71AFC7B681978DE
:102C30007B6801331A787B6802331B78082001F027
:102C40000DFB7B68033319787B6804331A787B6843
:102C500005331B780C2001F001FBFFF7D1FDC046C6
:102C6000BD4602B080BD000080B500AFAC4B1B7804
:102C7000072B0BD1AB4B1B68AB49072218000AF09E
:102C8000E6FC031E02D1FFF7D9FD46E1A44B1B78F9
:102C9000082B0BD1A34B1B68A449082218000AF08B
:102CA000D6FC031E02D1FFF7D9FD36E19C4B1B7801
:102CB0000E2B0BD19B4B1B689D490E2218000AF06E
:102CC000C6FC031E02D1FFF7D9FD26E1944B1B7809
:102CD0000D2B0BD1934B1B6896490D2218000AF05F
:102CE000B6FC031E02D1FFF7D9FD16E18C4B1B7811
:102CF000072B0BD18B4B1B688F49072218000AF05A
:102D0000A6FC031E02D1FFF7D9FD06E1844B1B7818
:102D1000072B0BD1834B1B688849072218000AF048
:102D200096FC031E02D1FFF7F1FDF6E07C4B1B7809
:102D3000072B0BD17B4B1B688149072218000AF037
:102D400086FC031E02D1FFF709FEE6E0744B1B78F8
:102D5000072B0BD1734B1B687A49072218000AF026
:102D600076FC031E02D1FFF721FED6E06C4B1B78E8
:102D70000A2B0FD16B4B1B687349072218000AF00E
:102D800066FC031E06D1674B1B6807331800FFF76C
:102D900035FEC2E0624B1B78062B0BD1614B1B68E2
:102DA0006A49062218000AF052FC031E02D1FFF7FE
:102DB0003AFEB2E05A4B1B78072B0BD1594B1B68DC
:102DC0006349072218000AF042FC031E02D1FFF7F4
:102DD00081FEA2E0524B1B780A2B0BD1514B1B6892
:102DE0005C490A2218000AF032FC031E02D1FFF7E8
:102DF000A1FE92E04A4B1B78112B0FD1494B1B6867
:102E000055490B2218000AF022FC031E06D1454B3F
:102E10001B680B331800FFF7A9FE7EE0404B1B78C0
:102E2000092B0BD13F4B1B684C49092218000AF0B3
:102E30000EFC031E02D1FFF7D3FE6EE0384B1B7869
:102E4000102B0FD1374B1B6845490A2218000AF096
:102E5000FEFB031E06D1334B1B680A331800FFF735
:102E6000DBFE5AE02E4B1B780C2B0BD12D4B1B6835
:102E70003C490C2218000AF0EAFB031E02D1FFF7BE
:102E800083FE4AE0264B1B78152B0FD1254B1B6880
:102E900035490D2218000AF0DAFB031E06D1214B3A
:102EA0001B680D331800FFF78BFE36E01C4B1B78B8
:102EB000232B0FD11B4B1B682C490B2218000AF047
:102EC000C6FB031E06D1174B1B680B33180000F01E
:102ED0000FFC22E0124B1B78082B0BD1114B1B6807
:102EE0002349082218000AF0B2FB031E02D100F0A9
:102EF0004FFD12E00A4B1B78082B0BD1094B1B68C6
:102F00001C49082218000AF0A2FB031E02D100F09F
:102F1000BDFD02E0FFF756FCC046C046BD4680BD81
:102F20006C020020680200209CD60008A4D600088D
:102F3000B0D60008C0D60008D0D60008D8D6000801
:102F4000E0D60008E8D60008F0D60008F8D6000859
:102F500000D7000808D7000814D7000820D70008B9
:102F60002CD7000838D7000848D7000858D70008E1
:102F700064D7000870D7000880B584B000AF7860CF
:102F80007B68180001F02AFF02002D4B1A602C4BC1
:102F90001B681800FDF78EFD031C2A49181CFDF75D
:102FA0007DF9031C2849181CFDF790FA031C2749DA
:102FB000181CFDF7B1FB031CFB602449F868FDF702
:102FC0006DF9031C2249181CFDF780FA031C181C1C
:102FD000FDF72EF902001A4B1A601E4B1B78002BCE
:102FE00011D1174B1B681B0CDAB21B4B1A70144B18
:102FF0001B681B0ADAB2184B5A70114B1B68DAB205
:10300000154B9A7014E0134B1B78012B10D10C4B0D
:103010001B681B0CDAB2104BDA70094B1B681B0AD9
:10302000DAB20D4B1A71064B1B68DAB20A4B5A71B1
:103030000A4B01221A70C046BD4604B080BDC0468E
:103040000C03002000F07F453D0A47407B141E40E2
:103050000400004A0000002060020020010000205F
:1030600080B582B000AFFB1D00221A70264B1B7882
:10307000002B43D0254B1B78002B0FD1244B002273
:103080001A70224B01221A70224B00221A70FFF78D
:10309000F5FA214B180001F0E5FD2FE01B4B1B78E2
:1030A000012B18D11B4B1B78DBB2002B26D01A4BFF
:1030B000180001F049FE164B01221A70134B022230
:1030C0001A70144B00221A70FFF7FCFA124B18000A
:1030D00001F0C8FD12E00D4B1B78022B0ED10D4BF9
:1030E0001B78DBB2002B09D0FB1D01221A70074BA5
:1030F00000221A70084B180001F026FEFB1D1B78F9
:103100001800BD4602B080BD6602002011030020F9
:1031100000000020010000200801002080B582B0DE
:1031200000AF00237B6000F0CBFD104B00211800A6
:1031300002F0DCFA0E4B01220221180002F0B9FE67
:103140000C4B01221A700C4B01221A700B4B7B6046
:103150007B6806480022002102F065FA084B18003F
:1031600005F0D4FBC046BD4602B080BD480100203A
:10317000000400486602002000010020720C0000DC
:10318000A401002080B582B000AF7860194B1B7895
:10319000012B2AD1184B1B8801339AB2164B1A8087
:1031A000164B1B88592B1AD8154B1B78002B16D0A1
:1031B000124B1B881A00114BD3189A1C114B10008C
:1031C000190006231A000AF029FA0C4B1B88063353
:1031D0009AB20A4B1A800A4B00221A7005E0084B7B
:1031E0001B780133DAB2064B1A70C046BD4602B0F6
:1031F00080BDC04600010020F4000020EC0100204A
:10320000120300206002002080B584B000AF0200ED
:10321000BB1D1A800F23FB1800221A70114B1B785C
:10322000002B02D0012B07D014E00F4B00221A8094
:103230000C4B01221A700DE00B4B1B88BA1D128833
:103240009A4206D8074B00221A700F23FB1801225E
:103250001A70C0460F23FB181B781800BD4604B037
:1032600080BDC04613030020F400002080B584B068
:1032700000AF78600C497868FDF728F9031C0B490A
:10328000181CFDF70BF8031C181CFCF7D1FF0300FA
:10329000FB60FB6806480022002102F0C4F9C0462A
:1032A000BD4604B080BDC04600F07F453D0A4740A2
:1032B00048010020B0B582B002AF4F4B1B789AB2E4
:1032C0004E4B1B889A4200D38FE04B4B1B78012258
:1032D0001340DBB2002B3FD1474B1B780133474AE9
:1032E000128893421CD1454B9888444B5989434BD3
:1032F0009C89424BDD89414B5B8A404A128A01928C
:1033000000932B00220000F07FF80300012B00D077
:103310006EE0394B1B780133DAB2374B1A7067E035
:10332000364B9888354BD988344B9C89334BDD8993
:10333000324B5B8A314A128A019200932B002200A1
:1033400000F062F80300012B52D12B4B1B780133A4
:10335000DAB2294B1A704BE0274B1B780133274A0E
:103360001288934220D1264B1B689AB2234B5B8A6A
:10337000D31A98B2214B5989204B9C891F4BDD8968
:103380001E4B5B8A1D4A128A019200932B00220079
:1033900000F0F4F80300012B2AD1174B1B780133FE
:1033A000DAB2154B1A7023E0154B1B689AB2134B17
:1033B0005B8AD31A98B2114B1989104B9C890F4B19
:1033C000DD890E4B5B8A0D4A128A019200932B0015
:1033D000220000F0D3F80300012B09D1064B1B7823
:1033E0000133DAB2044B1A7002E0064B01221A7064
:1033F000C046BD46B0BDC046FC00002048020020CB
:10340000F8000020FF000020B0B584B000AF050038
:103410000C0010001900BB1D2A1C1A803B1D221C29
:103420001A80BB1C021C1A803B000A1C1A800F2346
:10343000FB1800221A704E4B1B78002B06D1BB1DC7
:103440001A884C4B1A604A4B01221A70484B1B7861
:10345000012B11D1474B1B681800FDF72BFB031CF8
:103460004549181CFCF71AFF031C181CFFF7FEFE49
:103470003F4B02221A7074E03D4B1B78022B0CD19B
:103480002423FB181B881800FFF7BEFE0300012B46
:1034900067D1374B03221A7063E0354B1B78032B3F
:1034A00034D1BB1C1A88334B1B68D218314B1A60BD
:1034B0003B1D1A882F4B1B689A4211D92D4B1B6854
:1034C0001800FDF7F7FA031C2B49181CFCF7E6FE61
:1034D000031C181CFFF7CAFE254B04221A7040E09B
:1034E0003B1D1A88234B1A60224B1B681800FDF7FE
:1034F000E1FA031C2049181CFCF7D0FE031C181C21
:10350000FFF7B4FE1A4B05221A702AE0184B1B78FD
:10351000042B16D13B001B881800FFF775FE030033
:10352000012B1ED1134B1A68BB1C1B88D21A2023F7
:10353000FB181B88D2180F4B1A600D4B01221A7012
:103540000FE00B4B1B78052B0BD13B001B881800A1
:10355000FFF75AFE0300012B03D10F23FB180122B2
:103560001A700F23FB181B781800BD4604B0B0BDBD
:10357000FD000020F800002000007A44B0B584B0BF
:1035800000AF05000C0010001900BB1D2A1C1A809A
:103590003B1D221C1A80BB1C021C1A803B000A1C0B
:1035A0001A800F23FB1800221A704E4B1B78002B39
:1035B00006D1BB1D1A884C4B1A604A4B01221A7067
:1035C000484B1B78012B11D1474B1B681800FDF7A6
:1035D00071FA031C4549181CFCF760FE031C181CFB
:1035E000FFF744FE3F4B02221A7074E03D4B1B78FC
:1035F000022B0CD12423FB181B881800FFF704FEB4
:103600000300012B67D1374B03221A7063E0354B5F
:103610001B78032B34D1344B1A68BB1C1B88D21A7D
:10362000314B1A603B1D1A882F4B1B689A4211D2EE
:103630002D4B1B681800FDF73DFA031C2B49181C85
:10364000FCF72CFE031C181CFFF710FE254B042270
:103650001A7040E03B1D1A88234B1A60224B1B68EE
:103660001800FDF727FA031C2049181CFCF716FE6A
:10367000031C181CFFF7FAFD1A4B05221A702AE0EA
:10368000184B1B78042B16D13B001B881800FFF742
:10369000BBFD0300012B1ED1BB1C1A88124B1B68FB
:1036A000D2182023FB181B88D21A0F4B1A600D4B1F
:1036B00001221A700FE00B4B1B78052B0BD13B003E
:1036C0001B881800FFF7A0FD0300012B03D10F2377
:1036D000FB1801221A700F23FB181B781800BD4637
:1036E00004B0B0BDFE000020F800002000007A44C5
:1036F00080B582B000AF7860FFF710FD9B4B0022D1
:103700001A709B4B00221A709A4B00221A707B6829
:103710001B781B021AB27B6801331B781BB2134360
:103720001BB29AB2944B1A807B6802331B781B023F
:103730001AB27B6803331B781BB213431BB29AB2D5
:103740008D4B5A807B6804331B781B021AB27B684E
:1037500005331B781BB213431BB29AB2864B9A8077
:103760007B6806331B781B021AB27B6807331B7811
:103770001BB213431BB29AB27F4BDA807B680833CB
:103780001B781B021AB27B6809331B781BB21343E8
:103790001BB29AB2784B1A817B680A331B781B02E2
:1037A0001AB27B680B331B781BB213431BB29AB25D
:1037B000714B5A817B680C331B781B021AB27B68F1
:1037C0000D331B781BB213431BB29AB26A4B9A811A
:1037D0007B680E331B781B021AB27B680F331B7891
:1037E0001BB213431BB29AB2634BDA817B6810336E
:1037F0001B781B021AB27B6811331B781BB2134370
:103800001BB29AB25C4B1A827B6812331B781B0284
:103810001AB27B6813331B781BB213431BB29AB2E4
:10382000554B5A827B6814331B781B021AB27B6893
:1038300015331B781BB213431BB29AB24E4B9A82BC
:103840007B6816331B781B021AB27B6817331B7810
:103850001BB213431BB29AB2474BDA82464B9B888A
:103860001800FDF727F9031C181CFEF75FFB434AFD
:10387000434BFDF79DFC02000B00100019000022D5
:10388000404BFDF759F902000B0010001900FCF73E
:10389000E7FC03009AB2384B9A80374BDB8818005C
:1038A000FDF708F9031C181CFEF740FB334A344BA4
:1038B000FDF77EFC02000B00100019000022314BC6
:1038C000FDF73AF902000B0010001900FCF7C8FCE4
:1038D00003009AB2284BDA80274B1B891800FDF7AA
:1038E000E9F8031C181CFEF721FB244A244BFDF7C2
:1038F0005FFC02000B00100019000022214BFDF7B5
:103900001BF902000B0010001900FCF7A9FC0300D2
:103910009AB2194B1A81184B5B891800FDF7CAF847
:10392000031C181CFEF702FB144A154BFDF740FC64
:1039300002000B00100019000022124BFDF7FCF8EA
:1039400002000B0010001900FCF78AFC03009AB279
:10395000094B5A810C4B01221A70FEF751FF0B4B99
:1039600000221A60C046BD4602B080BDFD000020A6
:10397000FE000020FC00002048020020713D0AD714
:10398000A370164000B0A3400001002004010020F5
:1039900080B582B000AF344B7B60344B3B60344B1E
:1039A00078220021180009F042FE324B78221A805A
:1039B000314B1B88002B33D07B681800FCF7A4FB2D
:1039C000020079682A4B180009F028FE7B6818006D
:1039D000FCF79AFB0200264BD31827490222180055
:1039E00009F01CFE7B681800FCF78EFB03009A1C94
:1039F0001F4BD018204B1B881A00204B190009F0D0
:103A00000DFE1D4B1B881A001D4B1B68D2181C4B4A
:103A10001A60194B5C220021180009F008FE1EE014
:103A2000184B1B78012B10D1174B1B780133DAB2DE
:103A3000154B1A703B681800FCF766FB02003968EA
:103A40000B4B180009F0EAFD09E07B681800FCF751
:103A50005BFB02007968064B180009F0DFFDC046E9
:103A6000BD4602B080BDC0467CD7000888D700089C
:103A700070020020E8020020EC010020EE0100208E
:103A800004010020FF0000201003002080B500AFDB
:103A9000124B5C220021180009F0C9FD104B1822BE
:103AA0000021180009F0C3FD0E4B00221A700E4BC6
:103AB00000221A700D4B00221A700D4B180004F0F2
:103AC000FFFE0C4B180001F08DF800F0D3F9FEF763
:103AD0001DFEFEF795FEC046BD4680BDEC010020F0
:103AE00048020020FF00002000010020FC00002010
:103AF000A40100204801002080B500AF00F0AAFE1C
:103B000000F03CF800F0B6F909F018F800F006F9FA
:103B100000F090F800F05AF9FEF7F8FD0F4B1B7813
:103B2000012B12D10D4B00221A700D4B1A780D4B40
:103B30001A700D4B0D4A1A60FFF796F80C4B1A8855
:103B40000C4B1100180009F089F80B4B1B78012B66
:103B5000E4D1FFF7AFFBFEF78DFFDFE7D00D0020CC
:103B6000D20D00206C020020680200200006002018
:103B7000E8020020700200200001002090B599B0FA
:103B800000AF2C243B19180034231A00002109F03F
:103B90004EFD1C23FB18180010231A00002109F009
:103BA00046FD3B0018001C231A00002109F03FFDD0
:103BB00021007B1830221A607B1801221A627B18C0
:103BC00001225A617B1810229A617B1800225A62E6
:103BD0007B18180003F0FCFF031E01D000F0FAF977
:103BE0001C217B1807221A607B1803225A607B185D
:103BF00000229A607B180022DA607B1801211800ED
:103C000004F06CFB031E01D000F0E4F93B008022BD
:103C100092021A603B0000229A613B00180004F0F7
:103C2000B7FC031E01D000F0D5F9C046BD4619B05F
:103C300090BD000080B584B000AF3B1D18000C2380
:103C40001A00002109F0F3FC1B4B1C4A1A601A4BA6
:103C500000225A60184B00229A60174B0022DA604B
:103C6000154B01221A61144B04225A61124B002297
:103C70001A76114B00225A760F4B00229A760E4B81
:103C80000022DA760C4BC222FF32DA610A4B0022A4
:103C90001A62094B242200219954074B01229A628F
:103CA000054B180000F05EFE031E01D000F092F9F3
:103CB000C046BD4604B080BD08010020002401407C
:103CC00080B582B000AF3B00180008231A00002125
:103CD00009F0ADFC0F4B104A1A600E4B180001F0B2
:103CE0007FFC031E01D000F075F93B0000221A6032
:103CF0003B0000225A603900064B0022180001F0F8
:103D0000B5FC031E01D000F065F9C046BD4602B007
:103D100080BDC046480100200074004080B586B0D8
:103D200000AF0823FB18180010231A00002109F027
:103D30007EFC3B00180008231A00002109F077FCE4
:103D40001F4B204A1A601E4B00225A601C4B002257
:103D50009A601B4B1C4ADA60194B00221A61184BFF
:103D600000225A61164B00229A61154B180004F08C
:103D70000DFD031E01D000F02DF908217B188022D3
:103D800052011A607A180E4B1100180004F026FF39
:103D9000031E01D000F01EF93B0000221A603B0018
:103DA00000225A603A00064B1100180005F024F971
:103DB000031E01D000F00EF9C046BD4606B080BD1E
:103DC0005C010020002C0140FEFF000080B586B0A1
:103DD00000AF0823FB18180010231A00002109F077
:103DE00026FC3B00180008231A00002109F01FFCE4
:103DF0001F4B8022D2051A601D4BE022FF325A6011
:103E00001B4B00229A601A4B6322DA60184B002287
:103E10001A61174B80229A61154B180004F0B6FC0A
:103E2000031E01D000F0D6F808217B188022520131
:103E30001A607A180E4B1100180004F0CFFE031E12
:103E400001D000F0C7F83B0000221A603B000022BE
:103E50005A603A00064B1100180005F0CDF8031E19
:103E600001D000F0B7F8C046BD4606B080BDC046E0
:103E7000A401002090B589B000AF0C243B191800B4
:103E800014231A00002109F0D2FB4E4B5A694D4B06
:103E90008021C9030A435A614A4B5A698023DB03D4
:103EA0001340BB60BB68474B5A69464B802189026F
:103EB0000A435A61434B5A6980239B0213407B603B
:103EC0007B68404B5A693F4B8021C9020A435A61C3
:103ED0003C4B5A698023DB0213403B603B689023D4
:103EE000DB0501220321180001F0E3FF9023DB052D
:103EF00000223021180001F0DCFF3349334B00224F
:103F0000180001F0D6FF3B1933221A603B19012239
:103F10005A603B1900229A603B190022DA603A1974
:103F20009023DB051100180001F02EFE3B190C2236
:103F30001A603B1900225A603B1901229A603A1913
:103F40009023DB051100180001F01EFE3B19204AEA
:103F50001A603B1901225A603B1900229A603B19F2
:103F60000022DA603B19194A1900100001F00CFE1A
:103F70003B1902221A603B1901225A603B190222A6
:103F80009A603B190022DA603B19104A19001000B0
:103F900001F0FAFD21007B1880221A607B180122B3
:103FA0005A607B1802229A607B180122DA607B1823
:103FB000064A1900100001F0E7FDC046BD4609B0F1
:103FC00090BDC04600100240873C0000000400483D
:103FD000053C000080B500AFC046BD4680BD80B541
:103FE00000AF9023DB0501220121180001F061FFE1
:103FF0009023DB0501220221180001F05AFF9023D3
:10400000DB0501211800FEF7EFFA9023DB05022102
:104010001800FEF7E9FA9023DB0520211800FEF7CF
:10402000E3FA9023DB0500222021180001F041FF74
:10403000C046BD4680BD90B585B000AF78600F2406
:104040003B1900221A709023DB0500220221180080
:1040500001F02FFF00F07AFA9023DB05042118000D
:1040600001F00AFF031E2BD17B68DA1C7B6811006C
:10407000180000F09FF97B685A1C7B680433190014
:10408000100000F097F97B689A1C7B6805331900D3
:10409000100000F08FF93B1901221A709023DB0504
:1040A00001220221180001F004FF00F04FFA9023D2
:1040B000DB0500220221180001F0FBFE00F046FAA9
:1040C0009023DB0501220221180001F0F2FE00F02E
:1040D0003DFA0F23FB181B781800BD4605B090BDB4
:1040E00080B500AF9023DB0500220121180001F00C
:1040F000E0FE00F02BFA9023DB05012220211800BE
:1041000001F0D7FEFA231B01180000F029FA2D4B0D
:10411000180000F025FA2B4B180000F021FA90232C
:10412000DB0500222021180001F0C3FEAF239B0015
:10413000180000F015FA9023DB0501222021180059
:1041400001F0B7FE204B180000F00AFA1F4B1800D0
:1041500000F006FA1D4B180000F002FA9023DB0570
:1041600000222021180001F0A4FEAF239B001800BC
:1041700000F0F6F99023DB0501222021180001F060
:1041800098FE134B180000F0EBF9114B180000F0EB
:10419000E7F9104B180000F0E3F99023DB0500224B
:1041A0002021180001F085FE00F0D0F99023DB05F6
:1041B00001220121180001F07CFE00F0C7F9C04681
:1041C000BD4680BD94110000881300001027000038
:1041D000204E0000B80B000090B583B000AF040083
:1041E00008001100FB1D221C1A70BB1D021C1A7056
:1041F0007B1D0A1C1A709023DB0500220121180088
:1042000001F057FE00F0A2F99023DB051021180001
:10421000FEF7EAF9FB1D1B782033DBB2180000F033
:1042200054F9BB1D1B78180000F04FF97B1D1B785B
:10423000180000F04AF99023DB0510211800FEF762
:10424000FAF99023DB0501220121180001F031FE6B
:1042500000F07CF9C046BD4603B090BDB0B582B059
:1042600000AF05000C0010001900FB1D2A1C1A707D
:10427000BB1D221C1A707B1D021C1A703B1D0A1CE0
:104280001A709023DB0500220121180001F011FEB5
:1042900000F05CF99023DB0510211800FEF7A4F96B
:1042A000FB1D1B784033DBB2180000F00EF9BB1D7C
:1042B0001B78180000F009F97B1D1B78180000F02E
:1042C00004F93B1D1B78180000F0FFF89023DB0574
:1042D00010211800FEF7AFF99023DB050122012120
:1042E000180001F0E6FD00F031F9C046BD4602B00D
:1042F000B0BD90B585B000AFB9607A603B600F2467
:104300003B19021C1A709023DB05002201211800C2
:1043100001F0CFFD00F01AF99023DB051021180001
:10432000FEF762F93B191B78403BDBB2180000F046
:10433000CCF89023DB0510211800FEF77CF900F083
:1043400005F900F08FF803001A00BB681A7000F03E
:1043500089F803001A007B681A7000F083F80300E4
:104360001A003B681A709023DB0501220121180016
:1043700001F09FFD00F0EAF8C046BD4605B090BDD3
:1043800080B500AFA02220210420FFF725FF0023E5
:10439000002280210020FFF761FFC046BD4680BD9E
:1043A00080B500AFA12220210420FFF715FFC046F1
:1043B000BD4680BD80B584B000AF786039607B6851
:1043C00000221A703B6800221A700F23FB18082283
:1043D0001A7000F0A4F87B681B78DB18DAB27B68EF
:1043E0001A703B681B78DB18DAB23B681A707B687E
:1043F0001B7801229343DAB27B681A703B681B7802
:1044000001229343DAB23B681A709023DB05042142
:10441000180001F031FD031E06D07B681B780122D5
:104420001343DAB27B681A709023DB050821180069
:1044300001F022FD031E06D03B681B7801221343C6
:10444000DAB23B681A700F217B187A181278013A99
:104450001A707B181B78002BBBD1C046C046BD46E6
:1044600004B080BD80B582B000AFFB1D00221A7081
:10447000BB1D08221A7000F052F8FA1DFB1D1B78B4
:10448000DB181370FB1DFA1D127801218A431A7084
:104490009023DB051021180001F0EEFC031E05D06F
:1044A000FB1DFA1D127801210A431A70BB1DBA1DAB
:1044B0001278013A1A70BB1D1B78002BDBD1FB1D53
:1044C0001B781800BD4602B080BD80B584B000AF37
:1044D0000200FB1D1A700F23FB1808221A70FB1D27
:1044E0001B78DB09DAB29023DB051021180001F0FC
:1044F000E0FC00F014F8FA1DFB1D1B78DB181370AC
:104500000F217B187A181278013A1A707B181B78E1
:10451000002BE4D1C046C046BD4604B080BD80B586
:1045200000AF9023DB0501222021180001F0C1FC1F
:1045300000F00CF89023DB0500222021180001F088
:10454000B8FC00F003F8C046BD4680BD80B500AFA2
:10455000AF239B00180000F003F8C046BD4680BDA5
:1045600080B582B000AF0200BB1D1A80084B1B68EB
:1045700000225A62C046064B1B685A6ABB1D1B8844
:104580009A42F8D3C046C046BD4602B080BDC04680
:104590005C01002080B582B000AF0F4B9A690E4BD2
:1045A00001210A439A610C4B9B69012213407B60F5
:1045B0007B68094BDA69084B802149050A43DA61B7
:1045C000054BDA6980235B0513403B603B68C046BE
:1045D000BD4602B080BDC0460010024090B58BB011
:1045E00000AF786014243B19180014231A0000212E
:1045F00009F01DF87B681B681D4A934233D11D4B9F
:104600009A691C4B802189000A439A61194B9A6967
:1046100080239B0013403B613B69164B5A69154B45
:10462000802189020A435A61124B5A6980239B02F6
:104630001340FB60FB683B19C0221A603B19032240
:104640005A603B1900229A603A199023DB05110049
:10465000180001F099FA002200210C2000F08EFFD2
:104660000C2000F0A0FFC046BD460BB090BDC04678
:10467000002401400010024090B58BB000AF78607C
:1046800014243B19180014231A00002108F0CFFF4E
:104690007B681B68194A93422BD1194BDA69184B76
:1046A000802189050A43DA61154BDA6980239B056D
:1046B00013403B613B69124B5A69114B80218902BF
:1046C0000A435A610E4B5A6980239B021340FB60D8
:1046D000FB683B1910221A603B1903225A603B19F0
:1046E00000229A603A199023DB051100180001F0AE
:1046F0004BFAC046BD460BB090BDC04600740040AA
:104700000010024080B584B000AF78607B681B6801
:10471000174A93420ED1174B9A69164B8021090113
:104720000A439A61134B9A6980231B011340FB6073
:10473000FB6819E07B681A688023DB059A4213D175
:104740000C4BDA690B4B01210A43DA61094BDB6937
:1047500001221340BB60BB68002200210F2000F043
:104760000DFF0F2000F01FFFC046BD4604B080BD06
:10477000002C01400010024080B500AFC046BD468D
:1047800080BD80B500AFFEE780B500AFC046BD4636
:1047900080BD80B500AFC046BD4680BD80B500AFCE
:1047A00000F0A0F8C046BD4680BD000080B500AF57
:1047B000034B180000F01EFBC046BD4680BDC0463E
:1047C0000801002080B500AF034B180004F0F0F89A
:1047D000C046BD4680BDC046A401002080B500AFE4
:1047E000034B180001F0B8FCC046BD4680BDC04672
:1047F000D40F002080B500AFC046BD4680BD00008C
:104800000D4885460D480E490E4A002302E0D45853
:10481000C4500433C4188C42F9D30B4A0B4C002308
:1048200001E013600432A242FBD3FFF7E3FF08F07C
:10483000D1FEFFF761F9FEE70040002000000020F4
:10484000D4000020FCD90008D8000020E814002083
:10485000FEE7000080B500AF074B1A68064B102139
:104860000A431A60002000F009F8FFF793FE0023C6
:104870001800BD4680BDC0460020024090B583B000
:1048800000AF7860144B1C68144B1B781900FA2396
:104890009800FBF741FC030019002000FBF73CFCEB
:1048A0000300180000F08FFE031E01D001230FE06B
:1048B0007B68032B0BD8796801235B420022180028
:1048C00000F05CFE064B7A681A60002300E00123CA
:1048D0001800BD4603B090BD040000200C0000206D
:1048E0000800002080B500AF054B1B781A00054B6F
:1048F0001B68D218034B1A60C046BD4680BDC04637
:104900000C0000201403002080B500AF024B1B6890
:104910001800BD4680BDC0461403002080B584B099
:1049200000AF7860FFF7F0FF0300BB607B68FB60BF
:10493000FB68013305D00A4B1B781A00FB689B18F3
:10494000FB60C046FFF7E0FF0200BB68D31AFA68BD
:104950009A42F7D8C046C046BD4604B080BDC046A6
:104960000C00002080B584B000AF78600F23FB18E6
:1049700000221A700023BB607B68002B01D1012349
:1049800025E17B689B6B002B0AD17B680022DA63F0
:104990007B683422002199547B681800FFF71EFEC3
:1049A0007B689B6B1022134000D003E10F23FB18A0
:1049B0001B78002B00D0FDE07B681B689B680422FD
:1049C000134000D0F6E07B689B6B834A13400222C1
:1049D0001A437B689A637B681B689B6803221340B9
:1049E000012B12D17B681B681B6801221340012B2D
:1049F00009D07B681B68DA6880231B021A40802379
:104A00001B029A4201D1012300E00023002B16D1A2
:104A10007B681B68DB681822934319007B689A68DF
:104A20007B681B680A43DA607B681B681B699B0014
:104A300099087B685A687B681B680A431A617B681F
:104A40001B68DA687B681B6864490A40DA607B6827
:104A50001B7E9A037B685B7EDB031A437B689B7E2D
:104A60005B031A437B689B6A012B02D080235B01A6
:104A700000E000231A437B68DB681A437B681B69EC
:104A8000022B01D1042300E000231A437B68242178
:104A90005B5C5B001343BA681343BB607B68DB7EDF
:104AA000012B15D17B689B7E002B05D1BB68802232
:104AB00052021343BB600BE07B689B6B20221A43BE
:104AC0007B689A637B68DB6B01221A437B68DA633D
:104AD0007B68DA69C223FF339A4207D07B68DA69C0
:104AE0007B681B6A1343BA681343BB607B681B680F
:104AF000D9687B681B68BA680A43DA607B68DA6A3F
:104B000080235B059A421BD07B68DB6A012B17D0A0
:104B10007B68DB6A022B13D07B68DB6A032B0FD028
:104B20007B68DB6A042B0BD07B68DB6A052B07D024
:104B30007B68DB6A062B03D07B68DB6A072B12D10C
:104B40007B681B685A697B681B6807218A435A6126
:104B50007B681B6859697B68DB6A07221A407B689F
:104B60001B680A435A617B681B68DB681C4A134058
:104B7000BA689A420BD17B680022DA637B689B6B30
:104B80000322934301221A437B689A631CE07B68EB
:104B90009B6B1222934310221A437B689A637B68B3
:104BA000DB6B01221A437B68DA630F23FB180122B7
:104BB0001A7009E07B689B6B10221A437B689A632A
:104BC0000F23FB1801221A700F23FB181B78180003
:104BD000BD4604B080BDC046FDFEFFFF1902FEFFCA
:104BE000E7FF3F83B0B584B000AF78600F23FB18B8
:104BF00000221A707B6834229B5C012B01D10223B6
:104C000029E07B683422012199540F257C197B68A7
:104C1000180000F0BAFB030023707B191B78002BEF
:104C200012D17C197B68180000F03EFB0300237052
:104C30007B191B78002B07D17B689B6B084A1340BC
:104C400001221A437B689A637B68342200219954BD
:104C50000F23FB181B781800BD4604B0B0BDC0463A
:104C6000FEFEFFFF90B585B000AF78600F23FB1804
:104C700000221A707B681B689B680422134056D17F
:104C80007B6834229B5C012B01D1022356E07B68B8
:104C90003422012199547B685B7E012B07D00F23BE
:104CA000FC187B68180000F07BFA030023700F23C8
:104CB000FB181B78002B3ED17B689B6B214A13406D
:104CC000802252001A437B689A637B680022DA6371
:104CD0007B683422002199547B681B681C221A606F
:104CE0007B685B69082B10D17B681B685A687B68FE
:104CF0001B6804218A435A607B681B685A687B687A
:104D00001B6818210A435A6008E07B681B685A68D0
:104D10007B681B681C210A435A60C0467B681B687D
:104D20009A687B681B6804210A439A6003E00F239A
:104D3000FB1802221A700F23FB181B781800BD46BF
:104D400005B090BDFEF0FFFFB0B584B000AF786055
:104D50000F23FB1800221A707B6834229B5C012B06
:104D600001D1022333E07B683422012199540F25BD
:104D70007C197B68180000F008FB030023702800F2
:104D80003B181B78002B1BD17B681B685A687B681B
:104D90001B681C218A435A6005003C187B68180078
:104DA00000F082FA030023707B191B78002B07D1D7
:104DB0007B689B6B084A134001221A437B689A6305
:104DC0007B683422002199540F23FB181B781800AC
:104DD000BD4604B0B0BDC046FEFEFFFF80B582B048
:104DE00000AF78607B681B681B6C1800BD4602B082
:104DF00080BD000080B582B000AF78607B681B6822
:104E00001B6804221340042B06D17B681B685B6877
:104E100004221340042B0DD07B681B681B680822FA
:104E20001340082B4FD17B681B685B680822134036
:104E3000082B48D17B689B6B1022134006D17B68FE
:104E40009B6B802292001A437B689A637B681B6885
:104E5000DA68C0231B0113402DD17B689B7E002B99
:104E600029D17B681B681B6808221340082B22D1BC
:104E70007B681B689B680422134010D17B681B6809
:104E80005A687B681B680C218A435A607B689B6B5D
:104E9000334A134001221A437B689A630BE07B6814
:104EA0009B6B20221A437B689A637B68DB6B012231
:104EB0001A437B68DA637B681800FEF75DF87B684D
:104EC0001B680C221A607B681B681B6880221340D9
:104ED000802B15D17B681B685B6880221340802B78
:104EE0000ED17B689B6B802252021A437B689A63C7
:104EF0007B68180000F036F87B681B6880221A6017
:104F00007B681B681B6810221340102B23D17B6821
:104F10001B685B6810221340102B1CD17B689B6AB6
:104F2000012B06D07B681B68DB6801221340012B34
:104F30000DD17B68DB6B02221A437B68DA637B68E6
:104F40001B6810221A607B68180000F013F87B6859
:104F50001B6810221A60C046BD4602B080BDC04624
:104F6000FEFEFFFF80B582B000AF7860C046BD4650
:104F700002B080BD80B582B000AF7860C046BD464B
:104F800002B080BD80B584B000AF786039600F2377
:104F9000FB1800221A700023BB607B68DA6A80234A
:104FA0005B059A4211D07B68DB6A012B0DD07B68D0
:104FB000DB6A022B09D07B68DB6A032B05D07B6898
:104FC000DB6A042B01D07B68DB6A7B6834229B5C44
:104FD000012B01D10223D0E07B68342201219954B6
:104FE0007B681B689B680422134000D0B4E03B68D8
:104FF0005B68644A934200D182E07B681B68996ACF
:105000003B681B6801229A407B681B680A439A62CE
:105010007B68DA6A80235B059A4237D07B68DB6A5B
:10502000012B33D07B68DB6A022B2FD07B68DB6AD5
:10503000032B2BD07B68DB6A042B27D07B68DB6AD1
:10504000052B23D07B68DB6A062B1FD07B68DB6ACD
:10505000072B1BD03B689A687B681B685B6907213C
:105060000B409A4212D07B681B685A697B681B68A8
:1050700007218A435A617B681B6859693B689B68B2
:1050800007221A407B681B680A435A613B681B6809
:10509000102B07D03B681B68112B03D03B681B68A3
:1050A000122B63D1384B19683B681B68102B09D051
:1050B0003B681B68112B02D18023DB0304E08023B3
:1050C0005B0401E080231B042F4A0B4313603B6801
:1050D0001B68102B4AD12D4B1B682D491800FBF77C
:1050E0001BF803001A0013009B009B185B00BB60B9
:1050F00002E0BB68013BBB60BB68002BF9D135E027
:105100007B681B689A6A3B681B68012199400B0009
:10511000D9437B681B680A409A623B681B68102B66
:1051200007D03B681B68112B03D03B681B68122B10
:105130001CD1154B19683B681B68102B07D03B68C6
:105140001B68112B01D1134B02E0134B00E0134BF2
:105150000D4A0B40136009E07B689B6B20221A43C9
:105160007B689A630F23FB1801221A707B68342234
:10517000002199540F23FB181B781800BD4604B07A
:1051800080BDC04601100000082701400400002037
:1051900040420F00FFFFBFFFFFFFFFFEFFFF7FFF4B
:1051A00080B584B000AF78600023FB600023BB6053
:1051B0007B681B689B6803221340012B12D17B681C
:1051C0001B681B6801221340012B09D07B681B68F8
:1051D000DA6880231B021A4080231B029A4201D105
:1051E000012300E00023002B52D17B681B689B68E1
:1051F0002A4A13400DD07B689B6B10221A437B68B0
:105200009A637B68DB6B01221A437B68DA630123B4
:105210003FE07B681B689A687B681B6801210A4332
:105220009A601F4B1B681F491800FAF775FF0300AF
:10523000BB6002E0BB68013BBB60BB68002BF9D1DF
:10524000FFF762FB0300FB601BE0FFF75DFB020062
:10525000FB68D31A022B14D97B681B681B680122D8
:105260001340012B0DD07B689B6B10221A437B6887
:105270009A637B68DB6B01221A437B68DA63012344
:1052800007E07B681B681B6801221340012BDCD1FF
:1052900000231800BD4604B080BDC0461700008042
:1052A0000400002040420F0080B584B000AF786059
:1052B0000023FB607B681B689B6803221340012B63
:1052C00012D17B681B681B6801221340012B09D097
:1052D0007B681B68DA6880231B021A4080231B024C
:1052E0009A4201D1012300E00023002B48D07B68C3
:1052F0001B689B6805221340012B10D17B681B683B
:105300009A687B681B6802210A439A607B681B6865
:1053100003221A60FFF7F8FA0300FB6029E07B68BC
:105320009B6B10221A437B689A637B68DB6B0122BC
:105330001A437B68DA63012323E0FFF7E5FA0200F2
:10534000FB68D31A022B14D97B681B689B68012267
:105350001340012B0DD17B689B6B10221A437B6895
:105360009A637B68DB6B01221A437B68DA63012353
:1053700007E07B681B689B6801221340012BDCD08F
:1053800000231800BD4604B080BD80B584B000AFD6
:1053900078600023FB607B681B689B6804221340D5
:1053A0003AD07B681B689B6804221340042B0DD104
:1053B0007B681B689B680222134007D17B681B68CF
:1053C0009A687B681B6810210A439A60FFF79CFA71
:1053D0000300FB601AE0FFF797FA0200FB68D31A9C
:1053E000022B13D97B681B689B68042213400DD0E5
:1053F0007B689B6B10221A437B689A637B68DB6B2C
:1054000001221A437B68DA63012306E07B681B688C
:105410009B6804221340DED100231800BD4604B06F
:1054200080BD000080B582B000AF0200FB1D1A7085
:10543000FB1D1B787F2B09D8FB1D1B781A001F232F
:105440001A40044B012191400A001A60C046BD4633
:1054500002B080BD00E100E090B583B000AF020073
:105460003960FB1D1A70FB1D1B787F2B28D82F4A33
:10547000FB1D1B785BB29B08C0339B009B58FA1D39
:105480001278110003220A40D200FF2191400A0045
:10549000D2431A4011003B689B01FF221A40FB1DBA
:1054A0001B78180003230340DB009A401F48FB1DB4
:1054B0001B785BB29B080A43C0339B001A5031E053
:1054C0001B4AFB1D1B7819000F230B40083B9B0850
:1054D00006339B00D31804331B68FA1D12781100A1
:1054E00003220A40D200FF2191400A00D2431A4011
:1054F00011003B689B01FF221A40FB1D1B7818001E
:1055000003230340DB009A400948FB1D1B781C0065
:105510000F232340083B9B080A4306339B00C31814
:1055200004331A60C046BD4603B090BD00E100E000
:1055300000ED00E080B582B000AF78607B685A1E55
:1055400080235B049A4201D3012310E00A4B7A685E
:10555000013A5A6001235B4203211800FFF77CFFE8
:10556000054B00229A60044B07221A6000231800A2
:10557000BD4602B080BDC04610E000E080B584B0FA
:1055800000AFB9607A600F217B18021C1A70BA68EC
:105590007B181B785BB211001800FFF75DFFC04657
:1055A000BD4604B080BD80B582B000AF0200FB1DD7
:1055B0001A70FB1D1B785BB21800FFF733FFC04663
:1055C000BD4602B080BD80B582B000AF78607B6818
:1055D0001800FFF7AFFF03001800BD4602B080BD02
:1055E00080B582B000AF78607B68002B01D10123C9
:1055F00015E07B681B79DBB2002B06D17B680022AB
:105600005A717B681800FFF737F87B6802221A711D
:105610007B6800221A617B6801221A71002318003E
:10562000BD4602B080BD80B586B000AFF860B960FD
:105630007A603B6000237B61FB681B687B61BB6811
:10564000002B05D17A697B68D31808337B6104E0AD
:105650007A697B68D31814337B617B693A681A6076
:1056600000231800BD4606B080BD000080B586B09E
:1056700000AFF860B9607A6000237B6100233B6172
:10568000FB685B79012B01D1022329E0FB68012231
:105690005A71FB6802221A71FB681B681B687B61E8
:1056A000114A7B689A401300DA437B6913407B619F
:1056B000BB681A68BB685B6813433B613A697B68E7
:1056C0009A4013007A6913437B61FB681B687A690F
:1056D0001A60FB6801221A71FB6800225A710023CC
:1056E0001800BD4606B080BDFE0F000080B582B038
:1056F00000AF786039607B685B79012B01D10223B0
:105700003BE07B6801225A717B6802221A717B6838
:105710001B68196801223B689A407B681B680A4332
:105720001A603B68002B0FD17B681B681B683C220A
:1057300013403C2B1AD17B681B685A687B681B6836
:1057400001210A435A6011E07B681B681A68F02344
:105750009B031A40F0239B039A4207D17B681B6886
:105760005A687B681B6802210A435A607B680122E1
:105770001A717B6800225A7100231800BD4602B0DE
:1057800080BD0000F0B587B000AFF860B9603A6046
:105790007B601723FB1801221A701623FB180022C6
:1057A0001A701523FB1800221A703E4B1B7E012B2A
:1057B00001D1022372E03B4B01221A761723FE1817
:1057C000394B180000F0C4F8030033701723FB189E
:1057D0001B78002B5CD1FB68012B04D11523FB182F
:1057E00001221A700BE0FB68022B04D11523FB1871
:1057F00002221A7003E01523FB1804221A701623E4
:10580000FB1800221A7039E016217B181B785A0009
:10581000BB68D0187B181B781B011A00203A002A9D
:1058200003DB7968D1400C0008E02022D21A7968A5
:1058300091400A003968D9400C0014437A68DA4074
:105840001500A3B2190000F067F81723FE18164BD5
:10585000180000F07DF803003370144B1A69134BE5
:1058600001218A431A611723FB181B78002B0ED1E4
:1058700016217B181A787B1801321A701623FA1831
:105880001523FB1812781B789A42BDD300E0C0465E
:10589000044B00221A761723FB181B781800BD460C
:1058A00007B0F0BD1803002050C3000000200240E4
:1058B00080B582B000AFFB1D00221A700C4B1B6933
:1058C000802213400DD00A4B0A4A5A60084B0A4AFC
:1058D0005A60074B1B698022134002D0FB1D012236
:1058E0001A70FB1D1B781800BD4602B080BDC04673
:1058F0000020024023016745AB89EFCD80B500AFA2
:10590000044B1A69034B80210A431A6100231800D3
:10591000BD4680BD0020024080B582B000AF7860F7
:105920000A00BB1C1A80084B0022DA61074B1A6977
:10593000064B01210A431A617B68BA1C12881A803F
:10594000C046BD4602B080BD1803002000200240C2
:1059500080B584B000AF7860FEF7D6FF0300FB602F
:105960000FE07B6801330CD07B68002B07D0FEF77B
:10597000CBFF0200FB68D31A7A689A4201D2032354
:105980001FE0124BDB6801221340012BE9D00F4BC3
:10599000DB6820221340202B02D10C4B2022DA603E
:1059A0000A4BDB6810221340102B05D0074BDB6835
:1059B00004221340042B03D100F00AF8012300E075
:1059C00000231800BD4604B080BDC0460020024040
:1059D00080B582B000AF00237B60134BDB681022E0
:1059E0001340102B09D1114BDB6902221A430F4BD4
:1059F000DA617B68102213437B600B4BDB68042267
:105A00001340042B09D1094BDB6901221A43074BD0
:105A1000DA617B68042213437B60034B7A68DA60A7
:105A2000C046BD4602B080BD0020024018030020E1
:105A3000B0B584B000AF786039600F23FB18012245
:105A40001A700023BB60324B1B7E012B01D1022355
:105A50005AE02F4B01221A767B681B68012B16D166
:105A60002C4B1800FFF774FF031E47D100F056F8C7
:105A70000F23FC18274B1800FFF76AFF0300237061
:105A8000254B1A69244B04218A431A6136E0214BC5
:105A90001800FFF75DFF031E30D13B680122524220
:105AA0001A607B685B68BB601FE0BB68180000F091
:105AB0004DF80F257C19174B1800FFF749FF03001D
:105AC0002370154B1A69144B02218A431A617B1902
:105AD0001B78002B03D03B68BA681A600EE0BB68E5
